:020000040800F2
:10000000800900202D0200084B6B0008FB09000846
:10001000496B0008F9070008B578000800000000E7
:10002000000000000000000000000000197500083A
:10003000FB070008000000006F700008DD75000875
:10004000470200084702000847020008470200086C
:100050004702000847020008FD07000847020008A1
:10006000470200084702000847020008470200084C
:10007000470200084702000847020008470200083C
:10008000470200084702000847020008470200082C
:1000900047020008470200084702000891080008CC
:1000A000470200084702000847020008470200080C
:1000B0004702000831760008717600084702000800
:1000C00047020008470200084702000847020008EC
:1000D0004702000819770008470200084702000895
:1000E0004D080008470200084702000847020008C0
:1000F00047020008470200084702000847020008BC
:1001000047020008470200084702000847020008AB
:10011000470200084702000847020008470200089B
:10012000470200084702000847020008470200088B
:1001300000F002F800F06BF80AA090E8000C82448E
:100140008344AAF10107DA4501D100F060F8AFF26B
:10015000090EBAE80F0013F0010F18BFFB1A43F0A5
:1001600001031847B4A70000D4A700000A444FF0C9
:10017000000C10F8013B13F0070408BF10F8014B06
:100180001D1108BF10F8015B641E05D010F8016B4B
:10019000641E01F8016BF9D113F0080F1EBF10F8AF
:1001A000014BAD1C0C1B09D16D1E58BF01F801CBD2
:1001B000FAD505E014F8016B01F8016B6D1EF9D555
:1001C0009142D6D37047000000230024002500266A
:1001D000103A28BF78C1FBD8520728BF30C148BFAA
:1001E0000B607047642900F09F80752900F09C80A7
:1001F000782900F0D580632900F09182732900F0FE
:100200009682002070471FB51FBD10B510BD00F0CD
:10021000C1FA1146FFF7F7FF07F018FD00F0DFFA0B
:1002200003B4FFF7F2FF03BC07F073FC09488047F3
:1002300009480047FEE7FEE7FEE7FEE7FEE7FEE7C8
:10024000FEE7FEE7FEE7FEE704480549054A064BE0
:1002500070470000E17500083101000880030020AC
:1002600080090020800500208005002070470000E4
:100270000FB4044910B503AA029800F05DFA10BC4F
:100280005DF814FB2000002070B504468569006805
:10029000C10601D5302600E02026C00707D070BD7A
:1002A000D4E9012130469047206A401C20626D1E2F
:1002B000F6D570BD70B5044685690078C00707D1D2
:1002C00070BDD4E9012120209047206A401C2062A3
:1002D0006D1EF6D570BD70B50C460546012A05D0D9
:1002E0002878800600D5EA69002302E0012305E0B2
:1002F0005B1C934202D2E05C0028F9D1A869E618A1
:10030000C01AA861286A184428622846FFF7BCFF73
:1003100004E0D5E9012114F8010B9047B442F8D369
:100320002846FFF7C7FF70BD2DE9F04106460024BF
:1003300010687529314616A510D0AFF3008000284B
:1003400002DA404213A507E031688A0701D512A5F9
:1003500002E0490704D511A5012401E0AFF30080B4
:1003600000210A2206F1240709E0B0FBF2FCB0FBF1
:10037000F2F302FB1C00303078541846491C002868
:10038000F3D123462A463046BDE8F04100F064B977
:10039000000000002D0000002B00000020000000E5
:1003A00070B504460D4621461068AFF300802188E1
:1003B000090502D50F4A7A4402E00E4A7A440E3209
:1003C000002104F1240305E000F00F060009965D0A
:1003D0005E54491C0028F7D120780023000704D57B
:1003E000702D02D009B1022311322046BDE87040C1
:1003F00000F032B9B8A200002DE9F05F894604464A
:100400004FF0000ADFF874B1FB44C0F820A020468A
:10041000E1688847002874D0252806D0D4E9012156
:100420009047206A401C2062F1E700265F46204684
:10043000E16888472028054607DB312D05D2781969
:1004400010F8200C08B10643F1E7B00701D526F0FB
:100450000406C4F81CA00027C4F818A02A2D09D04F
:10046000284607F04FFB38B304EB8708303DC8F847
:10047000185019E059F8041B204604EB87029161DB
:10048000E1688847012F054618D1E069002820DA85
:1004900026F020061DE0D8F8180000EB800005EBE0
:1004A00040003038C8F818002046E1688847054603
:1004B00007F028FB0028EED1012F0AD02E2D08D1FD
:1004C0002046E16888477F1C0546022F46F020063B
:1004D000C4DBA069002803DA404246F00106A061AF
:1004E000F00701D026F010066C2D0BD0682D09D036
:1004F0004C2D39D06A2D35D0742D35D07A2D33D08E
:1005000016E038E0E1682F4620468847B8420546A5
:1005100009D16C2F26D04FF48060E1680643204655
:100520008847054604E06C2F1AD04FF480700643CC
:100530000DB3A5F14100192802D8203546F4006614
:100540004A462946204626604E46FFF74BFE80B1BC
:1005500001280BD0F61D26F0070000F1080956E728
:100560004020E4E78020D8E70020D6E706F1040920
:100570004DE7284652E7206ABDE8F09F8EA20000B2
:100580004FF0000200B5134694469646203922BF2C
:10059000A0E80C50A0E80C50B1F12001BFF4F7AF77
:1005A000090728BFA0E80C5048BF0CC05DF804EB59
:1005B000890028BF40F8042B08BF704748BF20F8C7
:1005C000022B11F0804F18BF00F8012B704700007C
:1005D0004FF0013C50F8042B51F8043B9A4221D1D2
:1005E000A2EB0C03934313EACC1317D150F8042B5E
:1005F00051F8043B9A4215D1A2EB0C03934313EA42
:10060000CC130BD150F8042B51F8043B9A4209D17A
:10061000A2EB0C03934313EACC13DBD04FF00000A2
:10062000704700BFD01A01BAB1FA81F101F0180188
:1006300022FA01F0CB40C1F12001DBB2C0B2C01AF6
:100640002CFA01F3D11A914311EAC311E6D1704794
:1006500070477047704770472DE9F0470D4699463F
:100660009246044600F124080168880604D5E06932
:1006700021F01001216000E00120A84201DD471BAC
:1006800000E00027A1697A1902EB0900081AA061AD
:100690002078C00602D42046FFF7F6FD002608E0C9
:1006A000D4E901211AF806009047206A401C761C04
:1006B00020624E45F4DB2078C0060AD52046FFF7BD
:1006C000E3FD06E0D4E9012130209047206A401C78
:1006D0002062381EA7F10107F4DC07E0D4E901210C
:1006E00018F805009047206A401C2062281EA5F1DA
:1006F0000105F3DC2046FFF7DDFD2078000602D57A
:100700000220BDE8F0870120FBE710B5436913B173
:10071000AFF3008001E0FFF7DEFD012010BD12788D
:1007200000F124010A7000224A700122EDE71168ED
:100730004FF0FF32E9E70000074B70B50D467B44F0
:1007400000F011F80446284600F020F810B14FF0F0
:10075000FF3070BD204670BD7774000001694A1CEF
:1007600002610878704700B58FB0CDE901310021F2
:10077000059105497944CDE9031011466846FFF714
:100780003BFE0FB000BD0000E5FFFFFF007B00F067
:1007900080007047754600F02BF8AE4605006946AC
:1007A000534620F00700854618B020B5FFF74CFDF2
:1007B000BDE820404FF000064FF000074FF0000862
:1007C0004FF0000B21F00701AC46ACE8C009ACE8E3
:1007D000C009ACE8C009ACE8C0098D46704710B547
:1007E0000446AFF300802046BDE81040FFF718BD77
:1007F000004870471C030020FEE7704710B50A2030
:1008000007F0A6F901210E4800F0EEF801280DD1FD
:100810000C49D1F8A00170B10020C1F8A0010A492B
:10082000D1F8880148B10020C1F88801BDE8104026
:10083000012000F049B80120EFE70120F4E70000B3
:1008400000080140000021420080224210B54FF410
:100850000044204600F03EF801280FD10A4B1978D9
:1008600002290BD2094A002021B9C2F880010120D7
:10087000C2F88001C2F8B001491C19702046BDE8D9
:10088000104000F021B800001500002000002142B7
:1008900010B50A2007F05CF92021094800F0A4F8FF
:1008A00030B90849D1F8A00138B10020C1F8A00141
:1008B000BDE81040202000F007B80120F6E7000056
:1008C000001001400000214201490860704700000B
:1008D00014040140064A014600201268044B0A40F5
:1008E00014331B680B4202D0002A00D0012070474D
:1008F00000040140F0B5CC78002204F00F03E406B8
:1009000001D58C7823430C784FF00F0C14F0FF0FB7
:100910004FF0010E1BD005680E880EFA02F4264037
:10092000A64210D196000CFA06F725EA070703FA4B
:1009300006F5CE783D43282E02D0482E02D002E0A4
:10094000446100E00461521C082AE5D305600A886E
:10095000FF2A1CD94468002202F108060EFA06F5A7
:100960000E882E40AE420ED196000CFA06F7BC431C
:1009700003FA06F7CE783C43282E00D14561CE78A5
:10098000482E00D10561521C082AE5D34460F0BD11
:10099000F0B5144C002801DAE36900E06368450D06
:1009A0002E0185B2C0F30157B540C0F30342032FB7
:1009B00005D0C6020AD503269640B34307E023F0CC
:1009C0007062636823F07063636002E0AB4343F0DE
:1009D000706201B12A43002801DAE261F0BD626071
:1009E000F0BD0000000001400246002092680A426B
:1009F00000D00120704701617047FEE72DE9F04308
:100A00001C4F0646002438887D884543B888A0F5E9
:100A1000D041043902D1B87901280CD00021084610
:100A200003F0FCFF04F09CFA13494FF480774B1558
:100A3000124A80201AE00020B8714FF02A08A7F867
:100A40000A804FF02B09A7F80C90014603F0E6FF4F
:100A50000120B871A7F80A90A7F80C80E2E70F61AF
:100A60004B611660486108610B61641CAC42F6D3AF
:100A7000BDE8F08300020020001001400C0C014092
:100A80002DE9F04F4A492A232B24898845F2105A30
:100A90004FF4305B4FF4285E4FF448754FF0F00C84
:100AA00049F241394FF4A07745F210364FF4F07215
:100AB00080B13F484FF00108494580F80680078023
:100AC000A0F802C001D0B1423ED12C25058143815E
:100AD000848157E036484FF00008494580F8068089
:100AE000A0F800C0478006D0A1F5D04CBCF1040CA2
:100AF00001D0B1420CD12C2505814381A1F5D04311
:100B00008481043B01D0B14244D10780428041E05E
:100B1000514507D1A0F808B0A0F80AE04FF42C51D5
:100B200081810EE0A1F5C856633E06D022210181E5
:100B300020214181212181812CE02C2101814481CE
:100B400083810280458025E0A1F5D04CBCF1040CE6
:100B500009D051450BD1A0F808B0A0F80AE04FF435
:100B60002C53838121E02C250581448109E0A1F5E6
:100B7000C85CBCF1630C12D0222303812123438182
:100B800020238381A1F5D043043B01D0B14201D1A0
:100B900002804780BDE8F04F002003F0C5BD4FF054
:100BA0002C0CA0F808C04381848105804280E9E7CD
:100BB000000200202DE9F74F0546904881B0DFF88C
:100BC00040A2818802982F0A00F0FF094FEA1028FE
:100BD000E8B200908948A1F513424FF4807B408928
:100BE0004FF40076413A18D0844CA1F5A642103A51
:100BF00013D0A1F5AA42103A36D02246A1F5C85723
:100C000093791288521B521E633F63D0A1F5D047DF
:100C1000043F7DD0012B7CD0D1E004F08FF9794CDA
:100C2000C4F810B06661CAF800708025656125615E
:100C30002661C4F810B066610098CAF800006561CA
:100C4000256126616D48808904F078F9C4F810B0F8
:100C500066615146CAF80080656125612661C4F865
:100C600010B06661484631E004F068F9654CC4F89C
:100C700010B06661CAF80070802565612561266143
:100C80005E484089401C80B204F058F9C4F810B0A6
:100C900066610098CAF800006561256126615748C1
:100CA000808904F04BF9C4F810B06661CAF800807E
:100CB00065612561266151488089401C80B204F03D
:100CC0003DF9C4F810B06661484651460860656158
:100CD000256171E003B995B204F030F9494CC4F8CC
:100CE00010B06661280ACAF8000080276761276192
:100CF0002661C4F810B06661E9B2CAF800106761F5
:100D000027612661C4F810B06661CAF8000001E0EE
:100D100025E053E0676127612661C4F810B0666181
:100D2000CAF800106761276126613448808904F0A1
:100D300005F9C4F810B066615146CAF800806761D1
:100D400027612661C4F810B06661CAF80090676137
:100D500027612661C4F810B06661404621E0012B8E
:100D600000D195B204F0EAF8264CC4F810B06661E0
:100D7000290ACAF800108027676127612661C4F834
:100D800010B06661E9B2CAF8001067612761266198
:100D90001A48808904F0D2F8C4F810B06661404661
:100DA00051460860676127612661C4F810B066612A
:100DB000C1F8009067612761266107E095B2294676
:100DC00004F0D4F8A089029904F0D0F80D48C0F8D6
:100DD00014B0466109490989CAF8001080214161AF
:100DE00001610661C0F810B04661039BCAF800308B
:100DF000416101610661BDE8FF8F00000002002033
:100E00000C0C0140001001402DE9F84F0121192080
:100E100006F02EF90121FE48FFF7BAFD4FF4F86401
:100E2000ADF8004010208DF80300DFF8E8830320C0
:100E30008DF80200694645464046FFF75BFD2146B6
:100E40002846FFF7D8FDF44D4FF6FF74ADF800408B
:100E500069462846FFF74EFD21462846FFF7CBFDA1
:100E6000322006F075FE0121002004F07FF83220C8
:100E700006F06EFE002003F001FCE84C49F2413719
:100E800046F60409A08045F2103A45F21055FF28B5
:100E900006D3A0F57F41FF3902D0B0F5134F70D1D2
:100EA000D32004F04BF803F0B1FB03F0AFFB03F0E9
:100EB000ADFB4FF6FF7606EA0020A08003F0A6FB0C
:100EC000A1880843A080B8425BD0BF2004F036F868
:100ED00003F09CFB03F09AFB03F098FB03F096FBF6
:100EE00006EA0020A08003F091FBA1880843A080BF
:100EF000484546D0D42004F021F803F087FB03F0E6
:100F000085FB03F083FB06EA0020A08003F07EFB54
:100F1000A1880843A080504533D04FF45A4004F0D4
:100F20000DF803F073FB4FF45B4004F007F803F097
:100F30006DFB06EA0020A0804FF45C4003F0FEFF4A
:100F400003F064FBA1880843A080B0F5004F7DD07A
:100F5000A84216D0A12003F0F1FF03F057FBA080B8
:100F600003F054FB06EA0020A08003F04FFBA188A9
:100F70000843A0F5AE41A080613902D141F663106B
:100F8000A080A188A6A0FFF773F9A088B8427DD100
:100F9000CF2003F0D3FF002003F0BEFFC12003F0F9
:100FA000BBFF302003F0B8FFED2003F0C7FF642043
:100FB00003F0B2FF032003F0AFFF122003F0ACFFF9
:100FC000812003F0A9FFE82003F0B8FF852003F09B
:100FD000A3FF102003F0A0FF7A2003F09DFFCB2099
:100FE00003F0ACFF392003F097FF2C2003F094FFAF
:100FF000002003F091FF342003F08EFF022003F065
:101000008BFFF72003F09AFF202003F085FFEA20F2
:1010100003F094FF002003F07FFF002003F07CFF2B
:10102000C02003F08BFF1B2003F076FFC12003F0EC
:1010300085FF012003F070FFC52003F07FFF302003
:1010400003F06AFF302003F067FF00E0B3E0C72041
:1010500003F074FFB72003F05FFF362003F06EFF4C
:10106000482003F059FF3A2003F068FF552003F0B1
:1010700053FFB12003F062FF002003F04DFF1A2060
:1010800003F04AFFB62003F059FF00E095E00A2084
:1010900003F042FFA22003F03FFFF22003F04EFFD7
:1010A000002003F039FF262003F048FF012003F061
:1010B00033FFE02003F042FF0F2003F02DFF2A2032
:1010C00003F02AFF282003F027FF082003F024FF65
:1010D0000E2003F021FF082003F01EFF542003F030
:1010E0001BFFA92003F018FF432003F015FF0A207F
:1010F00003F012FF0F2003F00FFF002003F00CFF9E
:10110000002003F009FF002003F006FF002003F099
:1011100003FFE12003F012FF002003F0FDFE152085
:1011200003F0FAFE172003F0F7FE072003F0F4FEA9
:10113000112003F0F1FE062003F0EEFE2B2003F059
:10114000EBFE562003F0E8FE3C2003F0E5FE052010
:1011500003F0E2FE102003F0DFFE0F2003F0DCFEC0
:101160003F2003F0D9FE3F2003F0D6FE0F2003F00E
:10117000D3FE2B2003F0E2FE002003F0CDFE002082
:1011800003F0CAFE012003F0C7FE3F2003F0C4FEB7
:101190002A2003F0D3FE002003F0BEFE002003F05F
:1011A000BBFE002003F0B8FEEF2003F0B5FE1120D7
:1011B00003F0C4FEB8E0A580E3E648457ED11120E7
:1011C00003F0BCFE142006F0C3FCD02003F0B6FEF2
:1011D000072003F0A1FE422003F09EFE1D2003F035
:1011E0009BFED12003F0AAFE002003F095FE1A20FA
:1011F00003F092FE092003F08FFED22003F09EFE42
:10120000012003F089FE222003F086FEC0200FE0BB
:101210000002300000100140000C014000020020DC
:10122000204C43442049443A25780D0A0000000030
:1012300003F084FE102003F06FFE3B2003F06CFEF1
:10124000002003F069FE022003F066FE112003F087
:1012500063FEC52003F072FE032003F05DFEC8208C
:1012600003F06CFE002003F057FE252003F054FE2F
:10127000212003F051FE052003F04EFE002003F074
:101280004BFE0A2003F048FE652003F045FE2520B2
:1012900003F042FE772003F03FFE502003F03CFEB7
:1012A0000F2003F039FE002003F036FEF82003F093
:1012B00045FE012003F030FEFE2000E03AE003F09E
:1012C0003DFE002003F028FE022003F025FE202032
:1012D00003F034FE362003F031FE082003F01CFE3C
:1012E0003A2003F02BFE552003F016FE2B2003F0CE
:1012F00025FE002003F010FE002003F00DFE01206B
:1013000003F00AFE3F2003F007FE2A2003F016FE3A
:10131000002003F001FE002003F0FEFD012003F099
:10132000FBFDDF2003F0F8FD782006F011FC2920FA
:1013300001F0FBBE50457CD1ED2003F0FFFD012004
:1013400003F0EAFDFE2003F0E7FDEE2003F0F6FDDA
:10135000DE2003F0E1FD212003F0DEFDF12003F0AB
:10136000EDFD012003F0D8FDDF2003F0E7FD1020A4
:1013700003F0D2FDC42003F0E1FD8F2003F0CCFD8B
:10138000C62003F0DBFD002003F0C6FDE22003F0E1
:10139000C3FDE22003F0C0FDE22003F0BDFDBF204D
:1013A00003F0CCFDAA2003F0B7FDB02003F0C6FD8A
:1013B0000D2003F0B1FD002003F0AEFD0D2003F081
:1013C000ABFD002003F0A8FD112003F0A5FD0020D7
:1013D00003F0A2FD192003F09FFD002003F09CFD07
:1013E000212003F099FD002003F096FD2D2003F04D
:1013F00093FD002003F090FD3D2003F08DFD0020C3
:1014000003F08AFD5D2003F087FD002003F084FDDA
:101410005D2003F081FD002003F07EFDB12003F08C
:101420008DFD802003F078FD002003F075FD8B20FA
:1014300000E0FCE303F070FD002003F06DFD96205A
:1014400003F06AFD002003F067FDB22003F076FD93
:10145000002003F061FD002003F05EFD022003F098
:101460005BFD002003F058FD032003F055FD002034
:1014700003F052FDB32003F061FD002003F04CFDAA
:10148000002003F049FD002003F046FD002003F09A
:1014900043FD002003F040FD002003F03DFD00204F
:1014A00003F03AFD002003F037FD002003F034FD87
:1014B000002003F031FD002003F02EFD002003F09A
:1014C0002BFD002003F028FD002003F025FD002067
:1014D00003F022FD002003F01FFD002003F01CFD9F
:1014E000002003F019FD002003F016FD002003F09A
:1014F00013FD002003F010FD002003F00DFD00207F
:1015000003F00AFD002003F007FDB42003F016FDF0
:101510008B2003F001FD002003F0FEFC962003F079
:10152000FBFC002003F0F8FCA12003F0F5FC0020F8
:1015300003F0F2FCB52003F001FD022003F0ECFC07
:10154000002003F0E9FC032003F0E6FC002003F098
:10155000E3FC042003F0E0FC002003F0DDFCB620F7
:1015600003F0ECFC002003F0D7FC002003F0D4FCD7
:10157000B72003F0E3FC002003F0CEFC002003F0D2
:10158000CBFC3F2003F0C8FC002003F0C5FC5E202C
:1015900003F0C2FC002003F0BFFC642003F0BCFC9D
:1015A000002003F0B9FC8C2003F0B6FC002003F00F
:1015B000B3FCAC2003F0B0FC002003F0ADFCDC2059
:1015C00003F0AAFC002003F0A7FC702003F0A4FCA9
:1015D000002003F0A1FC902003F09EFC002003F00B
:1015E0009BFCEB2003F098FC002003F095FCDC2032
:1015F00003F092FC002003F08FFCB82003F09EFC67
:10160000002003F089FC002003F086FC002003F09A
:1016100083FC002003F080FC002003F07DFC002010
:1016200003F07AFC002003F077FC002003F074FC48
:10163000BA2003F083FC242003F06EFC002003F0AA
:101640006BFC002003F068FC002003F065FCC12067
:1016500003F074FC202003F05FFC002003F05CFC2E
:10166000542003F059FC002003F056FCFF2003F047
:1016700053FC002003F050FCC22003F05FFC0A2062
:1016800003F04AFC002003F047FC042003F044FC74
:10169000002003F041FCC32003F050FC3C2003F089
:1016A0003BFC002003F038FC3A2003F035FC00201E
:1016B00003F032FC392003F02FFC002003F02CFC57
:1016C000372003F029FC002003F026FC3C2003F027
:1016D00023FC002003F020FC362003F01DFC00203A
:1016E00003F01AFC322003F017FC002003F014FC76
:1016F0002F2003F011FC002003F00EFC2C2003F03F
:101700000BFC002003F008FC292003F005FC00205E
:1017100003F002FC262003F0FFFB002003F0FCFB9B
:10172000242003F0F9FB002003F0F6FB242003F053
:10173000F3FB002003F0F0FB232003F0EDFB00207F
:1017400003F0EAFB3C2003F0E7FB002003F0E4FB9E
:10175000362003F0E1FB002003F0DEFB322003F033
:10176000DBFB002003F0D8FB2F2003F0D5FB00208B
:1017700003F0D2FB2C2003F0CFFB002003F0CCFBC6
:10178000292003F0C9FB002003F0C6FB262003F04C
:10179000C3FB002003F0C0FB242003F0BDFB0020AE
:1017A00003F0BAFB242003F0B7FB002003F0B4FBE6
:1017B000232003F0B1FB002003F0AEFBC42003F0B4
:1017C000BDFB622003F0A8FB002003F0A5FB052071
:1017D00003F0A2FB002003F09FFB842003F09CFB9E
:1017E000002003F099FBF02003F096FB002003F0AB
:1017F00093FB182003F090FB002003F08DFBA42046
:1018000003F08AFB002003F087FB182003F084FB21
:10181000002003F081FB502003F07EFB002003F04A
:101820007BFB0C2003F078FB002003F075FB1720F6
:1018300003F072FB002003F06FFB952003F06CFBBC
:10184000002003F069FBF32003F066FB002003F0A7
:1018500063FBE62003F060FB002003F05DFBC52086
:1018600003F06CFB322003F057FB002003F054FB25
:10187000442003F051FB002003F04EFB652003F0F1
:101880004BFB002003F048FB762003F045FB0020D3
:1018900003F042FB882003F03FFB002003F03CFBF9
:1018A000C62003F04BFB202003F036FB002003F0A2
:1018B00033FB172003F030FB002003F02DFB012049
:1018C00003F02AFB002003F027FBC72003F036FBC0
:1018D000002003F021FB002003F01EFB002003F09A
:1018E0001BFB002003F018FBC82003F027FB00209F
:1018F00003F012FB002003F00FFB002003F00CFBB1
:10190000002003F009FBC92003F018FB002003F0BE
:1019100003FB002003F000FB002003F0FDFA002091
:1019200003F0FAFA002003F0F7FA002003F0F4FACB
:10193000002003F0F1FA002003F0EEFA002003F09B
:10194000EBFA002003F0E8FA002003F0E5FA0020AB
:1019500003F0E2FA002003F0DFFA002003F0DCFAE3
:10196000002003F0D9FA002003F0D6FAE02003F0BB
:10197000E5FA162003F0D0FA002003F0CDFA1C207F
:1019800003F0CAFA002003F0C7FA212003F0C4FADA
:10199000002003F0C1FA362003F0BEFA002003F065
:1019A000BBFA462003F0B8FA002003F0B5FA522043
:1019B00003F0B2FA002003F0AFFA642003F0ACFAAF
:1019C000002003F0A9FA7A2003F0A6FA002003F021
:1019D000A3FA8B2003F0A0FA002003F09DFA9920CF
:1019E00003F09AFA002003F097FAA82003F094FA83
:1019F000002003F091FAB92003F08EFA002003F0E2
:101A00008BFAC42003F088FA002003F085FACA207C
:101A100003F082FA002003F07FFAD22003F07CFA70
:101A2000002003F079FAD92003F076FA002003F0C1
:101A300073FAE02003F070FA002003F06DFAF3204F
:101A400003F06AFA002003F067FAE12003F076FA67
:101A5000162003F061FA002003F05EFA1C2003F068
:101A60005BFA002003F058FA222003F055FA002018
:101A700003F052FA362003F04FFA002003F04CFA3C
:101A8000452003F049FA002003F046FA522003F003
:101A900043FA002003F040FA642003F03DFA0020EE
:101AA00003F03AFA7A2003F037FA002003F034FA10
:101AB0008B2003F031FA002003F02EFA992003F076
:101AC0002BFA002003F028FAA82003F025FA0020C2
:101AD00003F022FAB92003F01FFA002003F01CFAE9
:101AE000C42003F019FA002003F016FACA2003F00C
:101AF00013FA002003F010FAD22003F00DFA0020B0
:101B000003F00AFAD82003F007FA002003F004FAE1
:101B1000E02003F001FA002003F0FEF9F32003F0C7
:101B2000FBF9002003F0F8F9E22003F007FA0520A2
:101B300003F0F2F9002003F0EFF90B2003F0ECF9C9
:101B4000002003F0E9F91B2003F0E6F9002003F080
:101B5000E3F9342003F0E0F9002003F0DDF944203C
:101B600003F0DAF9002003F0D7F94F2003F0D4F99D
:101B7000002003F0D1F9612003F0CEF9002003F03A
:101B8000CBF9792003F0C8F9002003F0C5F98820CB
:101B900003F0C2F9002003F0BFF9972003F0BCF96D
:101BA000002003F0B9F9A62003F0B6F9002003F0F5
:101BB000B3F9B72003F0B0F9002003F0ADF9C2206B
:101BC00003F0AAF9002003F0A7F9C72003F0A4F955
:101BD000002003F0A1F9D12003F09EF9002003F0CA
:101BE0009BF9D62003F098F9002003F095F9DD2049
:101BF00003F092F9002003F08FF9F32003F08CF941
:101C0000002003F089F9E32003F098F9052003F0A0
:101C100083F9002003F080F90A2003F07DF9002009
:101C200003F07AF91C2003F077F9002000E0FDE2D0
:101C300003F072F9332003F06FF9002003F06CF920
:101C4000442003F069F9002003F066F9502003F006
:101C500063F9002003F060F9622003F05DF90020D1
:101C600003F05AF9782003F057F9002003F054F9F3
:101C7000882003F051F9002003F04EF9972003F07B
:101C80004BF9002003F048F9A62003F045F90020A5
:101C900003F042F9B72003F03FF9002003F03CF9CC
:101CA000C22003F039F9002003F036F9C72003F011
:101CB00033F9002003F030F9D12003F02DF9002092
:101CC00003F02AF9D52003F027F9002003F024F9C6
:101CD000DD2003F021F9002003F01EF9F32003F0CA
:101CE0001BF9002003F018F9E42003F027F9012084
:101CF00003F012F9002003F00FF9012003F00CF9B2
:101D0000002003F009F9022003F006F9002003F097
:101D100003F92A2003F000F9002003F0FDF83C202D
:101D200003F0FAF8002003F0F7F84B2003F0F4F882
:101D3000002003F0F1F85D2003F0EEF8002003F03E
:101D4000EBF8742003F0E8F8002003F0E5F88420B5
:101D500003F0E2F8002003F0DFF8932003F0DCF852
:101D6000002003F0D9F8A22003F0D6F8002003F0F9
:101D7000D3F8B32003F0D0F8002003F0CDF8BE2054
:101D800003F0CAF8002003F0C7F8C42003F0C4F839
:101D9000002003F0C1F8CD2003F0BEF8002003F0CE
:101DA000BBF8D32003F0B8F8002003F0B5F8DD202D
:101DB00003F0B2F8002003F0AFF8F32003F0ACF822
:101DC000002003F0A9F8E52003F0B8F8002003F0A4
:101DD000A3F8002003F0A0F8002003F09DF80020F5
:101DE00003F09AF8022003F097F8002003F094F82B
:101DF000292003F091F8002003F08EF83C2003F036
:101E00008BF8002003F088F84B2003F085F80020C1
:101E100003F082F85D2003F07FF8002003F07CF8E7
:101E2000742003F079F8002003F076F8842003F0A2
:101E300073F8002003F070F8932003F06DF8002091
:101E400003F06AF8A22003F067F8002003F064F8BA
:101E5000B32003F061F8002003F05EF8BE2003F029
:101E60005BF8002003F058F8C42003F055F8002078
:101E700003F052F8CD2003F04FF8002003F04CF8A7
:101E8000D32003F049F8002003F046F8DC2003F0EB
:101E900043F8002003F040F8F32003F03DF8002061
:101EA00003F03AF8E62003F049F8112003F034F883
:101EB000002003F031F8342003F02EF8002003F066
:101EC0002BF8562003F028F8002003F025F87620A0
:101ED00003F022F8002003F01FF8772003F01CF82D
:101EE000002003F019F8662003F016F8002003F034
:101EF00013F8882003F010F8002003F00DF8992063
:101F000003F00AF8002003F007F8BB2003F004F800
:101F1000002003F001F8992002F0FEFF002002F0FB
:101F2000FBFF662002F0F8FF002002F0F5FF5520CD
:101F300002F0F2FF002002F0EFFF552002F0ECFF6C
:101F4000002002F0E9FF452002F0E6FF002002F049
:101F5000E3FF432002F0E0FF002002F0DDFF442019
:101F600002F0DAFF002002F0D7FFE72002F0E6FFE0
:101F7000322002F0D1FF002002F0CEFF552002F007
:101F8000CBFF002002F0C8FF762002F0C5FF002042
:101F900002F0C2FF662002F0BFFF002002F0BCFF8B
:101FA000672002F0B9FF002002F0B6FF672002F0C0
:101FB000B3FF002002F0B0FF872002F0ADFF002049
:101FC00002F0AAFF992002F0A7FF002002F0A4FF70
:101FD000BB2002F0A1FF002002F09EFF992002F03A
:101FE0009BFF002002F098FF772002F095FF002071
:101FF00002F092FF442002F08FFF002002F08CFFDD
:10200000562002F089FF002002F086FF232002F014
:1020100083FF002002F080FF332002F07DFF0020CC
:1020200002F07AFF452002F077FF002002F074FFF3
:10203000E82002F083FF002002F06EFF002002F093
:102040006BFF992002F068FF002002F065FF8720F7
:1020500002F062FF002002F05FFF882002F05CFFC8
:10206000002002F059FF772002F056FF002002F016
:1020700053FF662002F050FF002002F04DFF882041
:1020800002F04AFF002002F047FFAA2002F044FFBE
:10209000002002F041FFBB2002F03EFF002002F0D2
:1020A0003BFF992002F038FF002002F035FF662048
:1020B00002F032FF002002F02FFF552002F02CFF2B
:1020C000002002F029FF552002F026FF002002F038
:1020D00023FF442002F020FF002002F01DFF4420D7
:1020E00002F01AFF002002F017FF552002F014FF43
:1020F000002002F011FFE92002F020FFAA2002F0E8
:102100000BFF002002F008FF002002F005FF002076
:1021100002F002FF002002F011FFAA2002F0FCFEF4
:10212000CF2002F00BFF002002F0F6FE002002F0AC
:10213000F3FE002002F0F0FE002002F0EDFE002091
:1021400002F0EAFE002002F0E7FE002002F0E4FECA
:10215000002002F0E1FE002002F0DEFE002002F08E
:10216000DBFE002002F0D8FE002002F0D5FE0020A9
:1021700002F0D2FE002002F0CFFE002002F0CCFEE2
:10218000002002F0C9FE002002F0C6FEF02002F09E
:10219000D5FE002002F0C0FE502002F0BDFE00205F
:1021A00002F0BAFE002002F0B7FE002002F0B4FEFA
:1021B000F32002F0C3FE002002F0AEFEF92002F090
:1021C000BDFE062002F0A8FE102002F0A5FE292088
:1021D00002F0A2FE002002F09FFE3A2002F0AEFEC6
:1021E000552002F099FE112002F0A8FE642005F0AF
:1021F000AFFC292002F0A2FE352002F09FFE002055
:1022000002F08AFE512002F099FEFF2002F084FEC7
:10221000532002F093FE2C2002F07EFE552002F0A7
:102220008DFE822002F078FE2C20FCE3A8427DD1B6
:102230004FF470445521204602F098FE651CAA21F7
:10224000284602F093FEA61C5221304602F08EFE74
:10225000E71C0821384602F089FE4FF204080121EC
:10226000404602F083FE0D214FF4304002F07EFE26
:102270000D214BF2010002F079FE0D214BF202001C
:1022800002F074FE4FF436493421484602F06EFEE7
:1022900034214BF2016002F069FE34214BF20260FE
:1022A00002F064FE4FF4314A0D21504602F05EFE0A
:1022B0004BF2011B0D21584602F058FE0D214BF246
:1022C000021002F053FE34214FF4374002F04EFE6C
:1022D00034214BF2017002F049FE34214BF20270BE
:1022E00002F044FE00214FF4324002F03FFE002194
:1022F0004BF2012002F03AFE00214BF2022002F0E4
:1023000035FE24214FF4384002F030FE24214BF6F4
:10231000010002F02BFE24214BF6020002F026FE03
:1023200001214FF43F4002F021FE00E0FEE30F21C7
:102330004FF4334002F01AFE0F214BF2013002F04D
:1023400015FE0F214BF2023002F010FE34214FF443
:10235000394002F00BFE34214BF6011002F006FE6C
:1023600034214BF6021002F001FE08214FF43540F3
:1023700002F0FCFD08214BF2015002F0F7FD0821AC
:102380004BF2025002F0F2FD03214FF4424002F002
:10239000EDFD24214FF43A4002F0E8FD24214BF6F4
:1023A000012002F0E3FD24214BF6022002F0DEFDC5
:1023B00000214FF43C4002F0D9FD78214BF601405A
:1023C00002F0D4FD00214BF6024002F0CFFD0021C7
:1023D0004FF43D4002F0CAFD78214BF6015002F067
:1023E000C5FD00214BF6025002F0C0FD00214FF464
:1023F0003E4002F0BBFD64214BF6016002F0B6FDE9
:1024000000214FF4514002F0B1FD33214DF2011093
:1024100002F0ACFD00214DF2021002F0A7FD3421C4
:102420004DF2031002F0A2FD00214DF2041002F063
:102430009DFD3A214DF2051002F098FD00214DF26C
:10244000061002F093FD4A214DF2071002F08EFDB6
:1024500000214DF2081002F089FD5C214DF20910B7
:1024600002F084FD00214DF20A1002F07FFD81216F
:102470004DF20B1002F07AFD00214DF20C1002F02B
:1024800075FDA6214DF20D1002F070FD00214DF2F8
:102490000E1002F06BFDE5214DF20F1002F066FD0B
:1024A00001214DF2101002F061FD13214DF21110C7
:1024B00002F05CFD01214DF2121002F057FD542193
:1024C0004DF2131002F052FD01214DF2141002F0F2
:1024D0004DFD82214DF2151002F048FD01214DF213
:1024E000161002F043FDCA214DF2171002F03EFD16
:1024F00002214DF2181002F039FD00214DF21910A1
:1025000002F034FD02214DF21A1002F02FFD0121DC
:102510004DF21B1002F02AFD02214DF21C1002F0B8
:1025200025FD34214DF21D1002F020FD02214DF257
:102530001E1002F01BFD67214DF21F1002F016FD68
:1025400002214DF2201002F011FD84214DF22110E4
:1025500002F00CFD02214DF2221002F007FDA42131
:102560004DF2231002F002FD02214DF2241002F080
:10257000FDFCB7214DF2251002F0F8FC02214DF2CE
:10258000261002F0F3FCCF214DF2271002F0EEFCF2
:1025900002214DF2281002F0E9FCDE214DF2291053
:1025A00002F0E4FC02214DF22A1002F0DFFCF221DD
:1025B0004DF22B1002F0DAFC02214DF22C1002F049
:1025C000D5FCFE214DF22D1002F0D0FC03214DF27E
:1025D0002E1002F0CBFC10214DF22F1002F0C6FCA1
:1025E00003214DF2301002F0C1FC33214DF23110C5
:1025F00002F0BCFC03214DF2321002F0B7FC6D2159
:102600004DF2331002F0B2FC00214FF4524002F0C0
:10261000ADFC33214DF2012002F0A8FC00214DF267
:10262000022002F0A3FC34214DF2032002F09EFCB4
:1026300000214DF2042002F099FC3A214DF20520D0
:1026400002F094FC00214DF2062002F08FFC4A219A
:102650004DF2072002F08AFC00214DF2082002F022
:1026600085FC5C214DF2092002F080FC00214DF236
:102670000A2002F07BFC81214DF20B2002F076FC57
:1026800000214DF20C2002F071FCA6214DF20D202C
:1026900002F06CFC00214DF20E2002F067FCE521F7
:1026A0004DF20F2002F062FC01214DF2102002F0E9
:1026B0005DFC13214DF2112002F058FC01214DF276
:1026C000122002F053FC54214DF2132002F04EFC74
:1026D00001214DF2142002F049FC82214DF2152017
:1026E00002F044FC01214DF2162002F03FFCCA2109
:1026F0004DF2172002F03AFC02214DF2182002F0B0
:1027000035FC00214DF2192002F030FC02214DF27F
:102710001A2002F02BFC01214DF21B2002F026FCB6
:1027200002214DF21C2002F021FC34214DF21D202B
:1027300002F01CFC02214DF21E2002F017FC672162
:102740004DF21F2002F012FC02214DF2202002F077
:102750000DFC84214DF2212002F008FC02214DF2F3
:10276000222002F003FCA4214DF2232002F0FEFB04
:1027700002214DF2242002F0F9FBB7214DF2252071
:1027800002F0F4FB02214DF2262002F0EFFBCF21F4
:102790004DF2272002F0EAFB02214DF2282002F040
:1027A000E5FBDE214DF2292002F0E0FB02214DF293
:1027B0002A2002F0DBFBF2214DF22B2002F0D6FBA7
:1027C00002214DF22C2002F0D1FBFE214DF22D20F2
:1027D00002F0CCFB03214DF22E2002F0C7FB1021AA
:1027E0004DF22F2002F0C2FB03214DF2302002F007
:1027F000BDFB33214DF2312002F0B8FB03214DF235
:10280000322002F0B3FB6D214DF2332002F0AEFB1B
:1028100000214FF4534002F0A9FB33214DF2013067
:1028200002F0A4FB00214DF2023002F09FFB3421A4
:102830004DF2033002F09AFB00214DF2043002F019
:1028400095FB3A214DF2053002F090FB00214DF24C
:10285000063002F08BFB4A214DF2073002F086FB76
:1028600000214DF2083002F081FB5C214DF209306D
:1028700002F07CFB00214DF20A3002F077FB81214F
:102880004DF20B3002F072FB00214DF20C3002F0E1
:102890006DFBA6214DF20D3002F068FB00214DF2D8
:1028A0000E3002F063FBE5214DF20F3002F05EFBCB
:1028B00001214DF2103002F059FB13214DF211307D
:1028C00002F054FB01214DF2123002F04FFB542173
:1028D0004DF2133002F04AFB01214DF2143002F0A8
:1028E00045FB82214DF2153002F040FB01214DF2F3
:1028F000163002F03BFBCA214DF2173002F036FBD6
:1029000002214DF2183002F031FB00214DF2193056
:1029100002F02CFB02214DF21A3002F027FB0121BC
:102920004DF21B3002F022FB02214DF21C3002F06E
:102930001DFB34214DF21D3002F018FB02214DF237
:102940001E3002F013FB67214DF21F3002F00EFB28
:1029500002214DF2203002F009FB84214DF221309A
:1029600002F004FB02214DF2223002F0FFFAA42112
:102970004DF2233002F0FAFA02214DF2243002F037
:10298000F5FAB7214DF2253002F0F0FA02214DF2AE
:10299000263002F0EBFACF214DF2273002F0E6FAB2
:1029A00002214DF2283002F0E1FADE214DF2293009
:1029B00002F0DCFA02214DF22A3002F0D7FAF221BD
:1029C0004DF22B3002F0D2FA02214DF22C3002F0FF
:1029D000CDFAFE214DF22D3002F0C8FA03214DF25E
:1029E0002E3002F0C3FA10214DF22F3002F0BEFA61
:1029F00003214DF2303002F0B9FA33214DF231307B
:102A000002F0B4FA03214DF2323002F0AFFA6D2138
:102A10004DF2333002F0AAFA00214FF4544002F094
:102A2000A5FA332100E080E34DF2014002F09EFA66
:102A300000214DF2024002F099FA34214DF2034098
:102A400002F094FA00214DF2044002F08FFA3A218C
:102A50004DF2054002F08AFA00214DF2064002F0E4
:102A600085FA4A214DF2074002F080FA00214DF22A
:102A7000084002F07BFA5C214DF2094002F076FA40
:102A800000214DF20A4002F071FA81214DF20B4013
:102A900002F06CFA00214DF20C4002F067FAA62118
:102AA0004DF20D4002F062FA00214DF20E4002F0AC
:102AB0005DFAE5214DF20F4002F058FA01214DF286
:102AC000104002F053FA13214DF2114002F04EFA79
:102AD00001214DF2124002F049FA54214DF2134007
:102AE00002F044FA01214DF2144002F03FFA822133
:102AF0004DF2154002F03AFA01214DF2164002F073
:102B000035FACA214DF2174002F030FA02214DF297
:102B1000184002F02BFA00214DF2194002F026FA7B
:102B200002214DF21A4002F021FA00E001E30121F6
:102B30004DF21B4002F01AFA02214DF21C4002F045
:102B400015FA34214DF21D4002F010FA02214DF227
:102B50001E4002F00BFA67214DF21F4002F006FA08
:102B600002214DF2204002F001FA84214DF2214071
:102B700002F0FCF902214DF2224002F0F7F9A42103
:102B80004DF2234002F0F2F902214DF2244002F00E
:102B9000EDF9B7214DF2254002F0E8F902214DF29E
:102BA000264002F0E3F9CF214DF2274002F0DEF992
:102BB00002214DF2284002F0D9F9DE214DF22940E0
:102BC00002F0D4F902214DF22A4002F0CFF9F221AD
:102BD0004DF22B4002F0CAF902214DF22C4002F0D6
:102BE000C5F9FE214DF22D4002F0C0F903214DF24E
:102BF0002E4002F0BBF910214DF22F4002F0B6F941
:102C000003214DF2304002F0B1F933214DF2314051
:102C100002F0ACF903214DF2324002F0A7F96D2128
:102C20004DF2334002F0A2F900214FF4554002F07A
:102C30009DF933214DF2015002F098F900214DF237
:102C4000025002F093F934214DF2035002F08EF954
:102C500000214DF2045002F089F93A214DF205505D
:102C600002F084F900214DF2065002F07FF94A216A
:102C70004DF2075002F07AF900214DF2085002F0AF
:102C800075F95C214DF2095002F070F900214DF206
:102C90000A5002F06BF981214DF20B5002F066F9F7
:102CA00000214DF20C5002F061F9A6214DF20D50B9
:102CB00002F05CF900214DF20E5002F057F9E521C7
:102CC0004DF20F5002F052F901214DF2105002F076
:102CD0004DF913214DF2115002F048F901214DF246
:102CE000125002F043F954214DF2135002F03EF914
:102CF00001214DF2145002F039F982214DF21550A4
:102D000002F034F901214DF2165002F02FF9CA21D8
:102D10004DF2175002F02AF902214DF2185002F03C
:102D200025F900214DF2195002F020F902214DF24F
:102D30001A5002F01BF901214DF21B5002F016F956
:102D400002214DF21C5002F011F934214DF21D50B8
:102D500002F00CF902214DF21E5002F007F9672132
:102D60004DF21F5002F002F902214DF2205002F004
:102D7000FDF884214DF2215002F0F8F802214DF2C5
:102D8000225002F0F3F8A4214DF2235002F0EEF8A5
:102D900002214DF2245002F0E9F8B7214DF22550FE
:102DA00002F0E4F802214DF2265002F0DFF8CF21C4
:102DB0004DF2275002F0DAF802214DF2285002F0CD
:102DC000D5F8DE214DF2295002F0D0F802214DF263
:102DD0002A5002F0CBF8F2214DF22B5002F0C6F847
:102DE00002214DF22C5002F0C1F8FE214DF22D507F
:102DF00002F0BCF803214DF22E5002F0B7F810217A
:102E00004DF22F5002F0B2F803214DF2305002F093
:102E1000ADF833214DF2315002F0A8F803214DF204
:102E2000325002F0A3F86D214DF2335002F09EF8BB
:102E300000214FF4564002F099F833214DF2016021
:102E400002F094F800214DF2026002F08FF8342174
:102E50004DF2036002F08AF800214DF2046002F0A6
:102E600085F83A214DF2056002F080F800214DF21C
:102E7000066002F07BF84A214DF2076002F076F816
:102E800000214DF2086002F071F85C214DF20960FA
:102E900002F06CF800214DF20A6002F067F881211F
:102EA0004DF20B6002F062F800214DF20C6002F06E
:102EB0005DF8A6214DF20D6002F058F800214DF2A8
:102EC0000E6002F053F8E5214DF20F6002F04EF86B
:102ED00001214DF2106002F049F813214DF211600A
:102EE00002F044F801214DF2126002F03FF8542143
:102EF0004DF2136002F03AF801214DF2146002F035
:102F000035F882214DF2156002F030F801214DF2C2
:102F1000166002F02BF8CA214DF2176002F026F875
:102F200002214DF2186002F021F800214DF21960E3
:102F300002F01CF802214DF21A6002F017F801218C
:102F40004DF21B6002F012F802214DF21C6002F0FB
:102F50000DF834214DF21D6002F008F802214DF207
:102F60001E6002F003F867214DF21F6001F0FEFFC2
:102F700002214DF2206001F0F9FF84214DF2216021
:102F800001F0F4FF02214DF2226001F0EFFFA421D5
:102F90004DF2236001F0EAFF02214DF2246001F0BE
:102FA000E5FFB7214DF2256001F0E0FF02214DF26F
:102FB000266001F0DBFFCF214DF2276001F0D6FF44
:102FC00002214DF2286001F0D1FFDE214DF229608F
:102FD00001F0CCFF02214DF22A6001F0C7FFF2217F
:102FE0004DF22B6001F0C2FF02214DF22C6001F086
:102FF000BDFFFE214DF22D6001F0B8FF03214DF21F
:103000002E6001F0B3FF10214DF22F6001F0AEFFF2
:1030100003214DF2306001F0A9FF33214DF2316000
:1030200001F0A4FF03214DF2326001F09FFF6D21FA
:103030004DF2336001F09AFF5521204601F096FFD2
:10304000AA21284601F092FF5221304601F08EFF5E
:103050000821384601F08AFF0021404601F086FF32
:10306000CC21504601F082FF0021584601F07EFF3E
:103070000521484601F07AFF70214FF4374001F0F6
:1030800075FF70214BF2017001F070FF01214FF4C8
:10309000384001F06BFF03214BF6010001F066FFA1
:1030A00003214BF6020001F061FF03214BF6030000
:1030B00001F05CFF02214FF43C4001F057FF00217A
:1030C0004BF6014001F052FF00214BF6024001F0A7
:1030D0004DFFD0214FF4494001F048FF02214CF64A
:1030E000011001F043FF50214CF6021001F03EFFA9
:1030F00050214CF6031001F039FF50214CF604101A
:1031000001F034FF00214FF4545001F02FFF5521FE
:103110004FF4685001F02AFF4FF4885001F00EFF81
:10312000782004F02FFD4FF4245001F007FF01F048
:1031300053BAA0F513414FF480774FF4E06940F2A1
:10314000022A40F23F144FF42746253934D0A0F527
:1031500013414FF4017B40F2077528397DD0A0F56B
:1031600013414FF48876203978D0A0F513413139D6
:1031700075D0A0F5A841083972D0A0F5A8514FF438
:10318000407605396DD0A0F5354105396AD0A0F5F6
:103190004541053967D0A0F5094189397DD0A0F5B1
:1031A0008A4131397AD0A0F58A41353977D0A0F5F6
:1031B000C851633974D0BAE747F6F001E52001F051
:1031C000D5FE3946012001F0D1FE4946022001F02A
:1031D000CDFE41F23001032001F0C8FE00210420A1
:1031E00001F0C4FE5146082001F0C0FE0021092074
:1031F00001F0BCFE00210A2001F0B8FE00210C20E5
:1032000001F0B4FE00210D2001F0B0FE00210F20DE
:1032100001F0ACFE0021102001F0A8FE07211120D2
:1032200001F0A4FE0021122001F0A0FE00211320D5
:1032300001F09CFE0021072001F098FE41F2906110
:10324000102001F093FE40F22721112001F08EFEA4
:103250009D21122001F08AFE06E085E03FE1E2E1D7
:10326000B5E250E3FEE3FEE34FF4C851132001F052
:103270007DFE2521292001F079FE0D212B2001F072
:1032800075FE0721302001F071FE40F2033131203C
:1032900001F06CFE0321322003E0E5E3E5E3E5E322
:1032A000E5E301F063FE40F20621352001F05EFE09
:1032B0000821362001F05AFE40F20641372001F085
:1032C00055FE4FF44171382001F050FE072139209E
:1032D00001F04CFE40F202613C2001F047FE082163
:1032E0003D2001F043FE0021502001F03FFEEF2180
:1032F000512001F03BFE0021522001F037FE214613
:10330000532001F033FE3146602001F02FFE0121F1
:10331000612001F02BFE00216A2001F027FE002130
:10332000802001F023FE0021812001F01FFE0021FA
:10333000822001F01BFE0021832001F017FE0021F6
:10334000842001F013FE0021852001F00FFE1021E2
:10335000902001F00BFE4FF4C061922001F006FEB8
:1033600040F233110720FDE341F28F01EC2001F020
:10337000FDFD41F23421EF2001F0F8FD3946012036
:1033800001F0F4FD4946022001F0F0FD41F2300168
:10339000032001F0EBFD0021042001F0E7FD514680
:1033A000082001F0E3FD0021092001F0DFFD0021EC
:1033B0000A2001F0DBFD01210C2001F0D7FD0021E6
:1033C0000D2001F0D3FD00210F2001F0CFFD0021E1
:1033D000102001F0CBFD0721112001F0C7FD0021D5
:1033E000122001F0C3FD0021132001F0BFFD0121D7
:1033F000072001F0BBFD322004F0AAFB41F290410E
:10340000102001F0B3FD40F22721112001F0AEFDA4
:10341000322004F09DFB8A21122001F0A7FD32200A
:1034200004F096FB4FF4D051132001F09FFD0621CC
:10343000292001F09BFD0D212B2001F097FD32206A
:1034400004F086FB0021202001F090FD00212120C6
:1034500001F08CFD322004F07BFB0021302001F0D4
:1034600085FD40F20461312001F080FD40F205311C
:10347000322001F07BFD0021352001F077FD40F680
:103480000941362001F072FD5946372001F06EFDEA
:1034900040F20131382001F069FD2946392001F060
:1034A00065FD00213C2001F061FD40F60A213D2030
:1034B00001F05CFD322004F04BFB0021502001F0B4
:1034C00055FDEF21512001F051FD0021522001F066
:1034D0004DFD2146532001F049FD31464CE10021CC
:1034E000084601F043FD3946012001F03FFD494601
:1034F000022001F03BFD41F23001032001F036FDD6
:103500000021042001F032FD5146082001F02EFD7B
:103510000021092001F02AFD00210A2001F026FDEA
:1035200001210C2001F022FD00210D2001F01EFDE3
:1035300000210F2001F01AFD322004F009FB40F2B7
:103540000111072001F012FD322004F001FB4FF4BD
:103550008651102001F00AFD0721112001F006FD1F
:103560003146122001F002FD4FF43061132001F0CA
:10357000FDFC0021292001F0F9FC44F210012B2070
:1035800001F0F4FC0021502001F0F0FCEF2151206B
:1035900001F0ECFC0021522001F0E8FC2146532010
:1035A00001F0E4FC4FF41C51602001F0DFFC01212C
:1035B000612001F0DBFC00216A2001F0D7FC002132
:1035C000802001F0D3FC0021812001F0CFFC0021FC
:1035D000822001F0CBFC0021832001F0C7FC0021F8
:1035E000842001F0C3FC0021852001F0BFFC1021E4
:1035F000902001F0BBFC0021922001F0B7FC0121DA
:10360000932001F0B3FC3146952001F0AFFC00217E
:10361000972001F0ABFC0021982001F0A7FC40F2BC
:10362000731107207FE341F21401E72001F09EFCB3
:103630003946012001F09AFC4FF40071022001F09C
:1036400095FC41F23801032001F090FC514608201E
:1036500001F08CFC0021092001F088FC00210A20E7
:1036600001F084FC00210C2001F080FC00210D20E1
:1036700001F07CFC00210F2001F078FC00211020DB
:1036800001F074FC0721112001F070FC00211220D0
:1036900001F06CFC0021132001F068FCC82004F04C
:1036A00057FA41F29061102001F060FC40F22721AE
:1036B000112001F05BFC322004F04AFA0C211220A8
:1036C00001F054FC322004F043FA4FF4006113205F
:1036D00001F04CFC1121292001F048FC0B212B208A
:1036E00001F044FC322004F033FA0021202001F0E4
:1036F0003DFC2146212001F039FC0021302001F061
:1037000035FC4FF483763146312001F02FFC002147
:10371000322001F02BFC5946352001F027FC41F204
:103720000A61362001F022FC2946372001F01EFCF8
:103730003146382001F01AFC2946392001F016FCE8
:1037400040F202413C2001F011FC40F60F413D20C7
:1037500001F00CFC0021502001F008FCEF21512069
:1037600001F004FC0021522001F000FC214653200E
:1037700001F0FCFB4FF41C51602001F0F7FB01212C
:10378000612001F0F3FB00216A2001F0EFFB002132
:10379000802001F0EBFB0021812001F0E7FB0021FC
:1037A000822001F0E3FB0021832001F0DFFB0021F8
:1037B000842001F0DBFB0021852001F0D7FB1021E4
:1037C000902001F0D3FB4FF4C0619220FEE3394614
:1037D000012001F0CBFB4946022001F0C7FB41F27A
:1037E0003001032001F0C2FB0021042001F0BEFBE8
:1037F00040F20721082001F0B9FB0021092001F067
:10380000B5FB00210A2001F0B1FB00210C2001F0E2
:10381000ADFB00210D2001F0A9FB00210F2001F0DC
:10382000A5FB142004F094F941F2B061102001F0DE
:103830009DFB0121112001F099FB0121172001F0CE
:1038400095FB4FF49C71122001F090FB4FF4006146
:10385000132001F08BFB0921292001F087FB0921AE
:103860002A2001F083FB0021A42001F07FFB00212E
:10387000502001F07BFBEF21512001F077FB00216C
:10388000522001F073FB2146532001F06FFB4FF4EF
:103890001C51602001F06AFB0121612001F066FBF0
:1038A00000216A2001F062FB0021802001F05EFB14
:1038B0000021812001F05AFB0021822001F056FBFB
:1038C0000021832001F052FB0021842001F04EFBF7
:1038D0000021852001F04AFB1321902001F046FBD6
:1038E0000021922001F042FB0321932001F03EFBD6
:1038F0003146952001F03AFB40F27311072001F0A8
:1039000035FB32200FE10021072001F02FFB322090
:1039100004F01EF94FF48E71122001F027FB0121F3
:10392000A42001F023FB0F21082001F01FFB082138
:103930000A2001F01BFB08210D2001F017FBA8460F
:103940002946302001F012FB0721312001F00EFB47
:1039500040F20361322001F009FB4D464946332015
:1039600001F004FB5146342001F000FB0221352018
:1039700001F0FCFA41F60F71362001F0F7FA4146EA
:10398000372001F0F3FA0021382001F0EFFA00218E
:10399000392001F0EBFA41463A2001F0E7FA002124
:1039A0003B2001F0E3FA07213C2001F0DFFA00217F
:1039B0003D2001F0DBFA322004F0CAF80121072093
:1039C00001F0D4FA0121172001F0D0FA322004F0DE
:1039D000BFF84FF4BD51102001F0C8FA40F2172192
:1039E000112001F0C3FA4FF48F71122001F0BEFADA
:1039F0004FF47061132001F0B9FA00212A2001F080
:103A0000B5FA0A21292001F0B1FA4FF49F71122072
:103A100001F0ACFA0021502001F0A8FAEF2151206A
:103A200001F0A4FA0021522001F0A0FA214653200F
:103A300001F09CFA4FF41C51602001F097FA01212B
:103A4000612001F093FA00216A2001F08FFA002131
:103A5000802001F08BFA0021812001F087FA0021FB
:103A6000822005E062E05FE126E2D9E28DE3FDE33A
:103A700001F07CFA0021832001F078FA00218420F3
:103A800001F074FA0021852001F070FA13219020D2
:103A900001F06CFA3146922001F068FA052193207A
:103AA00001F064FA0021952001F060FA00219720CE
:103AB00001F05CFA0021982001F058FA3946012003
:103AC00001F054FA2946022001F050FA41F238017F
:103AD000032001F04BFA0021042001F047FA0021F5
:103AE0000C2001F043FA00210F2001F03FFA0021E1
:103AF000202001F03BFA0021212001F037FA21219A
:103B0000072001F033FA142004F022F86121072085
:103B100001F02CFA142004F01BF840F27311072076
:103B200001F024FA142004F013F82DE300210846D4
:103B300001F01CFA0021084601F018FA002108469D
:103B400001F014FA0021084601F010FA0121A42026
:103B500001F00CFA142003F0FBFF4FF41C5529462A
:103B6000602000E0DBE001F001FA564651460820F3
:103B700001F0FCF94FF40571302001F0F7F943F240
:103B80001571312001F0F2F940F20461322001F0A8
:103B9000EDF940F61661332001F0E8F942F2112107
:103BA000342001F0E3F94FF4A851352001F0DEF99B
:103BB00048F20751362001F0D9F941F20741372088
:103BC00001F0D4F941F20341382001F0CFF920216E
:103BD000392001F0CBF91A21902001F0C7F900211A
:103BE000102001F0C3F90721112001F0BFF90021D5
:103BF000122001F0BBF90021132001F0B7F91420C5
:103C000003F0A6FF4FF4E661102001F0AFF940F297
:103C10003711112001F0AAF9142003F099FF4FF495
:103C2000DC71122001F0A2F9142003F091FF4FF48F
:103C30007061132001F09AF980212A2001F096F991
:103C40004821292001F092F9142003F081FF394620
:103C5000012001F08BF94946022001F087F941F279
:103C60003801032001F082F93146082001F07EF985
:103C700000210A2001F07AF900210C2001F076F9E8
:103C800000210D2001F072F930210E2001F06EF9B3
:103C90000021502001F06AF9EF21512001F066F96E
:103CA0000021522001F062F92146532001F05EF913
:103CB0002946602001F05AF90121612001F056F9EE
:103CC00000216A2001F052F91121902001F04EF9F3
:103CD0004FF4C061922001F049F940F20241932073
:103CE00001F044F90221942001F040F9142003F07E
:103CF0002FFF0121072001F039F9142003F028FFDC
:103D00006121072001F032F940F27311072001F020
:103D10002DF90021202001F029F90021212001F0B6
:103D200025F9222100202DE20021084601F01EF98C
:103D30000021084601F01AF9142003F009FF0021C0
:103D4000084601F013F90021084601F00FF900219F
:103D5000084601F00BF90021084601F007F901219E
:103D6000A42001F003F9142003F0F2FE4FF41C51DB
:103D7000602001F0FBF840F60601082001F0F6F89B
:103D800040F203752946302001F0F0F8012131207E
:103D900001F0ECF80421322001F0E8F84FF48171D1
:103DA000332001F0E3F83146342001F0DFF840F22F
:103DB0000311352001F0DAF81F21362001F0D6F882
:103DC0002946372001F0D2F80121382001F0CEF841
:103DD0000421392001F0CAF81521902001F0C6F81D
:103DE0004FF48261102001F0C1F840F24721112008
:103DF00001F0BCF84FF4DE71122001F0B7F84FF477
:103E00006061132001F0B2F8782003F0A1FE39467A
:103E1000012001F0ABF84FF40071022001F0A6F888
:103E200041F23001032001F0A1F808210A2001F03D
:103E30009DF800210C2001F099F820210E2001F0BE
:103E400095F800210F2001F091F80021202001F0C9
:103E50008DF80021212001F089F83D212A2001F070
:103E600085F8142003F074FE2D21292001F07EF83E
:103E70000021502001F07AF84DF2EF01512001F0BD
:103E800075F80021522001F071F82146532001F00D
:103E90006DF80021612001F069F800216A2001F02D
:103EA00065F83146922001F061F80521932001F078
:103EB0005DF83946FFF7B5BB0121002001F056F847
:103EC0004AF6A401032001F051F800210C2001F072
:103ED0004DF840F60C010D2001F048F84FF42C513C
:103EE0000E2001F043F8B0211E2001F03FF842F609
:103EF0003F31012001F03AF84FF4C061022001F097
:103F000035F80021102001F031F846F27801112037
:103F100001F02CF80021052001F028F800210620EE
:103F200001F024F84EF61C71162001F01FF8032151
:103F3000172001F01BF840F23321072001F016F89A
:103F400000210B2001F012F800210F2001F00EF8E3
:103F50000021412001F00AF80021422001F006F87A
:103F60000021482001F002F82146492000F0FEFF20
:103F700000214A2000F0FAFF00214B2000F0F6FF5C
:103F80004FF46F41442000F0F1FF0021452000F084
:103F9000EDFF2146462000F0E9FF2946302000F0E1
:103FA000E5FF5C465946312000F0E0FF2146322013
:103FB00000F0DCFF40F202552946332000F0D6FF26
:103FC000691D342000F0D2FF214600E082E1352057
:103FD00000F0CCFF2146362000F0C8FF29463720EC
:103FE00000F0C4FF40F2023421463A2000F0BEFF48
:103FF00021463B2000F0BAFF0021232000F0B6FF4D
:104000000021242000F0B2FF4FF40041252000F0F1
:10401000ADFF00214F2000F0A9FF00214E20B1E0AC
:104020000121002000F0A2FF0A2003F091FD41F2DF
:104030002861102000F09AFF0E21122000F096FF58
:1040400040F63921132000F091FF0A2003F080FD93
:104050004021112000F08AFF5021152000F086FF3A
:104060000A2003F075FD1E21122000F07FFF0A20B8
:1040700003F06EFD4FF4B151102000F077FF42F6CF
:104080003921132000F072FF0A2003F061FD394648
:10409000012000F06BFF3146022000F067FF41F283
:1040A0003801032000F062FF5146082000F05EFF57
:1040B00008210A2000F05AFF0021302000F056FFAE
:1040C00040F20241312000F051FF4FF48371322061
:1040D00000F04CFF40F20351332000F047FF4FF453
:1040E0008271342000F042FF40F20131352000F0AF
:1040F0003DFF2946362000F039FF40F205313720D8
:1041000000F034FF4FF40271382000F02FFF40F62A
:104110000B71392000F02AFF0221412000F026FF18
:104120004FF41C51602000F021FF0121612000F0BC
:104130001DFF4FF40471902000F018FF4FF48571BB
:10414000922000F013FF0421932000F00FFF394666
:10415000A02000F00BFF0121072000F007FF212124
:10416000072000F003FF2321072000F0FFFE33218A
:10417000072000F0FBFE40F23311072000F0F6FEAE
:104180000021A02000F0F2FE26E23021152000F0F0
:10419000EDFE10219A2000F0E9FE2021112000F010
:1041A000E5FE43F22841102000F0E0FE022112203B
:1041B00000F0DCFE41F23801132000F0D7FE282089
:1041C00003F0C6FC1221084600F0D0FE282003F0C0
:1041D000BFFC43F22041102000F0C8FE43F238013A
:1041E000132000F0C3FE462003F0B2FC0021302073
:1041F00000F0BCFE40F20241312000F0B7FE40F278
:104200000731322000F0B2FE4FF44171332000F04C
:10421000ADFE0421342000F0A9FE40F2014135201A
:1042200000F0A4FE2946362000F0A0FE40F2053141
:10423000372000F09BFE4FF4C2642146382000F086
:1042400095FE2146392000F091FE3946012000F00C
:104250008DFE3146022000F089FE41F2300103203C
:1042600000F084FE40F60801082000E037E000F08E
:104270007DFE08210A2000F079FE4FF41C516020D9
:1042800000F074FE0121612000F070FE4FF49F7178
:10429000902000F06BFE3946922000F067FE394610
:1042A000932000F063FE4FF44051A02000F05EFE2A
:1042B0001021A32000F05AFE0121072000F056FE35
:1042C0002121072000F052FE2321072000F04EFE9E
:1042D0003321072000F04AFE40F23311EAE5E220E4
:1042E00000F02CFE4446C8F810704FF40075C8F872
:1042F0001450DFF800831D21C8F800108026666185
:1043000026612561276165610220C8F800006661A9
:1043100026612561276165610421C8F80010666186
:1043200026612561642003F02DFCE02000F006FEEC
:10433000276165614FF0010AC8F800A06661266137
:1043400025610A2003F004FCE02000F0F7FD27615E
:1043500065614FF0030BC8F800B066612661256106
:104360000C2003F0F5FB012000F0E8FD0A2003F02B
:10437000EFFBE62000F0E2FD276165612F21C8F820
:10438000001066612661256127616561FF20C8F81C
:10439000000066612661256127616561C8F800003B
:1043A000666126612561B02000F0C8FD2761656166
:1043B0002021C8F8001066612661256127616561CA
:1043C0004FF00009C8F800906661266125612761F9
:1043D0006561C8F800B06661266125612761656185
:1043E00040F21F31C8F8001066612661256127611F
:1043F0006561C8F800A06661266125612761656175
:1044000040F2DF11C8F8001066612661256127615E
:104410006561C8F80090666126612561B42000F0EE
:104420008DFD276165610420C8F800006661266182
:1044300025612761656140F21F41C8F8001066617F
:104440002661256127616561C8F800906661266173
:104450002561276165612E21C8F80010666126611B
:104460002561276165614146C8F800906661266153
:10447000256127616561C8F8009066612661256144
:1044800027616561C8F80090666126612561276132
:104490006561C1F80090666126612561B62000F073
:1044A0004DFD276165610220C8F800006661266144
:1044B0002561276165614FF40371C8F800106661DA
:1044C0002661256127616561C8F8009066612661F3
:1044D0002561276165611721C8F8001066612661B2
:1044E0002561276165611521C8F8001066612661A4
:1044F000256127616561C8F80090666126612561C4
:1045000027616561C8F80090666126612561F02029
:1045100000F014FD27616561C8F800B0666126618E
:104520002561292000F00AFDD02000F007FD276159
:104530006561C8F80090666126612561BE2000F0C3
:10454000FDFC276165610521C8F8001066612661E0
:10455000256127616561FE21C8F80010666126614A
:104560002561276165614146C8F800A06661266142
:10457000256127616561C8F8009066612661256143
:1045800027616561C8F80090666126612561276131
:104590006561C1F80090666126612561B82000F070
:1045A000CDFC27616561C8F800B0666126612561B0
:1045B00027616561C8F800A0666126612561BA209F
:1045C00000F0BCFC27616561C8F800A06661266147
:1045D0002561642000F05AF80020FCF751FA0649E2
:1045E0000120C1F8A8014FF6FF70FCF707FABDE8FB
:1045F000F88F00000C0C014000002242034601200D
:1046000000E05843491EC9B2FBD270472DE9F0477C
:10461000DFF85C904FF08830C9F8000009F104051C
:104620002860134E00200C363060124CA815206113
:10463000470067614FF04008C4F814800E48808836
:10464000A0F50941893902D1022003F09BFA0848FC
:1046500008300068C4F8108080B227614FF0333111
:10466000C9F8001029604FF6FF713160BDE8F0878E
:10467000000C0140001001400002002010B500F0C5
:104680005DFCBDE81040FFF7C1BF00002DE9F04719
:104690008146BE2000F052FC204C4FF48077276109
:1046A00065156561DFF878800521C8F8001080265F
:1046B00066612661256127616561484604F0D1FA8B
:1046C0004FF06632174B04F0DFFA04F09DFAC8F899
:1046D0000000666126612561276165610121C8F8D6
:1046E000001066612661256127616561FF21C8F8B8
:1046F0000010666126612561276165610020C8F8A8
:10470000000066612661256127616561C8F80000C7
:10471000666126612561BDE8F08700000010014058
:104720000C0C0140666604402DE9F04FB84C0026A1
:104730002146A279898846F6040341F66317012AC7
:1047400001D02AB11DE099421BD0B94202D118E034
:10475000B94216D1082814D2DFE800F00406080A8E
:104760000C0E101206200CE007200AE0042008E0DE
:10477000052006E0012004E0002002E0032000E024
:104780000220A1F5134C45F2103245F21055BCF150
:10479000410C07D0994205D0914203D0A94201D0E3
:1047A000B9427DD1082812D2DFE800F011040608D2
:1047B0000A0C0E1080260AE0402608E0C02606E01B
:1047C000202604E0602602E0A02600E0E026A942C0
:1047D00002D14FF4585000E03620914205D0A94252
:1047E00003D0B94201D046F00806994201D146F003
:1047F0000206314600F0BAFBA188B9420AD0B006E1
:104800002088628802D5904202D303E0904201D909
:10481000228060807F4EDFF800B24FF0000A4FF434
:1048200080774FF40078A9427BD1608900F086FB45
:104830003761C6F81480D946CBF800A08025756191
:104840003561C6F810806089401C80B200F076FBAC
:104850003761C6F81480C9F800A075613561C6F8E3
:1048600010806089801C80B200F068FB3761C6F858
:1048700014802088401E0112C9F80010756135614E
:10488000C6F810806089C01C80B200F057FB376109
:10489000C6F814802078401EC1B2C9F8001000E0AC
:1048A00099E075613561C6F81080A08900F046FB7B
:1048B0003761C6F81480C9F800A075613561C6F883
:1048C0001080A089401C80B200F038FB3761C6F828
:1048D0001480C9F800A075613561C6F81080A08900
:1048E000801C80B200F02AFB3761C6F81480608813
:1048F000401E0112C9F8001075613561C6F81080BC
:10490000A089C01C80B200F019FB3761C6F8148082
:10491000A078401EC1B2C9F800107561356156E03B
:10492000FFE7A146608900F009FB3761C6F81480F3
:104930005D46CBF800A0802474613461C6F8108015
:104940003761C6F81480CBF800A074613461C6F8F2
:1049500010803761C6F81480B9F80000401E0112BB
:10496000296074613461C6F810803761C6F814801C
:10497000C0B2286074613461C6F81080B9F80C00C8
:1049800000F0DCFA3761C6F81480C5F800A0746145
:104990003461C6F810803761C6F81480C5F800A0ED
:1049A00074613461C6F810803761C6F81480B9F8B4
:1049B0000200401E0112296074613461C6F8108043
:1049C0003761C6F81480C0B2286074613461C6F8DB
:1049D0001080BDE8F08F082812D2DFE800F004064E
:1049E00008110A0C0E1030260AE0102608E02026D6
:1049F00006E0382604E0282602E0182600E0082613
:104A000046F48051BDE8F04F032000F0AFBA00003B
:104A100000020020001001400C0C01402DE9F34F72
:104A200004464FEA102900F0FF0A0198DFF83483AA
:104A3000060AC5B2B8F804104046DFF82CB3408926
:104A4000A1F51342413A17D0A1F5A642103A13D06E
:104A50004346A1F5D0479A791B881B1B5B1E043F78
:104A600045D0A1F5C857633F7ED0A1F5AA47103FB6
:104A70007BD0012A7AD06AE100F060FA4FF48070AE
:104A80005C46CBF810004700CBF814704946DFF8BD
:104A9000DC92C9F800104FF08008CBF81480CBF8F6
:104AA0001080CBF81070CBF81000CBF81470C9F858
:104AB00000A0CBF81480C4F810802761A948808931
:104AC00000F03CFA781020616761C9F80060C4F812
:104AD0001480C4F81080276120616761C9F8005014
:104AE000C4F81480C4F810802761BDE8FC8F012A47
:104AF00000D19CB200F022FA4FF480705F46CBF8F0
:104B000010004FF40078CBF81480DFF860A2210A7F
:104B1000CAF800104FF08009CBF81490CBF8109031
:104B2000CBF81080CBF81000CBF81480E1B2CAF8B3
:104B30000010CBF81490C7F81090C7F8108089487F
:104B4000808900F0FBF94FF480703861C7F8148059
:104B5000CAF80060C7F81490C7F81090C7F8108022
:104B60003861C7F8148002E00AE0A9E0EEE0CAF874
:104B70000050C7F81490C7F81090C7F81080B4E739
:104B8000002A6BD0DFF8DC8100F0D8F94FF4807494
:104B90005846CBF810406200CBF81420734FC7F88A
:104BA00000908021CBF81410CBF81010CBF8102017
:104BB000CBF81040CBF81420C7F800A0CBF81410A5
:104BC000CBF81010CBF8102004614261B8F8003027
:104BD0005B1E4FEA232CC7F800C0416101610261EE
:104BE00004614261DBB23B604161016102615D4C85
:104BF000A08900F0A3F94FF480775846CBF81070E5
:104C00007900CBF81410DFF864C1CCF80060802282
:104C1000CBF81420CBF81020CBF81010CBF8107084
:104C2000CBF81410CCF80050CBF81420CBF810209F
:104C3000CBF81010CBF81070416163885B1E1C121A
:104C4000CCF8004042610261016107614161DBB261
:104C5000CCF8003042610261016146E71FFA83F837
:104C600000F06CF94FF480735846CBF810305900BF
:104C7000CBF814103D4C002727608022CBF814207D
:104C8000CBF81020CBF81010CBF81030CBF8141064
:104C90002760CBF81420CBF81020CBF8101003615C
:104CA00041614FEA18272760426102610161036197
:104CB000416108F0FF03236042610261016196E7F0
:104CC00000F03CF94FF480705C46CBF810004FF4D4
:104CD0000078CBF814804846DFF89090C9F80000BF
:104CE0008027CBF81470CBF81070CBF810801D48DB
:104CF0004089401C80B200F021F978002061C4F89E
:104D00001480C9F800A067612761C4F810801548B5
:104D1000808900F013F978002061C4F81480C9F884
:104D2000006067612761C4F810800E488089401CCC
:104D300080B200F003F978002061C4F81480C9F84B
:104D4000005067612761C4F81080CEE69CB221460E
:104D500000F00CF9B8F80C000199BDE8FC4F00F028
:104D600005B9000000020020001001400C0C0140B9
:104D70002DE9F84F82461F460C468B46580700D057
:104D8000012000EBD70079084843203AC0B202F076
:104D9000FF090026009041E00C2F10D0102F12D0F8
:104DA000182F3ED1204909EBC90001EB80004FF0DC
:104DB0000008855D28060AD51C4802880BE009EB2F
:104DC00049001B49F1E71B4901EB0910EFE70A987D
:104DD00028B91648428821465046FBF7EBFE680684
:104DE000050E1548641CA4B24088A04219D9A4EB52
:104DF0000B00B84209D10AF101001FFA80FA0E48EF
:104E00005C46018851450CD906E008F1010000F02C
:104E1000FF08B8F1080FCDD3761CF6B20098864291
:104E2000BAD3BDE8F88F0000F29800081600002001
:104E30008E8E000802930008000200202DE9F84F32
:104E4000044600F0FF0810190D46DDE90A761FFA46
:104E500080FA58191FFA80F94FF0000B11E0544501
:104E600002D3E819444685B24D450FD23B46294648
:104E70002046CDF800B0FFF77BFF04EB570084B26B
:104E8000761C3278A2F120005E28E8D9BDE8F88FC0
:104E90002DE9FF4F81B08046DDF83CA00E984FF021
:104EA00000091F4693464C460AF0010546082BE0D0
:104EB000381B401EC1B20A20FFF7A0FBBBFBF0F07D
:104EC0000A21B0FBF1F201FB1200B9F1000F05D18C
:104ED000791E8C4202DA48B14FF001093030C2B27B
:104EE00006FB048080B200950E9B08E05FEA0A6032
:104EF00006FB04800E9B80B200950AD530220299F1
:104F0000FFF736FF641CE4B2BC42D1D305B0BDE864
:104F1000F08F2022F3E7000006494FF480720A6107
:104F20004A154A61044B18608020486108610A6193
:104F300070470000001001400C0C014006494FF47E
:104F400080724A614A154A61044B186080204861AA
:104F500008610A6170470000001001400C0C01401C
:104F600001480089FFF7EABF0002002010B50C4697
:104F7000FFF7E4FF06484FF480710161421542617A
:104F800004490C60802141610161026110BD000093
:104F9000001001400C0C014038B50121242002F022
:104FA00067F84FF48074ADF8004010208DF80300CE
:104FB00003200C4D8DF8020069462846FBF79AFC49
:104FC00021462846FBF717FD0420074CADF80000EA
:104FD00069462046FBF78EFC04212046FBF70BFDBB
:104FE00038BD00000008014000140140F8B501215F
:104FF000042002F03DF8104D10242C600E4FADF847
:1050000000408DF803400326103F8DF8026069468A
:105010003846FBF76FFC0121042002F029F8042038
:105020002860ADF800008DF803408DF802606946F5
:105030003846FBF75FFCF8BD1008014010B5FFF7DC
:10504000D5FFBDE8104000F033B8000030B5164C75
:10505000A3681D6825F001051D60D8605A602069AD
:10506000056825F001050560C1604260E2680F49EE
:10507000916061688A890A899207FCD5016841F0CC
:1050800001010160196841F00101196061690A6854
:105090009202FCD5196821F001011960016821F024
:1050A0000101016030BD0000D401002000007D0F2F
:1050B00030B587B00121042001F0DAFFE020ADF81F
:1050C000140018248DF8174003208DF8160005A948
:1050D0001848FBF70FFC01210D03284601F0C8FF1B
:1050E0000121284601F0D0FF0021284601F0CCFF25
:1050F0000020ADF80000ADF80800ADF80C404FF40A
:105100008271ADF80400ADF80210ADF80600ADF8FC
:105110000E00E9100720084CADF80A10ADF8100099
:105120006946204602F019F90121204602F00BF9E8
:1051300007B030BD00080140003001402DE9F843C0
:105140002E4C4FF000050095606016000F4625704C
:1051500000D03580018801F038010091018821F0EC
:1051600038010180018841F010010180018821F09F
:1051700001010180DFF888801146474501D30120F5
:1051800000E0022001F040FB002833D06068018875
:1051900021F0380101800188009A114301804745C0
:1051A00003D3018841F001010180FA2000F076F874
:1051B000FA2000F073F8FA2000F070F8FA2000F0FE
:1051C0006DF80E4A002133461832084600F09CF96B
:1051D00000280FD009480BA1183002F0F9FC002874
:1051E0000ADD0120094960708F4201D8A07000E0FB
:1051F000A5700120BDE8F8836570F9E7D4010020AF
:10520000002D3101312E312E362D450044950800F8
:1052100001460548028822F03802028002880A43CB
:105220000280012102F08FB8003001400449496832
:105230000A899207FCD5087300BF00BF70470000C1
:10524000D40100200A4949680A891206FCD40A8957
:1052500012F4C05FF8D100E08A890A8912F0410F88
:10526000FAD108730889C007FCD08889C0B270479A
:10527000D4010020102108B1024801E00148001DBE
:105280000160704710080140042108B1024801E0A4
:105290000148001D016070471008014002F072BC17
:1052A00010B50020FFF7E6FF012000F097F800207E
:1052B000FFF7EAFF052000F091F80120FFF7E4FF77
:1052C0004FF4967000F08AF80120FFF7D3FFBDE895
:1052D000104040F2ED1000F081B8000030B593B0FE
:1052E0000024FF208DF840408DF8080003940494BA
:1052F00005940694ADF81C40FFF7D2FF0820FFF795
:1053000087FF2D4D012000F069F807AA29462B4898
:10531000FFF714FF88B112A800F0F2F9C0B12848D5
:10532000019000F011FA01990090884211D20846CC
:105330000099401A05280CD9FEE71020CDE9000499
:105340000223BDF81C2046211E20FFF7A1FDFEE729
:10535000FEE707AA0021022000F099FC002829D0CE
:1053600007A910A800F025F9002823D09DF84000D7
:10537000012801D003281CD107A800901423002283
:1053800010A113A000F08EFA002813D00A2103A860
:1053900001F006FB00280DD007A902A800F03CF997
:1053A000002807D007AA11A908A800F01CFC0028B3
:1053B00000D0012013B030BD80A8120100300140A0
:1053C000A0860100313233343536373839300000A9
:1053D000416E796C696E6B696E21000070B506468E
:1053E000002509E00024FA20FFF758FF641CA4B24E
:1053F000042CF8D36D1CADB2B542F3D370BD2DE9CA
:10540000F04389B08846DDE9109407461D461646EC
:10541000202101A8FBF7B4F80CB100202080204621
:1054200001F001FB002849D0072000F00BFE01200D
:1054300001F0B0F923208DF804001D208DF805003F
:10544000002001A905E00B18401C80B29A700D28BD
:1054500002D23A5C002AF6D1002005E00B18401C6D
:1054600080B2DA730D2803D218F80020002AF5D193
:10547000042E00D900268DF820600DB10D2D00D925
:1054800006258DF8215000228DF8229010460B5CE5
:10549000401C1A4480B2D2B21F28F8D38DF82320C2
:1054A00000234FF47A72202101A8009401F0D0F873
:1054B000002803D09DF8060018B1012009B0BDE80E
:1054C000F0835CB101F056F94FF6FF7101EA00205C
:1054D00020809DF806108031084320800020EDE7F1
:1054E0001CB5049CCDE9003413460A460146282029
:1054F00000F034FD1CBD08B50023009101461A469A
:10550000012000F0CBFD08BD2DE9F0418AB00F4627
:1055100004461D461646202101A8FBF731F84FF03E
:1055200000080DB1A5F80080284601F07CFA00289B
:105530003CD0072000F086FD012001F02BF91F2050
:105540008DF804008DF805808DF8060000231A46BA
:10555000032101A8009501F07BF8002826D08CB12A
:105560009DF80600000220609DF807100844000224
:1055700020609DF808100844000220609DF8091082
:105580000844206017B19DF80A0038706EB1002001
:1055900001A904E00A18127A3254401C80B29DF826
:1055A0000B208242F6D806F8008001200AB0BDE840
:1055B000F08170B58AB005460C004FF0000600D0AF
:1055C0002680084601F02FFA002823D0072000F09B
:1055D00039FD012001F0DEF810208DF804000020D4
:1055E0008DF80560024601A98B5C521C184492B2EA
:1055F000C0B2022AF8D38DF8060000231A46032110
:1056000001A8009401F024F8002803D09DF80600BA
:10561000287001200AB070BD70B58AB00C460546EE
:10562000202101A8FAF7ACFF002604B1268020460D
:1056300001F0F9F9002823D0072000F003FD012034
:1056400001F0A8F812208DF8040000208DF8056004
:10565000024601A98B5C521C184492B2C0B2022AC5
:10566000F8D38DF8060000231A46032101A8009400
:1056700000F0EEFF002803D09DF8060028700120FE
:105680000AB070BDF0B589B00F460646202101A8CA
:10569000FAF776FF002507B13D80384601F0C3F9DF
:1056A00000282BD0072000F0CDFC012001F072F87B
:1056B00011208DF8040000218DF80550084601AC3A
:1056C000225C401C114480B2C9B20228F8D38DF884
:1056D000061000231A4603212046009700F0B8FF69
:1056E00000280BD0002021188A783254897819B10B
:1056F000401C80B20F28F6D3F573012009B0F0BD2D
:1057000070B5054601F036F8FF280FD001F032F8E9
:1057100060B10C4E0024305D00F04AFE0A20FFF715
:10572000BDFD01F027F8315D814201D0002104E088
:10573000641CA4B2062CEED3012105B128700846E2
:1057400070BD000050A600081FB50446002002905E
:1057500003901FE000F0DB0040F001008DF8000036
:105760009DF8000000F024FE0A20FFF797FD01F0ED
:1057700001F88DF804009DF804009DF8001088429F
:10578000039802D1401C039001E08DF800000298BC
:10579000401C0290A042DDD3412000F009FE0A2007
:1057A000FFF77CFD039804B010BD08B500931346C5
:1057B0000A460146272000F09DFD08BD2DE9F04F67
:1057C00089B00D46DDE912698346984614462021CA
:1057D00001A8149FFAF7D4FE4FF0000A0FB1A7F802
:1057E00000A0384601F01FF9002857D0072000F02C
:1057F00029FC012000F0CEFF14208DF804000120C8
:105800008DF805008DF806B00BF115008DF8070036
:1058100000231A46042101A8009700F019FF002870
:105820003CD09DF8070030B10DB185F800A0A4B3BD
:1058300084F800A031E015B19DF80800287014B17B
:105840009DF8090020704FF6FF71B8F1000F0AD0E3
:105850009DF80A0001EA0020A8F800009DF80B203E
:105860001044A8F8000056B1002001AA13181B7AB2
:105870003354401C80B21028F8D386F80FA0B9F139
:10588000000F0AD09DF81D0001EA0020A9F80000D1
:105890009DF81E100844A9F80000012009B0BDE8D9
:1058A000F08F00002DE9FC470E4680460025994602
:1058B00092462F4668A16A480A9C02F089F900289E
:1058C00008DC4B46524631464046009400F0CAF888
:1058D000BDE8FC8718F8050018B16D1CEDB2202D4D
:1058E000F8D31B2D02D31B3DEFB21B2500232A4604
:1058F000414618460094FFF7F3FD0028E8D06FB149
:10590000092F01D9092200E03A46002308F11B01C2
:1059100010200094FFF7E4FD0028D9D0002215469E
:105920001746B05C20B1521CD2B2402AF9D301E034
:105930001B2A02D31B3AD5B21B2200233146012079
:105940000094FFF7CDFD0028C2D0F5B11B2D03D385
:105950001B3DEFB21B2200E02A46002306F11B018B
:1059600020200094FFF7BCFD0028B1D06FB1092FB3
:1059700001D9092200E03A46002306F13601212030
:105980000094FFF7ADFD0028A2D000225346114637
:10599000FF200094FFF7A4FD002899D000264FF6C1
:1059A000FF7509EB890826E00027FA20FFF776FC4F
:1059B000FA20FFF773FCFA20FFF770FCFA20FFF7DC
:1059C0006DFC7F1CBFB2C82FEFD3214601A8FFF7A3
:1059D00023FE01280DD19DF80400042828D004DC02
:1059E000022814D0032804D119E0052830D0FF285C
:1059F00026D0761CB6B2B04501D9AE42D4D34CB352
:105A000000F0B8FE05EA002040F032000EE00CB3D2
:105A100000F0B0FE05EA002040F04B0006E0CCB1FB
:105A200000F0A8FE05EA002040F04A00208011E0C6
:105A300084B100F09FFE05EA002040F04D00F5E73C
:105A400044B100F097FE05EA002040F04C00EDE77D
:105A500001203DE700203BE7312E312E362D370067
:105A6000EC0100202DE9F0438BB00E460746994625
:105A70009046202101A8129CFAF782FD002504B16E
:105A80002580204600F0CFFF002871D0072000F0CD
:105A9000D9FA012000F07EFE22208DF804001D209E
:105AA0008DF80500002001A905E00B18401C80B20C
:105AB0009A700D2802D23A5C002AF6D18DF8135064
:105AC000002005E00B18401C80B21A740D2802D289
:105AD000325C002AF6D18DF8215000228DF8228008
