:020000040800F2
:10000000580900202D020008BF280008A709000891
:10001000BD280008F907000885340008000000002A
:10002000000000000000000000000000E9300008AF
:10003000FB07000800000000272C0008AD31000875
:10004000470200084702000847020008470200086C
:100050004702000847020008FD07000847020008A1
:10006000470200084702000847020008470200084C
:10007000470200084702000847020008470200083C
:10008000470200084702000847020008470200082C
:1000900047020008470200084702000891080008CC
:1000A000470200084702000847020008470200080C
:1000B00047020008013200084132000847020008E8
:1000C00047020008470200084702000847020008EC
:1000D00047020008E932000847020008470200080A
:1000E0004D080008470200084702000847020008C0
:1000F00047020008470200084702000847020008BC
:1001000047020008470200084702000847020008AB
:10011000470200084702000847020008470200089B
:10012000470200084702000847020008470200088B
:1001300000F002F800F06BF80AA090E8000C82448E
:100140008344AAF10107DA4501D100F060F8AFF26B
:10015000090EBAE80F0013F0010F18BFFB1A43F0A5
:1001600001031847405F0000605F00000A444FF041
:10017000000C10F8013B13F0070408BF10F8014B06
:100180001D1108BF10F8015B641E05D010F8016B4B
:10019000641E01F8016BF9D113F0080F1EBF10F8AF
:1001A000014BAD1C0C1B09D16D1E58BF01F801CBD2
:1001B000FAD505E014F8016B01F8016B6D1EF9D555
:1001C0009142D6D37047000000230024002500266A
:1001D000103A28BF78C1FBD8520728BF30C148BFAA
:1001E0000B607047642900F09F80752900F09C80A7
:1001F000782900F0D580632900F09182732900F0FE
:100200009682002070471FB51FBD10B510BD00F0CD
:10021000C1FA1146FFF7F7FF03F054FA00F0DFFAD6
:1002200003B4FFF7F2FF03BC03F0AFF909488047BE
:1002300009480047FEE7FEE7FEE7FEE7FEE7FEE7C8
:10024000FEE7FEE7FEE7FEE704480549054A064BE0
:1002500070470000B1310008310100085803002048
:10026000580900205805002058050020704700005C
:100270000FB4044910B503AA029800F05DFA10BC4F
:100280005DF814FB2000002070B504468569006805
:10029000C10601D5302600E02026C00707D070BD7A
:1002A000D4E9012130469047206A401C20626D1E2F
:1002B000F6D570BD70B5044685690078C00707D1D2
:1002C00070BDD4E9012120209047206A401C2062A3
:1002D0006D1EF6D570BD70B50C460546012A05D0D9
:1002E0002878800600D5EA69002302E0012305E0B2
:1002F0005B1C934202D2E05C0028F9D1A869E618A1
:10030000C01AA861286A184428622846FFF7BCFF73
:1003100004E0D5E9012114F8010B9047B442F8D369
:100320002846FFF7C7FF70BD2DE9F04106460024BF
:1003300010687529314616A510D0AFF3008000284B
:1003400002DA404213A507E031688A0701D512A5F9
:1003500002E0490704D511A5012401E0AFF30080B4
:1003600000210A2206F1240709E0B0FBF2FCB0FBF1
:10037000F2F302FB1C00303078541846491C002868
:10038000F3D123462A463046BDE8F04100F064B977
:10039000000000002D0000002B00000020000000E5
:1003A00070B504460D4621461068AFF300802188E1
:1003B000090502D50F4A7A4402E00E4A7A440E3209
:1003C000002104F1240305E000F00F060009965D0A
:1003D0005E54491C0028F7D120780023000704D57B
:1003E000702D02D009B1022311322046BDE87040C1
:1003F00000F032B9F85A00002DE9F05F8946044652
:100400004FF0000ADFF874B1FB44C0F820A020468A
:10041000E1688847002874D0252806D0D4E9012156
:100420009047206A401C2062F1E700265F46204684
:10043000E16888472028054607DB312D05D2781969
:1004400010F8200C08B10643F1E7B00701D526F0FB
:100450000406C4F81CA00027C4F818A02A2D09D04F
:10046000284603F08BF838B304EB8708303DC8F812
:10047000185019E059F8041B204604EB87029161DB
:10048000E1688847012F054618D1E069002820DA85
:1004900026F020061DE0D8F8180000EB800005EBE0
:1004A00040003038C8F818002046E1688847054603
:1004B00003F064F80028EED1012F0AD02E2D08D1C8
:1004C0002046E16888477F1C0546022F46F020063B
:1004D000C4DBA069002803DA404246F00106A061AF
:1004E000F00701D026F010066C2D0BD0682D09D036
:1004F0004C2D39D06A2D35D0742D35D07A2D33D08E
:1005000016E038E0E1682F4620468847B8420546A5
:1005100009D16C2F26D04FF48060E1680643204655
:100520008847054604E06C2F1AD04FF480700643CC
:100530000DB3A5F14100192802D8203546F4006614
:100540004A462946204626604E46FFF74BFE80B1BC
:1005500001280BD0F61D26F0070000F1080956E728
:100560004020E4E78020D8E70020D6E706F1040920
:100570004DE7284652E7206ABDE8F09FCE5A0000BA
:100580004FF0000200B5134694469646203922BF2C
:10059000A0E80C50A0E80C50B1F12001BFF4F7AF77
:1005A000090728BFA0E80C5048BF0CC05DF804EB59
:1005B000890028BF40F8042B08BF704748BF20F8C7
:1005C000022B11F0804F18BF00F8012B704700007C
:1005D0004FF0013C50F8042B51F8043B9A4221D1D2
:1005E000A2EB0C03934313EACC1317D150F8042B5E
:1005F00051F8043B9A4215D1A2EB0C03934313EA42
:10060000CC130BD150F8042B51F8043B9A4209D17A
:10061000A2EB0C03934313EACC13DBD04FF00000A2
:10062000704700BFD01A01BAB1FA81F101F0180188
:1006300022FA01F0CB40C1F12001DBB2C0B2C01AF6
:100640002CFA01F3D11A914311EAC311E6D1704794
:1006500070477047704770472DE9F0470D4699463F
:100660009246044600F124080168880604D5E06932
:1006700021F01001216000E00120A84201DD471BAC
:1006800000E00027A1697A1902EB0900081AA061AD
:100690002078C00602D42046FFF7F6FD002608E0C9
:1006A000D4E901211AF806009047206A401C761C04
:1006B00020624E45F4DB2078C0060AD52046FFF7BD
:1006C000E3FD06E0D4E9012130209047206A401C78
:1006D0002062381EA7F10107F4DC07E0D4E901210C
:1006E00018F805009047206A401C2062281EA5F1DA
:1006F0000105F3DC2046FFF7DDFD2078000602D57A
:100700000220BDE8F0870120FBE710B5436913B173
:10071000AFF3008001E0FFF7DEFD012010BD12788D
:1007200000F124010A7000224A700122EDE71168ED
:100730004FF0FF32E9E70000074B70B50D467B44F0
:1007400000F011F80446284600F020F810B14FF0F0
:10075000FF3070BD204670BDEF2E000001694A1CBD
:1007600002610878704700B58FB0CDE901310021F2
:10077000059105497944CDE9031011466846FFF714
:100780003BFE0FB000BD0000E5FFFFFF007B00F067
:1007900080007047754600F02BF8AE4605006946AC
:1007A000534620F00700854618B020B5FFF74CFDF2
:1007B000BDE820404FF000064FF000074FF0000862
:1007C0004FF0000B21F00701AC46ACE8C009ACE8E3
:1007D000C009ACE8C009ACE8C0098D46704710B547
:1007E0000446AFF300802046BDE81040FFF718BD77
:1007F00000487047F4020020FEE7704710B50A2059
:1008000002F0E2FE01210E4800F0C2F801280DD1ED
:100810000C49D1F8A00170B10020C1F8A0010A492B
:10082000D1F8880148B10020C1F88801BDE8104026
:10083000012000F049B80120EFE70120F4E70000B3
:1008400000080140000021420080224210B54FF410
:100850000044204600F03EF801280FD10A4B1978D9
:1008600002290BD2094A002021B9C2F880010120D7
:10087000C2F88001C2F8B001491C19702046BDE8D9
:10088000104000F021B800001500002000002142B7
:1008900010B50A2002F098FE2021094800F078F8EF
:1008A00030B90849D1F8A00138B10020C1F8A00141
:1008B000BDE81040202000F007B80120F6E7000056
:1008C000001001400000214201490860704700000B
:1008D00014040140064A014600201268044B0A40F5
:1008E00014331B680B4202D0002A00D0012070474D
:1008F00000040140F0B5CC78002204F00F03E406B8
:1009000001D58C7823430C784FF00F0C14F0FF0FB7
:100910004FF0010E1BD005680E880EFA02F4264037
:10092000A64210D196000CFA06F725EA070703FA4B
:1009300006F5CE783D43282E02D0482E02D002E0A4
:10094000446100E00461521C082AE5D305600A886E
:10095000FF2A1CD94468002202F108060EFA06F5A7
:100960000E882E40AE420ED196000CFA06F7BC431C
:1009700003FA06F7CE783C43282E00D14561CE78A5
:10098000482E00D10561521C082AE5D34460F0BD11
:100990000246002092680A4200D00120704741615F
:1009A000704701617047FEE72DE9F74F0546904813
:1009B00081B0DFF840A2818802982F0A00F0FF0979
:1009C0004FEA1028E8B200908948A1F513424FF48D
:1009D000807B40894FF40076413A18D0844CA1F5D1
:1009E000A642103A13D0A1F5AA42103A36D02246B8
:1009F000A1F5C85793791288521B521E633F63D0EA
:100A0000A1F5D047043F7DD0012B7CD0D1E000F090
:100A1000D1F9794CC4F810B06661CAF8007080252D
:100A2000656125612661C4F810B066610098CAF856
:100A300000006561256126616D48808900F0BAF982
:100A4000C4F810B066615146CAF80080656125613E
:100A50002661C4F810B06661484631E000F0AAF99A
:100A6000654CC4F810B06661CAF8007080256561F5
:100A7000256126615E484089401C80B200F09AF9E9
:100A8000C4F810B066610098CAF80000656125617D
:100A900026615748808900F08DF9C4F810B066616E
:100AA000CAF8008065612561266151488089401C33
:100AB00080B200F07FF9C4F810B066614846514634
:100AC00008606561256171E003B995B200F072F9C3
:100AD000494CC4F810B06661280ACAF800008027A3
:100AE000676127612661C4F810B06661E9B2CAF88F
:100AF0000010676127612661C4F810B06661CAF80A
:100B0000000001E025E053E0676127612661C4F839
:100B100010B06661CAF80010676127612661344829
:100B2000808900F047F9C4F810B066615146CAF8F0
:100B30000080676127612661C4F810B06661CAF859
:100B40000090676127612661C4F810B06661404675
:100B500021E0012B00D195B200F02CF9264CC4F80D
:100B600010B06661290ACAF8001080276761276102
:100B70002661C4F810B06661E9B2CAF80010676176
:100B8000276126611A48808900F014F9C4F810B072
:100B90006661404651460860676127612661C4F876
:100BA00010B06661C1F8009067612761266107E0B7
:100BB00095B2294600F010F9A089029900F00CF9CD
:100BC0000D48C0F814B0466109490989CAF80010F7
:100BD0008021416101610661C0F810B04661039B4C
:100BE000CAF80030416101610661BDE8FF8F000075
:100BF000D80100200C0C01400010014003460120E8
:100C000000E05843491EC9B2FBD270472DE9F84FA6
:100C100082461F460C468B46580700D0012000EB49
:100C2000D70079084843203AC0B202F0FF090026F5
:100C3000009041E00C2F10D0102F12D0182F3ED171
:100C4000204909EBC90001EB80004FF00008855DE9
:100C500028060AD51C4802880BE009EB49001B490D
:100C6000F1E71B4901EB0910EFE70A9828B916488C
:100C7000428821465046FFF797FE6806050E154844
:100C8000641CA4B24088A04219D9A4EB0B00B8425E
:100C900009D10AF101001FFA80FA0E485C4601886A
:100CA00051450CD906E008F1010000F0FF08B8F149
:100CB000080FCDD3761CF6B200988642BAD3BDE8B1
:100CC000F88F00003451000816000020D0460008BC
:100CD000444B0008D80100202DE9F84F044600F0ED
:100CE000FF0810190D46DDE90A761FFA80FA581937
:100CF0001FFA80F94FF0000B11E0544502D3E819B8
:100D0000444685B24D450FD23B4629462046CDF894
:100D100000B0FFF77BFF04EB570084B2761C3278FB
:100D2000A2F120005E28E8D9BDE8F88F2DE9FF4F39
:100D300081B08046DDF83CA00E984FF000091F46B8
:100D400093464C460AF0010546082BE0381B401E2E
:100D5000C1B20A20FFF752FFBBFBF0F00A21B0FB43
:100D6000F1F201FB1200B9F1000F05D1791E8C429E
:100D700002DA48B14FF001093030C2B206FB0480FC
:100D800080B200950E9B08E05FEA0A6006FB0480D3
:100D90000E9B80B200950AD530220299FFF736FFEC
:100DA000641CE4B2BC42D1D305B0BDE8F08F202270
:100DB000F3E7000006494FF480724A614A154A6120
:100DC000044B18608020486108610A617047000088
:100DD000001001400C0C014010B50C46FFF7EAFF73
:100DE00006484FF4807101614215426104490C606C
:100DF000802141610161026110BD000000100140CD
:100E00000C0C014038B50121242001F025FF4FF4DE
:100E10008074ADF8004010208DF8030003200C4DC5
:100E20008DF8020069462846FFF764FD21462846F2
:100E3000FFF7B7FD0420074CADF8000069462046D7
:100E4000FFF758FD04212046FFF7ABFD38BD000039
:100E5000000801400014014038B50121082001F0CC
:100E6000FBFE12494FF480500860ADF800001025D9
:100E70000E488DF8035003248DF80240694610385F
:100E8000FFF738FD0121042001F0E6FE08490420A7
:100E90000860ADF8000006488DF803508DF8024058
:100EA00069461038FFF726FD38BD0000100C0140E0
:100EB0001008014010B5FFF7CFFFBDE8104000F06B
:100EC00033B8000030B5164CA3681D6825F0010545
:100ED0001D60D8605A602069056825F0010505602D
:100EE000C1604260E2680F49916061688A890A893D
:100EF0009207FCD5016841F001010160196841F0D9
:100F00000101196061690A689202FCD5196821F033
:100F100001011960016821F00101016030BD00008C
:100F2000AC01002000007D0F30B587B00121082002
:100F300001F092FE4FF46040ADF8140018248DF8D3
:100F4000174003208DF8160005A91948FFF7D2FCB9
:100F500001218D03284601F067FE0121284601F09A
:100F60006FFE0021284601F06BFE0020ADF8000066
:100F7000ADF80800ADF80C404FF48271ADF80400F4
:100F8000ADF80210ADF80600ADF80E0069110720AB
:100F9000084CADF80A10ADF810006946204601F083
:100FA000C4FF0121204601F0B6FF07B030BD0000AC
:100FB000000C0140003800402DE9F8432E4C4FF062
:100FC00000050095606016000F46257000D0358042
:100FD000018801F038010091018821F03801018079
:100FE000018841F010010180018821F00101018098
:100FF000DFF888801146474501D3012000E0022038
:1010000001F0E2FA002833D06068018821F038014D
:1010100001800188009A11430180474503D301886C
:1010200041F001010180FA2000F078F8FA2000F088
:1010300075F8FA2000F072F8FA2000F06FF80E4A06
:10104000002133461832084600F06AF900280FD014
:1010500009480BA1183002F0F7FA00280ADD012038
:10106000094960708F4201D8A07000E0A57001208E
:10107000BDE8F8836570F9E7AC010020002D31016F
:10108000312E312E362D4500449508000146054885
:10109000028822F03802028002880A43028001217D
:1010A00001F039BF00380040044949680A899207B5
:1010B000FCD5087300BF00BF70470000AC010020E2
:1010C0000A4949680A891206FCD40A8912F4C05FE9
:1010D000F8D100E08A890A8912F0410FFAD1087329
:1010E0000889C007FCD08889C0B27047AC010020D5
:1010F0004FF4805108B1034801E00248001D01602F
:1011000070470000100C0140042108B1024801E0C2
:101110000148001D016070471008014002F06EBADE
:1011200010B50020FFF7E4FF012000F097F8002041
:10113000FFF7EAFF052000F091F80120FFF7E4FF38
:101140004FF4967000F08AF80120FFF7D1FFBDE858
:10115000104040F2ED1000F081B8000030B593B0BF
:101160000024FF208DF840408DF80800039404947B
:1011700005940694ADF81C40FFF7D2FF0020FFF75E
:1011800085FF2D4D012000F069F807AA29462B485C
:10119000FFF712FF88B112A800F0CAF9C0B12848C1
:1011A000019000F0E9F901990090884211D20846B7
:1011B0000099401A05280CD9FEE71020CDE900045B
:1011C0000223BDF81C2046211E20FFF7AFFDFEE7DD
:1011D000FEE707AA0021022000F078FD002829D0B0
:1011E00007A910A800F0F1F8002823D09DF84000CE
:1011F000012801D003281CD107A800901423002245
:1012000010A113A000F076FB002813D00A2103A838
:1012100001F05CFA00280DD007A902A800F008F937
:10122000002807D007AA11A908A800F004FD00288B
:1012300000D0012013B030BD80A81201003800405A
:10124000A08601003132333435363738393000006A
:10125000416E796C696E6B696E21000070B506464F
:10126000002509E00024FA20FFF758FF641CA4B20F
:10127000042CF8D36D1CADB2B542F3D370BD1CB5D0
:10128000049CCDE9003413460A460146282000F0AC
:1012900091FE1CBDF8B51F46069D16460C4680B152
:1012A0000021425C1AB1491CC9B21029F9D3491C6A
:1012B000CAB20146002307200095FFF7E0FF00288F
:1012C00024D014B30020215C19B1401CC0B21028F6
:1012D000F9D3401CC2B20023214608200095FFF735
:1012E000CEFF002812D084B10020215C19B1401C2F
:1012F000C0B21028F9D3401CC2B23B463146092087
:101300000095FFF7BCFF002800D00120F8BD08B50C
:101310000023009101461A46012000F0EBFE08BDB3
:101320002DE9F0418AB00F4604461D46164620219D
:1013300001A8FFF725F94FF000080DB1A5F80080CE
:10134000284601F0E9F900283CD0072000F0A6FE6D
:10135000012001F0FFF81F208DF804008DF80580B2
:101360008DF8060000231A46032101A8009501F01C
:101370004FF8002826D08CB19DF8060000022060AE
:101380009DF807100844000220609DF808100844EA
:10139000000220609DF809100844206017B19DF8F4
:1013A0000A0038706EB1002001A904E00A18127A10
:1013B0003254401C80B29DF80B208242F6D806F8C9
:1013C000008001200AB0BDE8F08170B58AB0054602
:1013D0000C004FF0000600D02680084601F09CF972
:1013E000002823D0072000F059FE012001F0B2F8B8
:1013F00010208DF8040000208DF80560024601A938
:101400008B5C521C184492B2C0B2022AF8D38DF8F9
:10141000060000231A46032101A8009400F0F8FFFB
:10142000002803D09DF80600287001200AB070BD86
:1014300070B58AB00C460546202101A8FFF7A0F838
:10144000002604B12680204601F066F9002823D04A
:10145000072000F023FE012001F07CF812208DF817
:10146000040000208DF80560024601A98B5C521C27
:10147000184492B2C0B2022AF8D38DF806000023B5
:101480001A46032101A8009400F0C2FF002803D0EF
:101490009DF80600287001200AB070BDF0B589B033
:1014A0000F460646202101A8FFF76AF8002507B17C
:1014B0003D80384601F030F900282BD0072000F09D
:1014C000EDFD012001F046F811208DF80400002107
:1014D0008DF80550084601AC225C401C114480B2D6
:1014E000C9B20228F8D38DF8061000231A4603214A
:1014F0002046009700F08CFF00280BD00020211818
:101500008A783254897819B1401C80B20F28F6D3FA
:10151000F573012009B0F0BD10B501F00BF8FF28FC
:1015200003D0C00601D5012010BD002010BD000071
:1015300070B5054600F0FEFFFF280FD000F0FAFF5F
:1015400060B10C4E0024305D00F0FFFE0A20FFF772
:10155000E5FD00F0EFFF315D814201D0002104E0A4
:10156000641CA4B2062CEED3012105B128700846F4
:1015700070BD0000905E00081FB504460020029078
:1015800003901FE000F0DB0040F001008DF8000048
:101590009DF8000000F0D9FE0A20FFF7BFFD00F023
:1015A000C9FF8DF804009DF804009DF800108842E2
:1015B000039802D1401C039001E08DF800000298CE
:1015C000401C0290A042DDD3412000F0BEFE0A2064
:1015D000FFF7A4FD039804B010BD2DE9F04F89B0CA
:1015E0000D46DDE91269834698461446202101A87C
:1015F000149FFEF7C5FF4FF0000A0FB1A7F800A037
:10160000384601F089F8002857D0072000F046FD41
:10161000012000F09FFF14208DF8040001208DF8B8
:1016200005008DF806B00BF115008DF807000023BA
:101630001A46042101A8009700F0EAFE00283CD0D9
:101640009DF8070030B10DB185F800A0A4B384F86F
:1016500000A031E015B19DF80800287014B19DF884
:10166000090020704FF6FF71B8F1000F0AD09DF805
:101670000A0001EA0020A8F800009DF80B201044A1
:10168000A8F8000056B1002001AA13181B7A3354A1
:10169000401C80B21028F8D386F80FA0B9F1000FD3
:1016A0000AD09DF81D0001EA0020A9F800009DF86D
:1016B0001E100844A9F80000012009B0BDE8F08F11
:1016C0002DE9FF4F89B00025DDE917781A9C89467E
:1016D0002E46AA46AB460CB1A4F800B021461046EF
:1016E00001F0AAF800283BD001F05DF801208DF848
:1016F000040002208DF805004FEA19208DF806003D
:1017000000218DF80790084601AA135C401C19447B
:1017100080B2C9B20428F8D38DF8081000231A4605
:10172000052101A8009400F073FE0028DBD09DF88D
:10173000060020B334B100F0FDFE4FF6FF7101EA60
:10174000002020809DF80600FD2824D0FE2811D01E
:10175000FF2806D0002C03D0208840F02F002080E6
:10176000A7E01CB1208840F022002080C820FFF7AD
:10177000D5FC9EE01CB1208840F0230020809DF81D
:1017800008004FF6FF7101EA00209DF80910084497
:1017900086B24E4505D94E461CB1208840F0240043
:1017A00020809DF8079049A14A4801F04DFF00288C
:1017B0001CDDB8F1000F0CD09DF80F004FF6FF7143
:1017C00001EA0020A8F800009DF80E100844A8F8CF
:1017D0000000CFB19DF8120038709DF813007870AA
:1017E0009DF81400B8709DF815000CE0B8F1000FDA
:1017F00001D0A8F800B03FB187F800B087F801B079
:10180000584687F802B0F870052000F047FC0A201F
:10181000FFF784FC00254AE0052000F09BFE012034
:10182000FFF77CFC204600F0E8FF68B90AF10100F0
:1018300000F0FF0ABAF1020F06D2052000F02EFCDC
:101840000520FFF76BFC32E022484FF0000A183801
:10185000C0780028A6EB050008D0202800DB202057
:10186000C1B20998284400F0A1FD07E0202800DB60
:101870002020C1B20998284400F077FD284485B2A1
:101880000120FFF74BFC062000F0B4FD78B1B54213
:101890000FD2741B202C0CDC00F075FB48B10998AA
:1018A000E1B2284400F061FD284485B201E0B54270
:1018B000B2D3169810B1169981F80090199800B11A
:1018C00006800DB02846BDE8F08F0000312E312E85
:1018D000362D3500C401002030B587B000240A9DA4
:1018E00000930194029405ABCDE90345FFF7E8FEB0
:1018F00007B030BD2DE9FC470E46804600259946CD
:1019000092462F4668A16A480A9C01F09DFE002875
:1019100008DC4B46524631464046009400F0CAF877
:10192000BDE8FC8718F8050018B16D1CEDB2202D3C
:10193000F8D31B2D02D31B3DEFB21B2500232A46F3
:10194000414618460094FFF79AFC0028E8D06FB192
:10195000092F01D9092200E03A46002308F11B01B2
:1019600010200094FFF78BFC0028D9D000221546E8
:101970001746B05C20B1521CD2B2402AF9D301E024
:101980001B2A02D31B3AD5B21B2200233146012069
:101990000094FFF774FC0028C2D0F5B11B2D03D3CF
:1019A0001B3DEFB21B2200E02A46002306F11B017B
:1019B00020200094FFF763FC0028B1D06FB1092FFD
:1019C00001D9092200E03A46002306F13601212020
:1019D0000094FFF754FC0028A2D000225346114681
:1019E000FF200094FFF74BFC002899D000264FF60B
:1019F000FF7509EB890826E00027FA20FFF78EFB28
:101A0000FA20FFF78BFBFA20FFF788FBFA20FFF79D
:101A100085FB7F1CBFB2C82FEFD3214601A8FFF77B
:101A200007FD01280DD19DF80400042828D004DC0E
:101A3000022814D0032804D119E0052830D0FF284B
:101A400026D0761CB6B2B04501D9AE42D4D34CB341
:101A500000F070FD05EA002040F032000EE00CB30B
:101A600000F068FD05EA002040F04B0006E0CCB134
:101A700000F060FD05EA002040F04A00208011E0FF
:101A800084B100F057FD05EA002040F04D00F5E775
:101A900044B100F04FFD05EA002040F04C00EDE7B6
:101AA00001203DE700203BE7312E312E362D370057
:101AB000C40100202DE9F0438BB00E46074699463D
:101AC0009046202101A8129CFEF75AFD002504B182
:101AD0002580204600F020FE002871D0072000F06D
:101AE000DDFA012000F036FD22208DF804001D20D3
:101AF0008DF80500002001A905E00B18401C80B2FC
:101B00009A700D2802D23A5C002AF6D18DF8135053
:101B1000002005E00B18401C80B21A740D2802D278
:101B2000325C002AF6D18DF8215000228DF82280F7
:101B300010460B5C401C1A4480B2D2B21F28F8D366
:101B40008DF8232000231A46202101A8009400F0DC
:101B50005FFC00286AD09DF806004FF6FF7518B1AB
:101B6000002609EB890833E05CB300F0E3FC05EAEA
:101B7000002020809DF80610803108433BE00027BC
:101B8000FA20FFF7CBFAFA20FFF7C8FAFA20FFF79E
:101B9000C5FAFA20FFF7C2FA7F1CBFB2C82FEFD3F5
:101BA000214609A8FFF744FC01280FD19DF8240025
:101BB00004282AD006DC022816D0032806D11CE00F
:101BC00034E036E0052830D0FF2826D0761CB6B2A7
:101BD000B04501D9AE42D2D35CB300F0ABFC05EA0C
:101BE000002040F0320006E01CB300F0A3FC05EA40
:101BF000002040F04B0020801BE0D4B100F09AFCA4
:101C000005EA002040F04A00F5E794B100F092FCAC
:101C100005EA002040F04D00EDE754B100F08AFCE9
:101C200005EA002040F04C00E5E701200BB0BDE8DC
:101C3000F0830020FAE72DE9F0418AB08846064695
:101C40001746202101A8FEF79BFC002507B13D8027
:101C5000384600F061FD002835D0072000F01EFA5C
:101C6000012000F077FC13208DF8040000218DF88E
:101C70000550084601AC225C401C114480B2C9B238
:101C80000228F8D38DF8061000231A4603212046B7
:101C9000009700F0BDFB002815D09DF8061088F8CD
:101CA0000010002008E02118CA783254C97841B1E8
:101CB000401C80B21B2804D29DF80510891E814269
:101CC000F1DC355401200AB0BDE8F08170B58AB06E
:101CD0000D460646140001D000202080104600F07A
:101CE0001BFD002837D0072000F0D8F9012000F0B4
:101CF00031FC15208DF8040002208DF805008DF8C8
:101D0000066000208DF80750014601AA535C491C6B
:101D1000184489B2C0B20429F8D38DF80800002312
:101D20001A46052101A8009400F072FB002812D089
:101D30000024FA20FFF7F2F9FA20FFF7EFF9FA2072
:101D4000FFF7ECF9FA20FFF7E9F9641CA4B2142CB0
:101D5000EFD39DF806000AB070BD00002DE9F04FEA
:101D600091B00026DDE91BB4994617468846054622
:101D70000B960C960D960E9604B12680214677A000
:101D800001F088FC48B921461A98FFF7C0FA20B93B
:101D9000207856287CD05528FCD072A1734801F0D9
:101DA00053FC0DF12C0A00280BDA002051463A5C56
:101DB0000A543A5C1AB1401C80B21028F7D30E5472
:101DC00007E023465A463946504601F0CBF8002832
:101DD0007ED0204600F0A0FC002879D0072000F03B
:101DE0005DF9012000F0B6FB18208DF80C001620DC
:101DF0008DF80D008DF80E504FEA18208DF80F0069
:101E00008DF81080002003AA514605E01718401CE9
:101E100080B27B71102802D20B5C002BF6D1401DE2
:101E200080B2B24604E000BF02F800A0401C80B2BD
:101E30001528F9D34FEA19208DF821008DF822904A
:101E40001A988DF8230000210846135C401C1944A1
:101E500080B2C9B21828F8D38DF8241000230522C7
:101E6000192103A8009400F0D3FA00285BD09DF854
:101E70000E004FF6FF7660B154B100F05BFB06EA4E
:101E8000002020809DF80E10C1F18001084347E03A
:101E900062E0BDB3022D45D0012D5DD100250BEBD5
:101EA0008B084DE08DF83CA0FA20FFF737F9FA20B7
:101EB000FFF734F9FA20FFF731F9FA20FFF72EF98E
:101EC0000127FA20FFF72AF9FA20FFF727F900E0A7
:101ED00029E0FA20FFF722F9FA20FFF71FF97F1C0B
:101EE000C82FEEDBCDF800A0CDE901A400230FAA96
:101EF00019461A98FFF771FB00B39DF83C000728BC
:101F00001CD200E00EE0DFE800F004190D0D0D0D0D
:101F100011000CB300F00EFB06EA002040F0330085
:101F2000208019E0012011B0BDE8F08FA4B100F0CD
:101F300001FB06EA002040F03900F1E76D1CADB26C
:101F4000A84501D9B542ADD334B100F0F3FA06EAA1
:101F5000002040F03400E3E70020E4E7312E312E8A
:101F6000362D4E00312E312E362D3300C401002087
:101F700010B500F0DFFAFF2803D0000601D50120DC
:101F800010BD002010BD10B500F0D4FA002802D01A
:101F9000800601D4012010BD002010BD10B500F056
:101FA000C9FAFF2803D0C00700D0012010BD0020CF
:101FB00010BD00002DE9F04389B00D46DDE9109415
:101FC00006461F469046202101A8FEF7D9FA0CB11B
:101FD0000020208021462FA001F05CFBF0BB2046B2
:101FE00000F09AFB002843D0072000F057F80120AA
:101FF00000F0B0FA1B2F00D91B278DF80460B81C25
:102000008DF805008DF806908DF80750002001AA84
:1020100008E000BF18F800101318401C80B21971B6
:102020001B2801D2B842F5D300219DF805000B46CC
:10203000801C04E0D75C5B1C3944C9B29BB2984257
:10204000F8D8D1544FF47A72282E02D1FF2D00D047
:102050000A225B1CD9B2002301A800E018E000941A
:1020600000F0D6F9002803D09DF8060018B1012031
:1020700009B0BDE8F0835CB100F05CFA4FF6FF7187
:1020800001EA002020809DF806108031084320805E
:102090000020EDE7312E312E362D34002DE9F041B0
:1020A000044600F047FA0127A740054620EA070149
:1020B000A9421DD000264FF47A7800BF00F03AFA0A
:1020C0000446A84207D005460220FFF727F8761CF1
:1020D000B6B24645F2D324EA0700A04208D020F069
:1020E000040000F032F9BDE8F0410A20FFF716B80D
:1020F000BDE8F0812DE9F0478EB00746169C1E46DC
:1021000015468A46002004B120800090CDE90104E4
:10211000804600230CAA0BA95046FFF75EFA002860
:102120007BD09DF82C004FF6FF7930B1012801D00B
:10213000022804D19DF8301009B117B11DE05425D3
:102140002AE040B3012802D0022805D015E09DF80E
:10215000300006281FD010E08DF83480CDF80080C4
:10216000CDE9018400230DAA1946504600F076F807
:10217000002863D09DF8340068B1204600F0CCFA06
:1021800000285BD00720FFF789FF012000F0E2F96B
:102190004FB1192008E05725F4B300F0CBF909EA54
:1021A0000020284348E01A208DF80C0001208DF80B
:1021B0000D008DF80EA09DB128788DF80F0068787D
:1021C0008DF81000A8788DF81100E8788DF81200CD
:1021D000300A8DF8130007208DF814608DF80D007B
:1021E00000219DF80D20084603AB921C04E01D5C05
:1021F000401C2944C9B2C0B28242F8D81954401CCC
:10220000C1B200231A4603A8009400F001F9002887
:1022100014D09DF80E0001E00FE00FE088B1F42823
:102220000FD054B100F086F909EA002020809DF813
:102230000E10C1F180010843208000200EB0BDE8DF
:10224000F0879DF82C0038B10024FA20FEF766FFD5
:10225000641CE4B2082CF8D30120EFE72DE9F04725
:102260008AB08A46DDE913748146984616462021D5
:1022700001A8129DFEF784F9002006B1307004B168
:102280002080204600F048FA002832D00720FFF7CF
:1022900005FF012000F05EF92F208DF804000220D8
:1022A0008DF8050009F1310050448DF806908DF845
:1022B000080000238DF807A01A46052101A8009404
:1022C00000F0A6F8002814D09DF80800D0B17CB129
:1022D00000F030F94FF6FF7101EA002020809DF8F0
:1022E0000810FF2908D0FE2909D040F035002080D1
:1022F00000200AB0BDE8F08740F05A00F7E740F050
:102300005B00F4E716B19DF8090030705DB19DF8EF
:102310000A0028709DF80B0068709DF80C00A870EA
:102320009DF80D00E8703FB19DF80E0038809DF8D3
:102330000F1001EB00203880B8F1000F03D09DF89A
:10234000101088F800100120D3E710B504460020D3
:10235000FEF7CEFE0120FEF7A7FE2046FEF7B0FEF8
:10236000BDE810400120FEF7C3BE70B50C00054665
:102370000DD0202C00D920240020FEF7B9FE032028
:10238000FEF792FE0020FEF79BFE002307E00020F0
:1023900070BD0020FEF794FEE8545B1CDBB2A34244
:1023A000F7D30120FEF7A4FE204670BD70B50C46A1
:1023B0000646202900D920240D4D03202870002036
:1023C0006870FEF795FEA21C05F122012846FEF773
:1023D00079FD0120FEF78CFE002005E0291891F818
:1023E00024103154401CC0B2A042F7D3204670BD27
:1023F000AE02002010B5044600F09CF8FF2805D07E
:102400000121A140014201D0012010BD002010BDDA
:102410002DE9F0411F461646054690F80080069CBF
:1024200000F022F90A2009E0FA20FEF777FEFA20F0
:10243000FEF774FEFA20FEF771FEFA20FEF76EFE3C
:10244000761EB6B2F0D2204600F018FA002869D005
:102450004FF47A7047434CF25030B7FBF0F7002648
:102460007F1C05E0204600F078F918B9761CB6B25A
:10247000BE42F7D3BE4254D220212846FFF775FF53
:102480000A20FEF74BFE0720FFF708FE00226978BE
:1024900010468B1C04E02E5C401C3244D2B280B249
:1024A0009842F8D368184FF6FF768078904207D0AC
:1024B00084B300F03FF806EA002040F030000BE063
:1024C000287820F08001414508D01CB300F032F894
:1024D00006EA002040F03100208022E0002113A015
:1024E00001F0D8F800BBA87878281DD194B100F08D
:1024F00021F806EA00202080A978A9B1012906D098
:10250000022908D0032909D040F04800E4E740F050
:102510004500E1E705E040F04600DDE740F0470018
:10252000DAE70020BDE8F0810120FBE7312E312EF3
:10253000362D4E0010B50020FEF7DAFD0420FEF720
:10254000B3FD0020FEF7BCFD04460120FEF7D0FDE0
:10255000204610BD2DE9F0470646FFF7EBFF054684
:10256000012000FA06F848EA0500C0B2A84203D1EB
:10257000022E01D0052E25D100274FF47A7900BF15
:10258000FFF7D8FF0446A84207D005460220FEF711
:10259000C5FD7F1CBFB24F45F2D348EA0400C0B26C
:1025A000A04204D1022E06D0052E0BD101E0022E4E
:1025B00001D020F00400FFF7C8FEBDE8F0470A2074
:1025C000FEF7ACBDBDE8F08730B58DB005460C0018
:1025D00001D000202080084600F09EF800283ED060
:1025E0000720FFF75BFD0120FFF7B4FF42208DF8C5
:1025F000040001208DF805001A488DF806500022CD
:1026000001A9835C8D18521C92B2EB70102AF8D38A
:10261000144B09AD12330DCB85E80D00002209A83B
:102620008D18835C521C92B2EB740A2AF8D31B20DB
:102630008DF80500002002468B5C521C184492B2B3
:10264000C0B21D2AF8D38854521CD1B200231A46B6
:1026500001A80094FFF7DCFE002800D001200DB097
:1026600030BD0000965E000870B50C0005461ED017
:10267000202C00D320240020FEF73AFD0220FEF794
:1026800013FD0020FEF710FD002304E0E85CFEF7D8
:102690000BFD5B1CDBB2A342F8D3054840680189FF
:1026A0000906FCD4BDE870400120FEF721BD70BDD5
:1026B000AC01002010B5FFF73DFFFF2801D08007D7
:1026C00001D5002010BD012010BD0000F8B507465F
:1026D00000200D46ADF8000004464FF47A760FE076
:1026E00069463846FEF7DAFE012804D108A13846CB
:1026F000FDF76EFF30B93046FEF7B0FD641CA4B2A2
:10270000AC42EDD3AC4201D30020F8BD0120F8BDAE
:10271000302E302E302E30002DE9F04105460024B9
:1027200046F2A8174FF6FF76FFF738FC10B10120EC
:10273000BDE8F0810220FEF7F1FC641CA4B2BC42AB
:1027400001D2B442F0D335B1FFF7F4FE06EA00201F
:1027500040F0100028800020EAE72DE9F04105460E
:10276000002446F2A8174FF6FF76FFF701FC10B1E0
:102770000120BDE8F0810220FEF7D0FC641CA4B269
:10278000BC4201D2B442F0D35DB1FFF7D3FE06EAFA
:10279000002028800220FEF7C1FC288840F01600A7
:1027A00028800020E5E72DE9F041FFF7C3FE05464C
:1027B00020F0A00040F00201A9421CD000264FF4F6
:1027C0007A77FFF7B7FE0446A84207D005460220F5
:1027D000FEF7A4FC761CB6B2BE42F2D324F0A000F1
:1027E00040F00200A04206D0FFF7AFFDBDE8F04187
:1027F0000A20FEF793BCBDE8F08170B505460024C1
:1028000046F2A8160AE0FFF7BEFB08B1012070BD32
:102810000220FEF783FC641CB44201D2601CF2D19A
:1028200045B1FFF787FE4FF6FF7101EA002040F047
:1028300020002880002070BD70B5054600244FF4AC
:102840007A700E46454308E0FEF766FE08B10120A7
:1028500070BD0220FEF762FC641CB4EB550F01D280
:10286000601CF1D146B1FFF765FE4FF6FF7101EA3A
:10287000002040F010003080002070BD2DE9F041B4
:102880000546002446F2A8174FF6FF76FFF712FF21
:1028900010B10120BDE8F0810220FEF73FFC641C6E
:1028A000BC4201D2B442F1D335B1FFF743FE06EA90
:1028B000002040F0110028800020EBE7FEE7704781
:1028C00030B50F23C27801780125F2B1144A12689D
:1028D00001F1E02102F4E062C2F5E062120AC2F105
:1028E0000404D3404278A24084781C40144322015F
:1028F00081F80024007800F01F018D40400980001D
:1029000000F1E020C0F8005130BD01F01F0085400B
:102910004809800000F1E020C0F8805130BD00007F
:102920000CED00E0024908430249086070470000CE
:102930000000FA050CED00E010B5001D092815D2C5
:10294000DFE800F01F1D12100E0C0A0705004821D9
:1029500000E03821062409E02821FBE71821F9E7E7
:102960000821F7E7082100E018210E249B2000F041
:10297000B3FA2146BDE81040AB2000F0ADBA2821E3
:10298000F3E73821F1E710B5011D08290BD8040140
:102990004034E1B2A72000F09FFAE1B2BDE8104058
:1029A000A82000F099BA10BD011D082906D82021E1
:1029B00001EB8000C1B29C2000F08EBA704710B5C8
:1029C000062847D2DFE800F003061D27313CFF212F
:1029D000132009E0FD21132000F07EFA5A21012086
:1029E00000F07AFA5C2129E000F076FA65210E20E9
:1029F00000F072FA00212D2000F06EFA00212E2046
:102A000024E0FD21132000F067FA5821012000F096
:102A100063FA602112E0FD21132000F05DFA8421A9
:102A2000012000F059FA4C2108E0FD21132000F0AC
:102A300053FA9621012000F04FFA40210220D3E7FB
:102A4000FF21132000F048FAE5210E20BDE81040D8
:102A500000F042BA10BD10B5072840D2DFE800F000
:102A60000406111B252F3900062100E02621A6208F
:102A700000F032FA8021602000F02EFA80216120DF
:102A800029E01E21A62000F027FAA021602000F0F6
:102A900023FA4021F3E71E21A62000F01DFA402171
:102AA000602000F019FAA021E9E71E21A62000F01D
:102AB00013FA8021602000F00FFAC021DFE71E2109
:102AC000A62000F009FA6021084600F005FA60210E
:102AD000D5E74621A620BDE8104000F0FDB910BDA5
:102AE0002DE9F0470C4605464AB3C5F5207000EBCA
:102AF000D070C0F34F07C4F5F07000EBD070C0F396
:102B00004F060621122000F0E7F92321172000F0DC
:102B1000E3F9A021182000F0DFF90721192000F0C7
:102B2000DBF9F0211A2000F0D7F90021322000F063
:102B3000D3F9A021292000F0CFF9F02128E0C5F534
:102B4000A07000EBD070C0F34F07C4F1F00000EBB1
:102B5000D070C0F34F064621122000F0BDF93F218E
:102B6000172000F0B9F95021182000F0B5F9032121
:102B7000192000F0B1F978211A2000F0ADF90021F8
:102B8000322000F0A9F95021292000F0A5F9782180
:102B90002C2000F0A1F9172000F006F900EB9700B7
:102BA000C1B2172000F098F9C5F387018A461820B2
:102BB00000F092F9192000F0F7F800EB5600C1B2CE
:102BC000192000F089F9C4F3470189461A2000F062
:102BD00083F9322000F0E8F88046F007400E07F055
:102BE000030104F0010640EA011040EA860105F005
:102BF0000304214341EA0801322000F06DF95146F7
:102C0000292000F069F949462C2000F065F92A20B6
:102C100000F0CAF844EA080444EA8601BDE8F04737
:102C20002A2000F059B97047044A0029D16901D01F
:102C3000014300E08143D161704700000010024071
:102C4000044A0029116901D0014300E08143116168
:102C50007047000000100240044A0029916901D029
:102C6000014300E081439161704700000010024081
:102C700030B5204A5168204B11F00C0103D00429D3
:102C800001D0082901D0036012E05168536801F4B3
:102C900070114FF0020413F4803F04EB914102D015
:102CA00053689B0301D5154B00E0134B594301605A
:102CB00051680F2303EA1111114B5C5C0168E1407C
:102CC00041605468072505EA14241C5D21FA04F4C8
:102CD0008460546805EAD4241B5DD940C160526801
:102CE000032303EA9232064B1B1F9A5CB1FBF2F1FD
:102CF000016130BD0010024000127A0000093D0061
:102D00002800002070B5322000F078FC0A4C012029
:102D1000C4F89401C4F89001322004F5C87400F09E
:102D20006DFC00252560322000F068FC6560BDE880
:102D30007040322000F062BC000022422DE9F047D2
:102D4000174F0024386820F470003860386840F469
:102D500000003860134E08254FF00108A1463220CC
:102D600000F04CFCC6F890816006040ED6F8140101
:102D700008B1641CE4B2322000F040FCC6F8909127
:102D80006D1E15F0FF05EAD1386820F47000386038
:102D9000386840F4401038602046BDE8F0870000F5
:102DA000001001400000224210B5044600F022F855
:102DB000422000F04DF8642000F020FC204600F096
:102DC00047F8642000F01AFC00F02AF8642000F0B4
:102DD00015FC00F00FF8432000F03AF8642000F0F2
:102DE0000DFCFFF7ABFF0446FFF78CFF00F018F86F
:102DF000204610BD70B5094C0120C4F89401C4F8F8
:102E00009001322004F5C87400F0F8FB00256560DD
:102E1000322000F0F3FB256070BD0000000022426C
:102E200070B50A4C0020C4F89401322004F5C8742F
:102E300000F0E4FB01252560322000F0DFFB656037
:102E4000BDE87040322000F0D9BB000000002242F3
:102E50002DE9F04100241E4E0546A0460127280614
:102E600002D5C6F8947101E0C6F894816806050E93
:102E7000322000F0C3FBC6F89071322000F0BEFB98
:102E8000C6F89081641CE4B2082CE8D3114C206889
:102E900020F470002060206840F4000020603220A0
:102EA00000F0ACFBC6F89071322000F0A7FBD6F81A
:102EB000140100B10120C6F89081216821F470014D
:102EC0002160216841F440112160BDE8F0810000DB
:102ED000000022420010014070B50D460646002455
:102EE000FFF788FF4220FFF7B3FF00B10124642001
:102EF00000F084FB3046FFF7ABFF00B101246420F3
:102F000000F07CFB2846FFF7A3FF00B10124FFF788
:102F100087FF204670BD0029018802D041F04001A2
:102F200001E021F040010180704730B502884C88F3
:102F300002F441530A88CD8822438C882C432243D3
:102F40000C8922434C8922438C892243CC89224319
:102F50001A430280828B22F400628283098A0182F2
:102F600030BD00002DE9F0438DB0884606461C4672
:102F70001746202101A8FDF703FB4FF000090CB113
:102F8000A4F80090214652A000F084FB002874D1E0
:102F900051A009AD0FC885E80F0000200DF12401F4
:102FA00018F900200B569A4204D1401C80B2102818
:102FB000F6D301E010280AD300200A5C3254401CEA
:102FC00080B21028F9D301200DB0BDE8F08320466F
:102FD000FFF7A2FB0028F7D00720FFF75FF80120DA
:102FE000FFF7B8FA25208DF804008DF80670002050
:102FF0000DF104052A1818F80010D17018F8001007
:1030000019B1401C80B21C28F4D32A18811C82F804
:10301000039000228DF80510C8461146001D04E0FB
:103020006B5C491C1A44D2B289B28142F8D36A540B
:1030300000941E2F00D91E2707EB4700C0EBC710D6
:103040004FF6FF7707EAC0039DF805000022C01C79
:10305000C1B22846FFF7DCF90028B5D09DF806007C
:10306000D0B154B1FFF766FA07EA002020809DF83E
:103070000610FA39062928D200E024E0DFE801F042
:1030800020201D1A17142918CA783254C97841B162
:10309000401C80B2102804D29DF80510891E814280
:1030A000F1DC06F800808EE740F03A000AE040F0DC
:1030B0003B0007E040F03C0004E040F05E0001E02F
:1030C00040F05F00208000207EE740F03D00F9E7FF
:1030D000312E312E362D33003235352E3235352E08
:1030E0003235352E32353500704700000CB50022E0
:1030F000264800920192016841F4803101604FF44A
:10310000A063016801F4003101910099491C00910C
:10311000019911B900999942F3D10168890333D516
:10312000012101911A490A6842F010020A600A68F6
:1031300022F003020A600A6842F002020A60416853
:10314000416041684160416841F48061416041688B
:1031500021F47C114160416841F4E811416001684B
:1031600041F08071016001688901FCD5416821F05E
:1031700003014160416841F0020141604168C1F3CF
:1031800081010229FAD10CBD01920CBD0010024050
:10319000002002404FF0E0210428086903D020F00D
:1031A00004000861704740F00400FAE7704700002F
:1031B0000F4810B5016841F00101016041680D4AF6
:1031C0001140416001680C4A11400160016821F41E
:1031D00080210160416821F4FE0141604FF41F012C
:1031E0008160FFF783FF05494FF00060086010BD64
:1031F000001002400000FFF8FFFFF6FE08ED00E0BF
:1032000070B5094D0121284600F037F830B1074C60
:1032100007A02178FDF72CF8002020702846BDE893
:103220007040012100F026B8000400401400002086
:103230006672616D653A25646670730D0A00000060
:1032400010B50A4C2088C0070BD009480069804798
:10325000064900201431088004494FF47A701C316B
:103260000880208820F00100208010BD1008004058
:10327000B4000020C9430182704702460020138A2F
:1032800092890B4202EA010202D0002A00D00120FA
:1032900070470000124A08B5D36943F00403D361B4
:1032A000104A1080101F01800E482038018841F01C
:1032B000010101800B482C38018841F00101018097
:1032C0001E208DF8000004208DF801008DF802000A
:1032D00001208DF803006846FFF7F2FA08BD0000F0
:1032E000001002402C08004070B5154C40F22551EA
:1032F000204600F035F800280ED0204600F0BEF839
:10330000104AC1B21088030406D444044FF00003ED
:1033100006D50A2901D0138070BD40F400400DE0AD
:103320000D2909D0C0F30D04074D401C80B229556A
:103330001080C728EFD870BD40F48040108070BD69
:10334000003801401E000020E6010020002981898C
:1033500002D041F4005101E021F400518181704715
:1033600070B501F01F0501260024C1F3421306FACF
:1033700005F2012B0FD0022B0FD0838A4FEA1121C7
:103380000088134206FA01F600EA060001D000B1F7
:103390000124204670BD8389F0E7038AEEE710B56B
:1033A000C1F3421301F01F040121A140012B07D0FA
:1033B000022B07D01430002A026805D00A4304E02B
:1033C0000C30F8E71030F6E78A43026010BD0000C9
:1033D00030B50446008A85B00D464CF6FF710840B2
:1033E000E98801432182A0894EF6F3110840A9889B
:1033F0002A8911436A8902431143A181A08A4FF6A9
:10340000FF410840A9890143A1826846FFF730FCCB
:103410001948844201D1039800E00298A189090467
:1034200000EBC00101EB0010296801D5490000E064
:103430008900B0FBF1F06422B0FBF2F109010B0945
:103440006FF018056B4300EB8300A3891D044FF058
:10345000320306D503EBC000B0FBF2F000F007002A
:1034600005E003EB0010B0FBF2F000F00F000843A2
:10347000208105B030BD0000003801408088C0F3D5
:1034800008007047FEE7000030B587B0002426A092
:1034900010250594CDE90050C823039404941A46DE
:1034A00021462046FDF718FCFDF704FDFDF756FE0A
:1034B00040B920A0CDE90050C8231A4614210020AD
:1034C000FDF70AFC06AA00210120FEF7FFFB0028F9
:1034D00027D0002306AD1A4619461BA00095FDF71C
:1034E000D9FE00281DD00A2300221BA11DA0009593
:1034F000FEF700FA002814D006A903A8FDF7CEFFB6
:1035000060B1FF20CDE9004042F282310B4616A2A5
:1035100002950020FEF722FC002802D01649012067
:10352000087007B030BD0000414C4B20496E6974F3
:103530002E2E2E00414C4B20496E69742053504969
:10354000206572726F7200003139322E3136382E9A
:103550003133372E3937000031323334353637388E
:1035600039300000524A4D003139322E3136382E72
:103570003133372E31000000A801002030380A28EE
:1035800001D20120704700207047704710B56FF0DE
:103590000400FFF7FFFD094809490068B0FBF1F09E
:1035A0000849C0B200EB40020870C2EBC0104FF6F1
:1035B000FF7202EAC000488010BD00000000002039
:1035C00000127A001A0000200B49498848434FF046
:1035D000E021486100238B61086940F00100086127
:1035E0000869C20701D0C003FAD5086920F00100BC
:1035F00008618B61704700001A0000200B490978B0
:1036000048434FF0E021486100238B61086940F096
:10361000010008610869C20701D0C003FAD5086932
:1036200020F0010008618B61704700001A00002043
:1036300004490A885206FCD5024AC1B2121D118003
:10364000704700000038014030B500221446835610
:10365000542B01D0532B00D184548B56542B01D0C2
:10366000532B00D18C54835633B18D5625B1AB42C8
:1036700002D1521CD2B2EAE780568956884202DD56
:103680004FF0010030BD02D14FF0000030BD4FF0CF
:10369000FF3030BD10B50C4601460948FFF7D4FF96
:1036A00000280BDA44B1FEF745FF4FF6FF7101EA3F
:1036B000002040F077002080012010BD002010BDC8
:1036C000C40100200EB500200190FFF75FFF4FF40A
:1036D000A060FFF727F94FF4165000F04DF8FDF702
:1036E00091FB2148416848208847204E4FF480755F
:1036F00029463046FDF753F91D4F04213846FDF7A2
:103700004EF9FFF7C1FE18B104213846FDF749F91B
:1037100029463046FDF745F902AC4FF47A7800238C
:103720004246012101A80094FEF7D6F89DF8040056
:10373000302803D104213846FDF731F99DF8040003
:10374000352803D129463046FDF729F99DF80400B4
:103750006E28E4D129463046FDF723F90421384686
:10376000FDF71FF9DBE70000B4000020000801406E
:10377000001401400068704770B5054686B001210D
:1037800044F20400FFF768FA4FF40070ADF810003F
:1037900003248DF8124018201D4E8DF8130004A943
:1037A0003046FDF7A7F83015ADF8100004208DF86D
:1037B000130004A93046FDF79DF825208DF814006C
:1037C0008DF815408DF8164001208DF8170005A8DA
:1037D000FFF776F80020ADF80400ADF80600ADF86C
:1037E0000800ADF80C000C200A4CADF80A0000955A
:1037F00069462046FFF7ECFD012240F225512046A4
:10380000FFF7CDFD01212046FFF7A0FD06B070BDFA
:10381000000801400038014070B594B0064613AB73
:1038200011AA694600F0DAF9002824D18DF8400089
:103830001D4C042514E0206805EBC10113AB405872
:1038400012AA08A900F0CAF9002814D1694608A8EC
:1038500000F0E6FB88B19DF84000401C8DF8400068
:10386000207D9DF840108842E5D8207D9DF84010CD
:1038700088420ED1042014B070BD9DF848009DF818
:103880004410884201D90220F5E79DF84000A07558
:10389000EBE710A9304600F055FA0028EBD19DF86F
:1038A000400060750020E6E7B40000202DE9F041FB
:1038B0007F4E00279AB0B57D307DA8427CD9042187
:1038C000306801EBC50119AB405818AA10A900F0E7
:1038D00085F910A977A0FCF7CBFC00240DF118089E
:1038E00032E0308B0121A140084217D0222173A081
:1038F000FCF7BEFC204600F08DFA811970A024313F
:10390000FCF7B6FC22216DA0FCF7B2FC204600F0CB
:1039100081FA3044243048F824000BE0204600F0BF
:1039200079FA3044416A48F82410F07D00B365A06C
:10393000FCF79EFC9DF86000401E844202D063A00C
:10394000FCF796FC641CE4B29DF860008442C8D386
:103950005FA0FCF78DFC00F0A3FA707D0B2814D259
:10396000DFE800F0080D31384048525E6B7888007F
:1039700058A0DDE7306850F83500804704E0306833
:1039800050F8351006988847074600F055FA9DF81C
:10399000640001287DD050A0FCF76AFC96F8EC008A
:1039A00000280DD0D6F8F0000A21B0FBF1F201FB9F
:1039B0001202B0FBF1F100E002E048A0FCF758FC75
:1039C0001AB0BDE8F081306850F83520DDE9060115
:1039D0009047D9E7306806AC50F8353094E80700D6
:1039E0009847D1E7306806AF50F8354097E80F00A8
:1039F000A047C9E70A980090306806AF50F83540F4
:103A000097E80F00A047BFE7DDE90A01CDE9000113
:103A1000306806AF50F8354097E80F00A047B3E78D
:103A20000AAB06AF93E807008DE80700306850F84E
:103A3000354097E80F00A047A6E70AAC06AF94E828
:103A40000F008DE80F00306850F8354097E80F0000
:103A5000A04799E70BAC06AF94E80F0001AC84E8EF
:103A60000F000A980090306850F8354097E80F0032
:103A7000A04789E70CAC06AF94E80F0002AC84E8DD
:103A80000F00DDE90A01CDE90001306850F835404A
:103A900000E003E097E80F00A04775E7F07D3946A6
:103AA00018B116A0FCF7E4FB78E717A0FAE70000CE
:103AB000B40000200D0A25732800000025630000D3
:103AC0002573000030582558000000002C0000002D
:103AD00029000000256C75003B0D0A0046756E63D9
:103AE00074696F6E2052756E2054696D653A256455
:103AF0002E2531646D730D0A000000003D305825FD
:103B0000583B0D0A000000003D256C753B0D0A0076
:103B1000F0B500252E462F462C4603782C2B03D0DB
:103B2000292B04D01BB103E014B9012600E05CB3DB
:103B300017B1222B26D026E0A3F1300CBCF1090FDF
:103B400015D9A3F1610CBCF1050F10D9A3F1410CFB
:103B5000BCF1050F0BD9582B09D0782B07D0222B9D
:103B60000CD0202B1ED02C2B1CD0FF270CE05EB9D4
:103B7000612B00D3203B01F8013B13E026B901275C
:103B80003C460FE0002426B100200870177028463C
:103B9000F0BD3CB15C2B02D16D1CEDB2401C037832
:103BA00001F8013B6D1CEDB2401CB6E730B50025B5
:103BB00015700AE001F8014B1478401C641CE4B253
:103BC00014709C4201D3012030BD0478202C01D018
:103BD000002CEFD10D70002030BD00002DE9FF4F0B
:103BE000002482B089469846A246274601252646EB
:103BF0002246EB46029915E0202810D002F07F0300
:103C0000052B0CD202B9802202F07F03042B01D1D4
:103C10002A280AD1521C0BF80300D2B201E0852AEF
:103C200004D0491C08780028E6D16AB102F07F026E
:103C300000200BF8020041A1584600F0F1F938B11C
:103C4000012188F8001000224FF00008029B15E0C7
:103C5000002088F80000F6E708F1010000F0FF08F6
:103C600013F8010F202801D02A2807D1184600F0A8
:103C70007FF9282802D02A2800D0C24618782828A0
:103C800001D00028E8D10299BAF1000F01D05144C7
:103C9000491C4FF000084346087888B1282804D012
:103CA000292806D0222810D011E083B9641CE4B280
:103CB0000DE063B924B1641E14F0FF0402D00DE0DE
:103CC0004FF00108012F27D02FE04BB100234CB15A
:103CD0002C280CD0202816D0282814D05AB110E057
:103CE0000123F4E7202815D009F8010B12E0012583
:103CF000521CD2B207E0052E03D20BF80600761C48
:103D0000F6B26D1CEDB2012C04D1022D02D10325B7
:103D10007F1CFFB2491CBFE700200BF8060007A17B
:103D2000684600F07DF900B900270498077000206C
:103D300089F8000006B04046BDE8F08F766F6964F0
:103D4000000000002DE9F04300248946304DB5B055
:103D5000214622466B18491CC9B29A760A29F9D322
:103D600002E010F8011F99B101782829F9D1461C09
:103D70004FF0010833AA69463046FFF7C9FE0644F2
:103D80009DF8CC0040B1012824D0FF2836D10BE0AB
:103D9000012035B0BDE8F0839DF8000070B334A970
:103DA000684600F0EDF808B10220F2E7204600F086
:103DB00031F8284434994162298B08FA04F0814390
:103DC0002983042029198876641CE4B20A2C15D9A9
:103DD0000320DEE7684600F038F9471C204600F073
:103DE00019F841196846243100F026F9298B08FAA0
:103DF00004F00143281929838776E5E730782928DC
:103E000001D00028B6D189F800400020C1E70000A9
:103E1000B4000020024610B500200146054B05E025
:103E20005C18491CA47EC9B22044C0B29142F7D3A9
:103E300010BD0000B4000020094800880949C007EF
:103E4000D1F8F00004D04FF6FF721044C1F8F00032
:103E5000034A143212881044C1F8F0007047000081
:103E600010080040B400002000EBC00101EB00107E
:103E70004FF0FF3101EB800010B581B24FF47A7042
:103E8000FFF708FA01490120C87510BDB4000020F1
:103E90000346012000E05843491EC9B2FBD27047D7
:103EA0000848018821F00101018006494FF6FF70A2
:103EB0001C31088003490020143108800249C1F8F0
:103EC000F000704710080040B40000202DE9F041D8
:103ED000164E3088010426D51549C0B2154F00256D
:103EE0000D54B9681248884704000FD0104800F0FC
:103EF000B5F8012801D0040014D0012C09D0022CFF
:103F000009D0032C09D0042C0CD108E0F8688047B4
:103F100008E009A004E00BA002E00DA000E00FA063
:103F2000FCF7A6F93580BDE8F08100001E000020F6
:103F3000E6010020B4000020BAAFCAFDB4EDCEF314
:103F4000210D0A00B2CECAFDB4EDCEF3210D0A0058
:103F5000B2CECAFDCCABB6E0210D0A00CEB4D5D2AC
:103F6000B5BDC6A5C5E4B5C4BAAFCAFD210D0A00EA
:103F700010F8011F202901D10028F9D1C8B27047DB
:103F80002DE9F0410024884605460A260C60017898
:103F9000A1F13002092A0DD9113A052A0AD9582966
:103FA00005D011F0FF0F0CD00120BDE8F081012CED
:103FB00002D0F9E7412900D31026641CE4B2401C6A
:103FC000E5E7102E01D084B112E0032C01D20220CB
:103FD000EBE72878302802D16878582801D00320F0
:103FE000E3E7A41EE4B2AD1C01E00420DDE70CB160
:103FF000641EE4B22F783846303F092F01D9A0F172
:10400000370721463046FFF743FFD8F8001007FB7B
:104010000011C8F8001015F8010F0028E7D1C4E717
:1040200002780B789A4201D00120704712B1401CEF
:10403000491CF5E70020704702780A700278002AD0
:1040400002D0401C491CF7E77047002102781AB1E2
:10405000491CC9B2401CF9E708467047F0B58DB05D
:1040600004461E2308AA6946FFF7A0FD0990002810
:1040700072D19DF82000271800253E4C8DF8205065
:104080009DF8200054F820106846FFF7C9FF38B1AA
:104090009DF82000401CC0B28DF820000728EFD307
:1040A0009DF820000426344C072855D2DFE800F0A4
:1040B0000404395A605F5E0030A0FCF7D9F830A0E4
:1040C000FCF7D6F83EA0FCF7D3F84DA0FCF7D0F8EB
:1040D0005BA0FCF7CDF86AA0FCF7CAF878A0FCF763
:1040E000C7F885A0FCF7C4F88AA0FCF7C1F88FA038
:1040F000FCF7BEF893A0FCF7BBF898A0FCF7B8F863
:104100009DA0FCF7B5F8A3A0FCF7B2F8AFA0FCF7B0
:10411000AFF8BCA0FCF7ACF8C7A0FCF7A9F8D3A097
:104120001BE016A0FCF7A4F8E0A0FCF7A1F88DF8BE
:1041300020500BE0216806EBC0000958EBA0FCF70B
:1041400097F89DF82000401C8DF82000217D9DF8F7
:1041500020008142EED84EE24FE2FCF789F80020C1
:104160000DB0F0BD05A0FCF783F8C3E124E204E242
:10417000E3E1000038000020B40000200D0A000038
:104180002D2D2D2D2D2D2D2D2D2D2D2D2D2D2D2D5F
:104190002D2D2D2D2D2D2D2D55534D415254205665
:1041A000332E312D2D2D2D2D2D2D2D2D2D2D2D2D34
:1041B0002D2D2D2D2D2D2D2D2D2D2D200D0A0000D9
:1041C0002020202055534D415254CAC7D3C9414CD9
:1041D00049454E54454BBFAAB7A2B5C4D2BBB8F6A9
:1041E000C1E9C7C9B5C4B4AEBFDAB5F7CAD4BBA577
:1041F000BDBBD7E9BCFE2CCDA8B9FD200D0A00003F
:10420000CBFC2CC4E3BFC9D2D4CDA8B9FDB4AEBF9A
:10421000DAD6FACAD6B5F7D3C3B3CCD0F2C0EFC35F
:10422000E6B5C4C8CEBACEBAAFCAFD2CB2A2D6B4D7
:10423000D0D02ED2F2B4CB2CC4E3BFC90D0A0000FB
:10424000D2D4CBE6D2E2B8FCB8C4BAAFCAFDB5C48A
:10425000CAE4C8EBB2CECAFD28D6A7B3D6CAFDD7EA
:10426000D62831302F3136BDF8D6C629A1A2D7D6EF
:10427000B7FBB4AEA1A2BAAFCAFDC8EB0D0A0000ED
:10428000BFDAB5D8D6B7B5C8D7F7CEAAB2CECAFD71
:10429000292CB5A5B8F6BAAFCAFDD7EEB6E0D6A7B9
:1042A000B3D63130B8F6CAE4C8EBB2CECAFD2CB2F0
:1042B000A2D6A7B3D6BAAFCAFDB7B5200D0A000083
:1042C000BBD8D6B5CFD4CABE2ED0C2D4F6B2CECAD1
:1042D000FDCFD4CABEBDF8D6C6C9E8D6C3B9A6C4F8
:1042E000DC2CD0C2D4F6BDF8D6C6D7AABBBBB9A6C3
:1042F000C4DC2E0D0A000000BCBCCAF5D6A7B3D69C
:104300003A7777772E6F70656E6564762E636F6D82
:104310000D0A000055534D415254D3D037B8F6CF53
:10432000B5CDB3C3FCC1EE3A0D0A00003F3A2020E0
:1043300020202020BBF1C8A1B0EFD6FAD0C5CFA273
:104340000D0A000068656C703A202020BBF1C8A1FE
:10435000B0EFD6FAD0C5CFA20D0A00006C69737415
:104360003A202020BFC9D3C3B5C4BAAFCAFDC1D05B
:10437000B1ED0D0A0A00000069643A2020202020D7
:10438000BFC9D3C3BAAFCAFDB5C44944C1D0B1EDAA
:104390000D0A0A006865783A20202020B2CECAFDB6
:1043A0003136BDF8D6C6CFD4CABE2CBAF3B8FABFE0
:1043B000D5B8F12BCAFDD7D6BCB4D6B4D0D0BDF891
:1043C000D6C6D7AABBBB0D0A0A0000006465633AD3
:1043D00020202020B2CECAFD3130BDF8D6C6CFD4C1
:1043E000CABE2CBAF3B8FABFD5B8F12BCAFDD7D6DE
:1043F000BCB4D6B4D0D0BDF8D6C6D7AABBBB0D0AC4
:104400000A00000072756E74696D653A312CBFAA9E
:10441000C6F4BAAFCAFDD4CBD0D0BCC6CAB13B300B
:104420002CB9D8B1D5BAAFCAFDD4CBD0D0BCC6CA8E
:10443000B13B0D0A0A000000C7EBB0B4D5D5B3CC30
:10444000D0F2B1E0D0B4B8F1CABDCAE4C8EBBAAF9B
:10445000CAFDC3FBBCB0B2CECAFDB2A2D2D4BBD897
:10446000B3B5BCFCBDE1CAF82E0D0A002D2D2D2DD3
:104470002D2D2D2D2D2D2D2D2D2D2D2D2D2D2D2D6C
:104480002D2D2D2D2D2D414C49454E54454B2D2D77
:104490002D2D2D2D2D2D2D2D2D2D2D2D2D2D2D2D4C
:1044A0002D2D2D2D2D2D2D200D0A00002D2D2D2DE6
:1044B0002D2D2D2D2D2D2D2D2D2D2D2D2D2D2D2D2C
:1044C0002D2D2D2D2DBAAFCAFDC7E5B5A52D2D2D4E
:1044D0002D2D2D2D2D2D2D2D2D2D2D2D2D2D2D2D0C
:1044E0002D2D2D2D2D2D2D2D200D0A0025730D0A7E
:1044F0000000000042A0FBF7BBFE8DF8205016E044
:10450000216806EBC0000BAB08580AAA6946FFF702
:1045100065FB9DF82010206850F83120694648A0BE
:10452000FBF7A6FE9DF82000401C8DF82000217DA1
:104530009DF820008142E3D85DE0AFF2C030FBF788
:1045400097FE08AA69463846FFF7E2FA9DF8200070
:10455000002843D109A96846FFF712FD8DF8200015
:1045600010B104283AD102E03AA009991CE03CA01D
:10457000FBF77EFE0120E0753DE038A0FBF778FEFA
:1045800008AA69463846FFF7C3FA9DF8200028BB01
:1045900009A96846FFF7F4FC8DF8200010B1042843
:1045A0001CD104E033A00999FBF762FE23E034A09C
:1045B000FBF75EFEE5751EE028A0FBF759FE08AA92
:1045C00069463846FFF7A4FA9DF8200030B909A9DA
:1045D0006846FFF7D5FC8DF8200008B10220BFE542
:1045E000099810F0FF0084F8EC0001D029A000E049
:1045F0002FA0FBF73DFE19A0AFE50120B0E50000BC
:104600002D2D2D2D2D2D2D2D2D2D2D2D2D2D2D2DDA
:104610002D2D2D2D2D2D2D2D2DBAAFCAFD20494428
:10462000202D2D2D2D2D2D2D2D2D2D2D2D2D2D2DC7
:104630002D2D2D2D2D2D2D2D2D2D2D2D200D0A0027
:1046400025732069642069733A0D0A305825303883
:10465000580D0A004845583A305825580D0A0000B0
:104660003136BDF8D6C6B2CECAFDCFD4CABE210DF2
:104670000A0000004445433A256C750D0A0000000D
:104680003130BDF8D6C6B2CECAFDCFD4CABE210DD8
:104690000A00000052756E2054696D652043616CFC
:1046A00063756C6174696F6E204F4E0D0A000000D7
:1046B00052756E2054696D652043616C63756C6141
:1046C00074696F6E204F46460D0A00000160704706
:1046D00000000000000000000000000000000000DA
:1046E0003F400000000000000000300040003000AB
:1046F0004000000009000BC03D000BC03D00090058
:1047000018C024407FE0224031800000180024C0FF
:104710001B000D803240018003801C4027401C801C
:104720000740004010006000000000000000000092
:104730000000000000001F802040402000004020BA
:1047400020401F8000000000090006001F800600B6
:1047500009000000040004003F8004000400000081
:1047600000100060000000000000000004000400D1
:1047700004000400040000000000004000000000ED
:1047800000000000002001C00600380040000000CA
:104790001F802040204020401F800000000010406B
:1047A0003FC000400000000018C0214022402440CB
:1047B0001840000010802040244024401B8000004E
:1047C00002000D0011003FC0014000003C80244069
:1047D00024402440238000001F8024402440344093
:1047E000038000003000200027C0380020000000B7
:1047F0001B802440244024401B8000001C0022C059
:10480000224022401F8000000000000008400000FD
:104810000000000000000000046000000000000034
:10482000000004000A001100208040400900090037
:10483000090009000900000000004040208011002C
:104840000A00040018002000234024001800000083
:104850001F802040274029401F400000004007C023
:1048600039000F0001C0004020403FC024402440D8
:104870001B8000001F80204020402040308000002E
:1048800020403FC0204020401F80000020403FC00B
:1048900024402E4030C0000020403FC024402E0065
:1048A000300000000F0010802040224033800200C2
:1048B00020403FC0040004003FC020402040204072
:1048C0003FC02040204000000060202020203FC04A
:1048D0002000200020403FC024400B0030C020407A
:1048E00020403FC020400040004000C03FC03C008E
:1048F00003C03C003FC0000020403FC00C402300EC
:104900003FC020001F802040204020401F8000002A
:1049100020403FC024402400180000001F80214098
:10492000214020E01FA0000020403FC0244026007E
:1049300019C0004018C024402440224031800000AB
:10494000300020403FC020403000000020003F8069
:10495000004000403F80200020003E0001C00700D2
:1049600038002000380007C03C0007C038000000B5
:10497000204039C0060039C02040000020003840E7
:1049800007C0384020000000304021C02640384099
:1049900020C00000000000007FE040204020000018
:1049A000000070000C000380004000000000402068
:1049B00040207FE0000000000000200040002000B8
:1049C0000000000000100010001000100010001087
:1049D0000000000040000000000000000000028015
:1049E0000540054003C0004020003FC00440044093
:1049F00003800000000003800440044006400000E3
:104A000000000380044024403FC0004000000380B9
:104A10000540054003400000000004401FC0244042
:104A200024402000000002E00550055006500420FC
:104A300020403FC00440040003C000400000044088
:104A400027C000400000000000100010041027E004
:104A50000000000020403FC00140070004C00440A7
:104A6000204020403FC000400040000007C004003C
:104A700007C0040003C00000044007C00440040055
:104A800003C0004000000380044004400380000095
:104A9000041007F00450044003800000000003806D
:104AA0000440045007F00010044007C00240040016
:104AB00004000000000006400540054004C000005E
:104AC000000004001F800440004000000400078034
:104AD0000040044007C000400400070004C00180FB
:104AE00006000400060001C0070001C00600000027
:104AF000044006C0010006C0044000000410071076
:104B000004E00180060004000000044005C00640E7
:104B1000044000000000000004007BE04020000092
:104B2000000000000000FFF0000000000000402036
:104B30007BE00400000000004000800040002000F6
:104B40002000400000000000000000000000000005
:104B5000000000000000000000001FCC000C00005E
:104B60000000000000000800300060000800300075
:104B700060000000022003FC1E20022003FC1E2017
:104B80000220000000000E1811043FFF10840C7872
:104B9000000000000F0010840F3800C00778188450
:104BA0000078000000780F8410C411240E9800E4EF
:104BB0000084000808006800700000000000000089
:104BC0000000000000000000000007E018182004AA
:104BD00040020000000040022004181807E0000016
:104BE000000000000240024001800FF001800240FE
:104BF000024000000080008000800FF800800080EC
:104C0000008000000001000D000E00000000000008
:104C10000000000000000080008000800080008014
:104C2000008000800000000C000C0000000000006C
:104C3000000000000000000600180060018006006F
:104C400018002000000007F00808100410040808ED
:104C500007F000000000080408041FFC0004000422
:104C60000000000000000E0C1014102410441184E9
:104C70000E0C000000000C1810041104110412881E
:104C80000C700000000000E00320042408241FFC36
:104C90000024000000001F981084110411041088E3
:104CA00010700000000007F0088811041104188833
:104CB0000070000000001C00100010FC13001C001D
:104CC0001000000000000E381144108410841144BC
:104CD0000E38000000000700088C104410440888BB
:104CE00007F00000000000000000030C030C0000AF
:104CF00000000000000000000001010600000000AC
:104D0000000000000000008001400220041008089C
:104D100010040000022002200220022002200220B3
:104D200002200000000010040808041002200140C6
:104D30000080000000000E001200100C106C1080AB
:104D40000F00000003E00C1813E4142417C4082813
:104D500007D000000004003C03C41C40074000E4EE
:104D6000001C000410041FFC1104110411040E881F
:104D70000070000003E00C18100410041004100868
:104D80001C10000010041FFC10041004100408087C
:104D900007F0000010041FFC1104110417C41004D4
:104DA0000818000010041FFC1104110017C01000A7
:104DB0000800000003E00C181004100410441C78D4
:104DC0000040000010041FFC10840080008010844C
:104DD0001FFC10040000100410041FFC1004100439
:104DE0000000000000030001100110011FFE100070
:104DF0001000000010041FFC110403801464181C30
:104E00001004000010041FFC10040004000400043F
:104E1000000C000010041FFC1F0000FC1F001FFC02
:104E20001004000010041FFC0C04030000E0101824
:104E30001FFC100007F008081004100410040808F4
:104E400007F0000010041FFC1084108010801080F8
:104E50000F00000007F0081810241024101C080A86
:104E600007F2000010041FFC1104110011C01130E2
:104E70000E0C000400000E1C110410841084104459
:104E80001C3800001800100010041FFC1004100053
:104E90001800000010001FF81004000400041004A3
:104EA0001FF8100010001E0011E0001C007013809D
:104EB0001C0010001FC0103C00E01F0000E0103C70
:104EC0001FC000001004180C163401C001C01634B5
:104ED000180C100410001C00130400FC13041C0028
:104EE000100000000804101C1064108413041C043B
:104EF000101800000000000000007FFE4002400289
:104F000040020000000030000C0003800060001C24
:104F10000003000000004002400240027FFE00004B
:104F200000000000000000002000400040004000A1
:104F3000200000000001000100010001000100014B
:104F400000010001000040004000200000000000BF
:104F500000000000000000980124014401440144C5
:104F600000FC000410001FFC0088010401040088FC
:104F700000700000000000700088010401040104BA
:104F8000008800000000007000880104010411087E
:104F90001FFC0004000000F80144014401440144E6
:104FA00000C800000000010401040FFC11041104FA
:104FB00011001800000000D601290129012901C9AA
:104FC0000106000010041FFC008401000100010420
:104FD00000FC000400000104190419FC0004000492
:104FE000000000000000000300010101190119FE8A
:104FF0000000000010041FFC0024004001B4010C5C
:10500000010400000000100410041FFC0004000450
:1050100000000000010401FC0104010001FC010486
:10502000010000FC010401FC0084010001000104F6
:1050300000FC0004000000F8010401040104010464
:1050400000F80000010101FF00850104010400884F
:1050500000700000000000700088010401040105D8
:1050600001FF00010104010401FC008401040100AE
:1050700001800000000000CC01240124012401244F
:105080000198000000000100010007F8010401047C
:1050900000000000010001F8000400040004010801
:1050A00001FC0004010001800170000C001001608F
:1050B0000180010001F0010C003001C00030010C42
:1050C00001F0010000000104018C00740170018CEA
:1050D00001040000010101810171000E001801604E
:1050E0000180010000000184010C013401440184AD
:1050F000010C0000000000000000000001003EFC68
:10510000400240020000000000000000FFFF00001D
:10511000000000000000400240023EFC01000000D0
:10512000000000000000600080008000400040009F
:10513000200020000000000000000000000000002F
:10514000000000000000000000000000000000005F
:10515000000000000000000000000000000000004F
:10516000000000000000000F80380FFE380F80386C
:10517000000000000000000000000000000000002F
:1051800000000100000600000C00003800003100A3
:10519000000600000C000038000030000000000095
:1051A0000000000061800067F807F980006180005E
:1051B00061800061800061800067F807F98000610C
:1051C0008000000000000000000001C0E003E0F0EB
:1051D0000630080418081FFFFE040E080787F003B6
:1051E00081E000000000000001F000060C00040453
:1051F00008060C7001F9C0000E00003BE000EC183E
:10520000070808040C180003E00000000001E0009B
:1052100007F003F818041C0804170807E1D003C0BE
:10522000E00023B0003C080020080000100000004F
:105230000000000100003100003200001C000000EE
:10524000000000000000000000000000000000005E
:10525000000000000000000000000000000000004E
:10526000000000007F0001FFC00780F00C00181054
:1052700000042000020000000000002000021000D6
:10528000040C00180780F001FFC0007F0000000040
:10529000000000000000000000000000000000000E
:1052A0004200006600006600003C0000180003FF9A
:1052B000C0001800003C00006600006600004200CC
:1052C00000000000080000080000080000080000BE
:1052D000080001FFC00008000008000008000008E6
:1052E0000000080000000000000100003100003252
:1052F00000001C0000000000000000000000000092
:10530000000000000000000000000000080000088D
:105310000000080000080000080000080000080065
:105320000008000008000008000000000000000065
:1053300000000000380000380000380000000000C5
:10534000000000000000000000000000000000005D
:1053500000000000000600001C000070000180003A
:105360000E0000380000C0000700001C00003000E4
:1053700000000000000000007F8001FFE00380705B
:1053800006001804000804000806001803807001D5
:10539000FFE0007F8000000000000000000001002E
:1053A0000801000801000803FFF807FFF8000008E3
:1053B00000000800000800000000000000000001DC
:1053C000C03802C0580400980401180402180404EC
:1053D00018061C1803F81801E0F80000000000008F
:1053E00000000001C0E003C0F00400080408080445
:1053F000080806180803F41801E7F00001E00000AF
:1054000000000000000000000300000D000011007B
:1054100000610000810803010807FFF80FFFF80092
:1054200001080001080000000000000000E007FC87
:10543000D0060808061008061008061008061838D6
:10544000060FF00607C0000000000000000000008A
:105450003F8001FFE00384300208180410080410A4
:1054600008041008071810030FF00007C000000020
:1054700000000000000003C0000700000600000656
:1054800000F80607F806180006E00007000006000E
:105490000000000000000001E1E003F7F006341016
:1054A000041808041808040C08040C08061618034D
:1054B000F3F001C1E000000000000000F80003FC70
:1054C0003003063804020804020804020804041029
:1054D0000308F001FFC0007F000000000000000092
:1054E00000000000000000000000000070380070A4
:1054F00038007038000000000000000000000000CC
:10550000000000000000000000000000000000009B
:10551000301A00301C0000000000000000000000F5
:10552000000000000000000000000008000014005F
:1055300000220000410000808001004002002004A1
:1055400000100800080000000000000021000021F9
:1055500000002100002100002100002100002100A6
:1055600000210000210000210000000000000000D8
:105570000000080008040010020020010040008024
:10558000800041000022000014000008000000001C
:1055900000000003C00004C0000400000800380838
:1055A0000F380808380810000C300007E00003C06E
:1055B00000000000000000003F8000FFE00380705A
:1055C000020F1006708804C088048308047F8802D4
:1055D000C09003012000FE400000080000180001F8
:1055E000F8003E0801C20007020007E20000FE00CA
:1055F000001FC80001F80000380000080400080778
:10560000FFF807FFF804080804080804080804085D
:105610000806180803F41801E7F00001E000000094
:10562000000000003F8001FFE003807002001804CA
:105630000008040008040008040010060020078089
:10564000C000000004000807FFF807FFF804000886
:105650000400080400080400180200100380700110
:10566000FFE0007F8000000004000807FFF807FF4C
:10567000F8040808040808040808040808043E0898
:10568000040008060018010060000000040008077C
:10569000FFF807FFF80408080408000408000408DD
:1056A00000043E000600000600000180000000002B
:1056B000000000003F8001FFE00380700600180436
:1056C00000080402080402080203F00783F0000245
:1056D0000000020004000807FFF807FFF8040808AC
:1056E000000800000800000800000800040808077F
:1056F000FFF807FFF80400080000000000000400A5
:105700000804000804000807FFF807FFF804000871
:105710000400080400080000000000000000000071
:10572000000600000700000104000104000104005D
:105730000307FFFE07FFFC04000004000004000054
:1057400004000807FFF807FFF8040C080018000021
:105750003E0004C7800503C80600F80400380400B2
:105760001800000804000807FFF807FFF804000805
:105770000000080000080000080000080000080001
:10578000001800006000000004000807FFF8078010
:105790000807FC00007FC00003F80007C000780085
:1057A00007800807FFF807FFF8040008040008074F
:1057B000FFF807000803C00000E000003800001EEA
:1057C000000007000001C00400F007FFF80400001B
:1057D000000000007F8001FFE003807006001804D5
:1057E000000804000806001803003001FFE0007FF5
:1057F0008000000004000807FFF807FFF804040811
:10580000040400040400040400040400060C000363
:10581000F80001F000000000000000007F8001FFA0
:10582000E00380700600880400880400C806003C7D
:1058300003003E01FFE6007F84000000040008072B
:10584000FFF807FFF8040808040800040C00040F20
:1058500000040BC00610F003F03801E00800000857
:1058600000000001E0F803F03006301004180804CE
:105870001808040C08040C080206180207F0078137
:10588000E0000000018000060000040000040000A9
:1058900004000807FFF807FFF804000804000004EC
:1058A000000006000001800004000007FFE007FF81
:1058B000F0040018000008000008000008000008BC
:1058C00000000804001007FFE004000004000006C8
:1058D000000007E00007FE00041FE00001F80000E0
:1058E000380001E0043E0007C0000600000400008C
:1058F00004000007E00007FFC0041FF80007C0070E
:10590000F80007FF80043FF80007C004F800070014
:105910000004000000000004000806001807C0781A
:1059200005F1C8003E00001F800463E80780F80608
:1059300000180400080000000400000600000780B2
:105940000007E008047C08001FF80007F8001808AA
:1059500004E0080700000600000400000000000149
:1059600000080600380400F80403E8040F08047C6B
:105970000805F00807C008070018040060000000D0
:105980000000000000000000000000000000003FD8
:10599000FFFE200002200002200002200002200062
:1059A00002000000000000000000080000070000E6
:1059B00000C0000038000006000001C000003000F8
:1059C000000E0000010000000000000000002000A8
:1059D000022000022000022000022000023FFFFE01
:1059E00000000000000000000000000000000000B7
:1059F000000000000008000010000030000020003F
:105A0000003000001000000800000000000000004E
:105A10000000010000010000010000010000010081
:105A20000001000001000001000001000001000071
:105A30000100000100000000000000000020000044
:105A40002000001000001000000000000000000016
:105A500000000000000000000000000000F000193D
:105A6000F8001B1800220800260800240800241053
:105A7000003FF8001FF800000800001800000004B4
:105A8000000007FFF80FFFF00018180010080020B2
:105A900008002008003018001FF0000FC0000000B0
:105AA0000000000007C0001FF000183000200800B0
:105AB0002008002008003C08001C100000600000C6
:105AC000000000000000000007C0001FF0003818B0
:105AD00000200800200800200804101007FFF80F1D
