:020000040800F2
:100000001808002045010008290A0008250A0008F0
:10001000270A0008070200088D0E000800000000F3
:10002000000000000000000000000000F30D0008C8
:100030000902000800000000F10D0008F50D00089D
:100040005F0100085F0100085F0100085F01000810
:100050005F0100085F0100085F0100085F01000800
:100060005F0100085F0100085F0100085F010008F0
:100070005F0100085F0100085F0100085F010008E0
:100080005F0100085F0100085F0100085F010008D0
:100090005F0100085F0100085F0100085F010008C0
:1000A0005F0100085F0100085F0100085F010008B0
:1000B0005F0100085F0100085F0100085F010008A0
:1000C0005F0100085F0100085F0100085F01000890
:1000D0005F0100085F0100085F0100085F01000880
:1000E0005F0100085F0100085F0100085F01000870
:1000F0005F0100085F0100085F0100085F01000860
:100100005F0100085F0100085F0100085F0100084F
:100110005F0100085F0100085F0100085F0100083F
:100120005F0100085F0100085F0100085F0100082F
:10013000DFF80CD000F02AF800480047F50E000860
:10014000180800200648804706480047FEE7FEE7FB
:10015000FEE7FEE7FEE7FEE7FEE7FEE7FEE7FEE777
:10016000450E000831010008D2B201E000F8012B71
:10017000491EFBD270470022F6E710B513460A4627
:1001800004461946FFF7F0FF204610BD064C074D08
:1001900006E0E06840F0010394E807009847103457
:1001A000AC42F6D3FFF7C8FFAC150008CC15000829
:1001B00070B58C1810F8015B15F0070301D110F829
:1001C000013B2A1106D110F8012B03E010F8016B56
:1001D00001F8016B5B1EF9D12B0705D40023521ED9
:1001E0000DD401F8013BFAE710F8013BCB1A921C41
:1001F00003E013F8015B01F8015B521EF9D5A1423F
:10020000D8D3002070BDFEE7704700002DE9F84FFD
:10021000DFF8B8A100220AF1040B144601274FF0C1
:100220000F090BF1040E00BF0B6807FA04F52B4011
:10023000AB4274D1DFF898C14E68A6EB0C08664556
:100240002BD00DDC032E34D005DC36B3012E19D0B3
:10025000022E2FD11BE0112E16D0122E2AD119E01A
:10026000B8F5881F19D006DCB8F5803F15D0B8F571
:10027000801F1FD111E0B8F5001F0ED0B8F5041F84
:1002800018D10AE0CA6815E0CA68121D12E0CA68EF
:1002900008320FE0CA680C320CE08A682AB1012AE1
:1002A0004FF0080203D0456104E0042202E005613A
:1002B00000E00022FF2B01D8064601E000F1040611
:1002C0004FEA840501D9A5F12005D6F800C009FA46
:1002D00005F82CEA080C02FA05F54CEA050CC6F8FC
:1002E00000C04D68ED006AD53A4DAE6946F0010692
:1002F000AE61AD6924F0030605F001050095364DA9
:1003000006EB050CDCF80850A6074FEA167809FA48
:1003100008F6B543314EB04202D100261AE04EE055
:100320002F4EB04201D1012614E02E4EB04201D131
:1003300002260FE02C4EB04201D103260AE02B4EDC
:10034000B04201D1042605E0294EB04201D1052674
:1003500000E0062606FA08F62E43CCF808604D6841
:10036000DAF80060ED03554601D51E4300E09E43D8
:100370002E604D68AD0305D5DBF800601E43CBF859
:10038000006004E0DBF800509D43CBF800504D685E
:10039000DEF80060ED02754601D51E4300E09E4385
:1003A0002E604D68AD0205D5084D0C352E681E43F4
:1003B0002E6004E0054E0C3635689D433560641CA4
:1003C000102CFFF431AFBDE8F88F000000040140AD
:1003D0000000111000100240000001400008014020
:1003E000000C0140001001400014014000180140C1
:1003F000001C01400AB1016170470904FBE70000DD
:1004000001488068704700000800002002488168A9
:10041000027811448160704708000020074810B539
:10042000016841F010010160032000F067F800202E
:1004300000F006F800F024F8002010BD0020024073
:1004400070B50D4D04464FF47A712878B1FBF0F089
:100450000A490968B1FBF0F000F0D0FA48B9102C55
:1004600007D200222146501E00F028F800206C60C0
:1004700070BD012070BD00000800002014000020A5
:100480000C4808B5816941F001018161816901F081
:1004900001010091C16941F08051C161C06900F062
:1004A000805000900448416821F0E06141F0806193
:1004B000416008BD0010024000000140F0B40E4B46
:1004C0001B680C46C3F30223C3F10705042D00D9B2
:1004D0000425191D072901D2002300E0DB1E012697
:1004E00006FA05F1491E214099409E40761E1640AD
:1004F0003143F0BC00F099BA0CED00E0064900F081
:10050000070208684FF6FF03184040EA0220034A3A
:1005100010430860704700000CED00E00000FA0591
:100520002DE9F047DFF8548105460E46D8F8000063
:1005300000F00700B0420CD2D8F8001021F00701FB
:100540003143C8F80010D8F8000000F00700B042AE
:100550006FD128684A4C810712D5400703D56068DF
:1005600040F4E06060602878000703D5606840F4DC
:10057000605060606068A96820F0F0000843606027
:100580002878C00744D06868012816D0216802285E
:1005900016D0890700294CDA616821F00301014374
:1005A0006160FFF72DFF6968074641F28830012935
:1005B0000ED00229814618D026E021688903E9E798
:1005C0008901E7E7FFF71CFFC11B494501D918E086
:1005D00081466068C0F381000128F3D118E000BFB4
:1005E000FFF70EFFC11B49450BD86068C0F38100BF
:1005F0000228F5D10CE000BFFFF702FFC11B4945FF
:1006000002D90320BDE8F087606810F00C0FF3D129
:10061000D8F80010404601F00701B1420BD901683B
:1006200021F0070131430160006800F00700B0428B
:1006300001D00120E6E72878400705D56068E96821
:1006400020F4E060084360602878000706D5606801
:10065000296920F4605040EAC100606000F016F89B
:100660006168084AC1F30311515CC840064908603B
:100670000020FFF7E5FE0020C4E700000020024054
:10068000001002409C1500081400002012A185B043
:100690000FC98DE80F0014A0144A00680490516837
:1006A000134801F00C03042B10D0082B0ED1C1F31A
:1006B0008343C9031DF803000AD5516804AAC1F396
:1006C0004041515C0A4A5043B0FBF1F005B070471D
:1006D00008494843FAE70000020304050607080931
:1006E0000A0B0C0D0E0F101001020000001002404A
:1006F00000127A0000093D002DE9F84F0446007809
:10070000B94DC00748D06868C0F38100012807D000
:100710006868C0F38100022809D16868C00306D563
:100720002868800338D5606800286FD034E060689E
:10073000B0F5803F0BD010B1B0F5A02F11D02868D4
:1007400020F480302860286820F4802002E02868A7
:1007500040F480302860606888B1FFF751FE06469B
:1007600009E0286840F480202860F0E7FFF748FEA1
:10077000801B642875D828688003F7D50CE0FFF744
:100780003FFE064605E000BFFFF73AFE801B6428E7
:10079000F0D828688003F7D42078944E80074FF073
:1007A00001094FF000083BD5686810F00C0F07D026
:1007B0006868C0F38100022809D16868C00306D4C4
:1007C0002868800714D5206901281FD110E020690E
:1007D000B0B1C6F80090FFF713FE074605E000BF72
:1007E000FFF70EFEC01B0228C4D828688007F7D583
:1007F0002868616920F0F80040EAC10028600FE035
:10080000C6F80080FFF7FCFD074606E0E9E000BF00
:10081000FFF7F6FDC01B022823D828688007F7D40D
:10082000207800072CD57248A169D9B1C0F8009092
:10083000FFF7E6FD074604E0FFF7E2FDC01B0228D4
:100840000FD8686A8007F7D56A484FF4FA510068F4
:10085000B0FBF1F0009000BF0098411E0091FAD269
:100860000EE080E0C0F80080FFF7CAFD074604E014
:10087000FFF7C6FDC01B022875D8686A8007F7D449
:100880002078400760D5E8690027C00008D4E869EF
:1008900040F08050E861E869012700F08050009046
:1008A00055480168C90513D40168834641F4807135
:1008B0000160FFF7A5FD824606E000BFFFF7A0FD3F
:1008C000A0EB0A0064284ED8DBF80000C005F5D57F
:1008D000E06801280AD008B1052813D0286A20F062
:1008E00001002862286A20F0040002E0286A40F033
:1008F00001002862E06841F2883B98B1FFF780FD73
:1009000082460BE0286A40F004002862EEE700BF50
:10091000FFF776FDA0EB0A0159455AD8286A8007EF
:10092000F6D50CE0FFF76CFD824605E0FFF768FDA9
:10093000A0EB0A0159454CD8286A8007F6D41FB1AC
:10094000E86920F08050E861E06988B36968C1F324
:100950008101022945D00228C6F8608004D0FFF743
:100960004FFD044638E034E0FFF74AFD074604E057
:10097000FFF746FDC01B02282BD828688001F7D45A
:10098000206AB0F5803F05D16868A16820F4003086
:1009900008436860D4E908010843696821F47411C8
:1009A00008436860C6F86090FFF72AFD044606E039
:1009B00015E000BFFFF724FD001B022809D82868B6
:1009C0008001F7D50BE000BFFFF71AFD001B0228DE
:1009D00002D90320BDE8F88F28688001F4D40020F4
:1009E000F8E70120F6E70000001002400000424254
:1009F00080044242140000200070004010B5401EE8
:100A0000B0F1807F01D3012010BD4FF0E024606180
:100A10000F21601700F009F80020A0610720206175
:100A2000002010BDFEE7FEE770470907090E002809
:100A300006DA00F00F0000F1E02080F8141D704786
:100A400000F1E02080F80014704770B5002404F134
:100A5000B000C0B2002100F08BF90021084600F080
:100A600087F90021102000F083F9002501210020E2
:100A700000F07EF96D1CEDB2802DF7D3641CE4B25A
:100A8000082CE4D370BD2DE9F047984617468246FE
:100A900000260C46DDF8209011E02146504600F07B
:100AA000D5F8554607E019F806000121761C00F03C
:100AB0005FF96D1CEDB2BD42F5D3641CE4B2444550
:100AC000EBD3BDE8F08700002DE9F0415B4886B02C
:100AD000816941F008018161816901F00801049197
:100AE000816941F004018161816901F0040104918F
:100AF000816941F01001816180694FF4304400F058
:100B0000100004900120CDE9004002900320DFF89E
:100B10003081039069464046FFF778FB4020494EFC
:100B2000009069463046FFF771FB474FB51569469F
:100B300038460095FFF76AFB012221464046FFF741
:100B400059FC012240213046FFF754FC012229467E
:100B50003846FFF74FFC0021AE2000F009F90021D4
:100B6000084600F005F90021102000F001F90021ED
:100B7000202000F0FDF80021022000F0F9F800210B
:100B8000402000F0F5F80021812000F0F1F800216C
:100B9000CF2000F0EDF80021A12000F0E9F80021BD
:100BA000C82000F0E5F80021A62000F0E1F80021BF
:100BB000A82000F0DDF800213F2000F0D9F8002146
:100BC000D32000F0D5F80021084600F0D1F800212C
:100BD000D52000F0CDF80021802000F0C9F80021D8
:100BE000D92000F0C5F80021F12000F0C1F8002163
:100BF000DA2000F0BDF80021122000F0B9F8002141
:100C0000DB2000F0B5F80021402000F0B1F8002111
:100C10008D2000F0ADF80021142000F0A9F800218B
:100C2000A42000F0A5F80021A62000F0A1F80021E2
:100C3000AF2000F09DF806B0BDE8F0810010024042
:100C4000000C0140001001400008014010B50446AE
:100C5000B031C8B2002100F08BF8102040EA141027
:100C6000002100F085F804F00F00BDE8104040F0CE
:100C70000100002100F07CB82DE9F041203A002469
:100C80000D468046D7B27F2803D900208D1C8046B0
:100C9000EDB22946FFF7DAFF0F4E00BF04EB071055
:100CA0000121305C00F064F8641CE4B2082CF5D338
:100CB0006D1CE9B24046FFF7C9FF002404EB0710A2
:100CC00030440121007A00F053F8641CE4B2082C8F
:100CD000F4D3BDE8F0810000AC0F00082DE9F04727
:100CE0008046002608981D4691468A4634464708A5
:100CF00021E0281B401EC1B20A2000F04FF9B9FBC9
:100D0000F0F00A21B0FBF1F201FB120026B9691ED6
:100D10008C4201DA30B101263030C2B207FB0480C8
:100D2000C0B203E007FB0480C0B220225146FFF7A7
:100D3000A3FF641CE4B2AC42DBD3BDE8F0872DE92D
:100D4000F04117460E46044600250CE03146204689
:100D5000FFF792FF0834E4B2782C02D90024B61CC5
:100D6000F6B26D1CEDB27A5D002AEFD1BDE8F081DC
:100D70002DE9F0471C4E0C4605464FF4805A0022E0
:100D800051463046FFF736FBDFF860800CB1012298
:100D900000E0002240214046FFF72CFB80244FF466
:100DA0000049A701002239463046FFF723FB2542C0
:100DB00001D0012200E0002249463046FFF71AFB2D
:100DC000012239463046FFF715FB6408EAD10122BB
:100DD00051463046FFF70EFB4046BDE8F047012282
:100DE0004021FFF707BB0000000C0140001001404C
:100DF00070477047FFF70ABB30B58FB028216846AF
:100E0000FFF7B9F914210AA8FFF7B5F90224012068
:100E1000049000941020059000254FF46010CDE957
:100E2000085007946846FFF767FC0AA90F2081E87D
:100E300031006002CDE90D0502210AA8FFF770FB21
:100E40000FB030BD0D48016841F0010101604168FB
:100E50000B4A1140416001680A4A11400160016873
:100E600021F480210160416821F4FE0141604FF4CA
:100E70001F0181600449C0030860704700100240F0
:100E80000000FFF8FFFFF6FE08ED00E0FEE702E0DD
:100E900008C8121F08C1002AFAD170477047002005
:100EA00001E001C1121F002AFBD170474FF0E02181
:100EB0000A6922F004020A610349C0084FF47A72F9
:100EC0000870504348607047000000200849496896
:100ED00048434FF0E02148610020886101220A6107
:100EE0000A69D30701D0D203FAD508618861704737
:100EF0000000002008B50027FFF790FAFFF77CFFFD
:100F00004020FFF7D3FFFFF7DFFDFFF79EFD1EA296
:100F100000212020FFF713FF312205212020FFF7B9
:100F2000ABFE4FF47A742046FFF7D0FF2046FFF760
:100F3000CDFF2046FFF7CAFFFFF787FD15480021C8
:100F40000090082380220846FFF79DFD2046FFF70A
:100F5000BDFF2046FFF7BAFFFFF777FD1025DFF84A
:100F600038802E013A46781CC7B2012300213F2069
:100F70000095FFF7B3FE002231464046FFF73AFAEC
:100F80002046FFF7A3FFEDE74F6C6564207465739F
:100F900074000000180000200008014002460120F3
:100FA00000E05043491EC9B2FBD270470000000068
:100FB000000000000000000000000000000000F839
:100FC00000000000000000333000000000100C069C
:100FD000100C0600000000000000000040C0784037
:100FE000C0784000043F04043F040400007088FC03
:100FF00008300000001820FF211E0000F008F0005B
:10100000E018000000211C031E211E0000F00888CB
:10101000700000001E2123241927211010160E0035
:10102000000000000000000000000000000000E0E0
:1010300018040200000000071820400000020418F5
:10104000E00000000040201807000000404080F051
:10105000804040000202010F01020200000000F087
:10106000000000000101011F01010100000000005B
:101070000000000080B070000000000000000000D0
:101080000000000000010101010101010000000059
:1010900000000000003030000000000000000000F0
:1010A00080601804006018060100000000E01008CD
:1010B0000810E000000F102020100F00001010F8A2
:1010C000000000000020203F2020000000700808E1
:1010D0000888700000302824222130000030088861
:1010E000884830000018202020110E000000C02089
:1010F00010F8000000070424243F240000F80888AA
:10110000880808000019212020110E0000E0108836
:1011100088180000000F112020110E000038080868
:10112000C83808000000003F000000000070880878
:1011300008887000001C222121221C0000E01008F9
:101140000810E0000000312222110F00000000C052
:10115000C0000000000000303000000000000080EF
:1011600000000000000080600000000000008040DF
:1011700020100800000102040810200040404040F8
:10118000404040000404040404040400000810204B
:101190004080000000201008040201000070480890
:1011A0000808F0000000003036010000C030C828F8
:1011B000E810E0000718272423140B000000C038B3
:1011C000E0000000203C23020227382008F888882D
:1011D00088700000203F202020110E00C030080839
:1011E00008083800071820202010080008F8080810
:1011F0000810E000203F202020100F0008F8888809
:10120000E8081000203F20202320180008F88888D4
:10121000E8081000203F200003000000C03008084C
:101220000838000007182020221E020008F80800D5
:101230000008F808203F210101213F20000808F89C
:10124000080800000020203F2020000000000808BF
:10125000F8080800C08080807F00000008F888C07F
:1012600028180800203F20012638200008F8080030
:1012700000000000203F20202020300008F8F80067
:10128000F8F80800203F003F003F200008F830C079
:101290000008F808203F200007183F00E010080869
:1012A0000810E0000F10202020100F0008F8080898
:1012B0000808F000203F210101010000E0100808AB
:1012C0000810E0000F18242438504F0008F88888D0
:1012D00088887000203F2000030C302000708808B0
:1012E000080838000038202121221C00180808F8BE
:1012F000080818000000203F2000000008F808003F
:101300000008F808001F202020201F00087888000F
:1013100000C83808000007380E010000F80800F87F
:101320000008F800033C0700073C03000818688029
:101330008068180820302C03032C30200838C8009F
:10134000C83808000000203F2000000010080808EE
:10135000C83808002038262120201800000000FE90
:10136000020202000000007F40404000000C30C03C
:1013700000000000000000010638C0000002020268
:10138000FE000000004040407F000000000004021A
:101390000202040000000000000000000000000045
:1013A0000000000080808080808080800002020435
:1013B000000000000000000000000000000080802D
:1013C000808000000019242222223F2008F800809B
:1013D00080000000003F112020110E00000000805E
:1013E00080800000000E11202020110000000080ED
:1013F0008088F800000E112020103F20000080801F
:1014000080800000001F222222221300008080F032
:10141000888888180020203F20200000000080805D
:1014200080808000006B94949493600008F80080A2
:1014300080800000203F210000203F2000809898FD
:10144000000000000020203F20200000000000805D
:101450009898000000C08080807F000008F800009D
:1014600080808000203F24022D302000000808F8F2
:10147000000000000020203F2020000080808080AD
:1014800080808000203F20003F20003F808000803F
:1014900080800000203F210000203F20000080804D
:1014A00080800000001F202020201F0080800080FE
:1014B0008000000080FFA12020110E0000000080AD
:1014C00080808000000E112020A0FF80808080009E
:1014D0008080800020203F212000010000008080CB
:1014E000808080000033242424241900008080E0C0
:1014F000808000000000001F20200000808000008D
:1015000000808000001F202020103F20808080006D
:101510000080808000010E3008060100808000807D
:10152000008080800F300C030C300F0000808000A2
:10153000808080000020312E0E31200080808000CD
:101540000080808080818E7018060100008080807D
:10155000808080000021302C22213000000000001B
:10156000807C020200000000003F404000000000BC
:10157000FF00000000000000FF0000000002027CED
:10158000800000000040403F000000000006010114
:10159000020204040000000000000000000000003F
:1015A000000000000102030406070809CC1500082A
:1015B0000000002018040000B0010008D416000844
:1015C00018040020000400009E0E000881320182F1
:1015D0001014A24A04100A03050911FF118905C35A
:1015E00012E012F072F8073D4428FF11AA44700B74
:1015F000830138448292927401831E7C44FF017DF2
:101600000199056AFF95890279A9890B013669411B
:101610009949FA010101204BF808011135F81860C9
:101620008035806018F82B202006312BE0101EAB8F
:1016300010E014613937043E8868186A7FA71A7F62
:10164000BE4C0618060A114640407F40401C1F2031
:101650004001AB201F141162603A602F01441E400C
:10166000202020C0ED190729EA2A4005115A600EF2
:101670008918792959070149260C0A0A090C360FDD
:101680000808080F2C080F08151D0809090E07196E
:10169000181C09090918190A5929590701605A80A3
:1016A00001013D20087F030C300C037F2538545482
:1016B00058257C04047805223C40407C17FFAAAAE8
:1016C000AA28080A2CFF681E26494949321016022A
:0416D0000408107F7B
:0400000508000131BD
:00000001FF
