:020000040800F2
:100000007004002045010008230D0008CD0C0008F5
:10001000210D0008B101000899140008000000003B
:10002000000000000000000000000000FF130008B6
:10003000B301000800000000ED12000801140008E0
:100040005F0100085F0100085F0100085F01000810
:100050005F0100085F0100085F0100085F01000800
:100060005F0100085F0100085F0100085F010008F0
:100070005F0100085F0100085F0100085F010008E0
:100080005F0100085F0100085F0100085F010008D0
:100090005F0100085F0100085F0100085F010008C0
:1000A0005F0100085F0100085F0100085F010008B0
:1000B0005F0100085F0100085F0100085F010008A0
:1000C0005F0100085F0100085F0100085F01000890
:1000D0005F0100085F0100085F0100085F01000880
:1000E0005F0100085F0100085F0100085F01000870
:1000F0005F0100085F0100085F0100085F01000860
:100100005F0100085F0100085F0100085F0100084F
:100110005F0100085F0100085F0100085F0100083F
:100120005F0100085F0100085F0100085F0100082F
:10013000DFF80CD000F02AF800480047D914000876
:10014000700400200648804706480047FEE7FEE7A7
:10015000FEE7FEE7FEE7FEE7FEE7FEE7FEE7FEE777
:100160005114000831010008D2B201E000F8012B5F
:10017000491EFBD270470022F6E710B513460A4627
:1001800004461946FFF7F0FF204610BD064C074D08
:1001900006E0E06840F0010394E807009847103457
:1001A000AC42F6D3FFF7C8FFEC1B00080C1C00089C
:1001B000FEE770472DE9F84FDFF8B8A100220AF1F9
:1001C000040B144601274FF00F090BF1040E00BF7A
:1001D0000B6807FA04F52B40AB4274D1DFF898C1E5
:1001E0004E68A6EB0C0866452BD00DDC032E34D0F0
:1001F00005DC36B3012E19D0022E2FD11BE0112EB3
:1002000016D0122E2AD119E0B8F5881F19D006DCB5
:10021000B8F5803F15D0B8F5801F1FD111E0B8F5B3
:10022000001F0ED0B8F5041F18D10AE0CA6815E007
:10023000CA68121D12E0CA6808320FE0CA680C32A0
:100240000CE08A682AB1012A4FF0080203D0456108
:1002500004E0042202E0056100E00022FF2B01D847
:10026000064601E000F104064FEA840501D9A5F134
:100270002005D6F800C009FA05F82CEA080C02FAA5
:1002800005F54CEA050CC6F800C04D68ED006AD5CE
:100290003A4DAE6946F00106AE61AD6924F0030641
:1002A00005F001050095364D06EB050CDCF808500D
:1002B000A6074FEA167809FA08F6B543314EB04260
:1002C00002D100261AE04EE02F4EB04201D10126A5
:1002D00014E02E4EB04201D102260FE02C4EB04267
:1002E00001D103260AE02B4EB04201D1042605E0DD
:1002F000294EB04201D1052600E0062606FA08F68E
:100300002E43CCF808604D68DAF80060ED035546DE
:1003100001D51E4300E09E432E604D68AD0305D518
:10032000DBF800601E43CBF8006004E0DBF800500F
:100330009D43CBF800504D68DEF80060ED02754635
:1003400001D51E4300E09E432E604D68AD0205D5E9
:10035000084D0C352E681E432E6004E0054E0C3609
:1003600035689D433560641C102CFFF431AFBDE847
:10037000F88F00000004014000001110001002403E
:100380000000014000080140000C01400010014045
:100390000014014000180140001C01400AB1016135
:1003A00070470904FBE700000148806870470000BF
:1003B000080000200248816802781144816070477B
:1003C00008000020074810B5016841F010010160E5
:1003D000032000F067F8002000F006F800F024F891
:1003E000002010BD0020024070B50D4D04464FF4B2
:1003F0007A712878B1FBF0F00A490968B1FBF0F096
:1004000000F050FC48B9102C07D200222146501EA3
:1004100000F028F800206C6070BD012070BD000065
:1004200008000020140000200C4808B5816941F044
:1004300001018161816901F001010091C16941F00F
:100440008051C161C06900F080500090044841684B
:1004500021F0E06141F08061416008BD0010024080
:1004600000000140F0B40E4B1B680C46C3F302239E
:10047000C3F10705042D00D90425191D072901D250
:10048000002300E0DB1E012606FA05F1491E21408B
:1004900099409E40761E16403143F0BC00F064BD8A
:1004A0000CED00E0064900F0070208684FF6FF0374
:1004B000184040EA0220034A1043086070470000D9
:1004C0000CED00E00000FA052DE9F047DFF854815B
:1004D00005460E46D8F8000000F00700B0420CD2E6
:1004E000D8F8001021F007013143C8F80010D8F8FF
:1004F000000000F00700B0426FD128684A4C810725
:1005000012D5400703D5606840F4E0606060287849
:10051000000703D5606840F4605060606068A968B7
:1005200020F0F000084360602878C00744D0686875
:10053000012816D02168022816D0890700294CDA34
:10054000616821F0030101436160FFF72DFF6968D5
:10055000074641F2883001290ED00229814618D081
:1005600026E021688903E9E78901E7E7FFF71CFF37
:10057000C11B494501D918E081466068C0F381007C
:100580000128F3D118E000BFFFF70EFFC11B49455A
:100590000BD86068C0F381000228F5D10CE000BFE1
:1005A000FFF702FFC11B494502D90320BDE8F087D0
:1005B000606810F00C0FF3D1D8F80010404601F03D
:1005C0000701B1420BD9016821F0070131430160F5
:1005D000006800F00700B04201D00120E6E728786B
:1005E000400705D56068E96820F4E0600843606072
:1005F0002878000706D56068296920F4605040EA31
:10060000C100606000F016F86168084AC1F3031188
:10061000515CC840064908600020FFF7E5FE002055
:10062000C4E700000020024000100240DA1B00086E
:100630001400002012A185B00FC98DE80F0014A08E
:10064000144A006804905168134801F00C03042B0D
:1006500010D0082B0ED1C1F38343C9031DF803004A
:100660000AD5516804AAC1F34041515C0A4A50437B
:10067000B0FBF1F005B0704708494843FAE70000C5
:1006800002030405060708090A0B0C0D0E0F1010D3
:10069000010200000010024000127A0000093D0033
:1006A0002DE9F84F04460078B94DC00748D0686876
:1006B000C0F38100012807D06868C0F381000228D8
:1006C00009D16868C00306D52868800338D56068FA
:1006D00000286FD034E06068B0F5803F0BD010B1D7
:1006E000B0F5A02F11D0286820F480302860286849
:1006F00020F4802002E0286840F4803028606068A0
:1007000088B1FFF751FE064609E0286840F48020D2
:100710002860F0E7FFF748FE801B642875D828683A
:100720008003F7D50CE0FFF73FFE064605E000BF6B
:10073000FFF73AFE801B6428F0D828688003F7D4BE
:100740002078944E80074FF001094FF000083BD508
:10075000686810F00C0F07D06868C0F381000228A9
:1007600009D16868C00306D42868800714D52069B9
:1007700001281FD110E02069B0B1C6F80090FFF742
:1007800013FE074605E000BFFFF70EFEC01B022860
:10079000C4D828688007F7D52868616920F0F80078
:1007A00040EAC10028600FE0C6F80080FFF7FCFDBA
:1007B000074606E0E9E000BFFFF7F6FDC01B022890
:1007C00023D828688007F7D4207800072CD57248F2
:1007D000A169D9B1C0F80090FFF7E6FD074604E033
:1007E000FFF7E2FDC01B02280FD8686A8007F7D523
:1007F0006A484FF4FA510068B0FBF1F0009000BF76
:100800000098411E0091FAD20EE080E0C0F800800E
:10081000FFF7CAFD074604E0FFF7C6FDC01B02282C
:1008200075D8686A8007F7D42078400760D5E869F2
:100830000027C00008D4E86940F08050E861E8690A
:10084000012700F08050009055480168C90513D475
:100850000168834641F480710160FFF7A5FD82467F
:1008600006E000BFFFF7A0FDA0EB0A0064284ED809
:10087000DBF80000C005F5D5E06801280AD008B112
:10088000052813D0286A20F001002862286A20F089
:10089000040002E0286A40F001002862E06841F2AA
:1008A000883B98B1FFF780FD82460BE0286A40F054
:1008B00004002862EEE700BFFFF776FDA0EB0A0117
:1008C00059455AD8286A8007F6D50CE0FFF76CFD29
:1008D000824605E0FFF768FDA0EB0A0159454CD8B8
:1008E000286A8007F6D41FB1E86920F08050E861DB
:1008F000E06988B36968C1F38101022945D0022803
:10090000C6F8608004D0FFF74FFD044638E034E0BD
:10091000FFF74AFD074604E0FFF746FDC01B02282B
:100920002BD828688001F7D4206AB0F5803F05D124
:100930006868A16820F4003008436860D4E90801C1
:100940000843696821F4741108436860C6F8609030
:10095000FFF72AFD044606E015E000BFFFF724FD7F
:10096000001B022809D828688001F7D50BE000BFDA
:10097000FFF71AFD001B022802D90320BDE8F88FFB
:1009800028688001F4D40020F8E70120F6E7000091
:100990000010024000004242800442421400002045
:1009A0000070004070B5040005D00025A56294F8E1
:1009B000510010B104E0012070BD204600F034F871
:1009C000022084F851002068016821F04001016094
:1009D000D4E901010843D4E90312114308436169D2
:1009E0000843218B01F400710843E1690843216A3F
:1009F0000843A16A084321680860A069042101EA4C
:100A00001040616A0843216848602168E06A086113
:100A10002068C16921F40061C1616565012084F825
:100A20005100002070BD000070B586B00024009415
:100A30000194029403940068204988423BD12048E5
:100A4000816941F480518161816901F4805104918F
:100A5000816941F010018161816901F01001049107
:100A6000816941F0040181618069164E00F0040043
:100A70000490A02000900220032501906946039570
:100A80003046FFF797FB4020CDE900046946304629
:100A90000294FFF78FFB0C4C012210212046FFF738
:100AA0007DFC01211020CDE90215CDE90001694648
:100AB0002046FFF77FFB06B070BD0000003001400C
:100AC0000010024000080140001001402DE9F84FDD
:100AD000044690F8500000260A9F9A4693460D4619
:100AE0004FF0010801280ED0012084F85000FFF7D4
:100AF0005BFC814694F85100616801280CD0B1F587
:100B0000827F07D102E00220BDE8F88FA16809B911
:100B1000042801D00226BDE055B1BBF1000F07D07B
:100B2000BAF1000F04D094F85100012802D004E07B
:100B30000126AFE0052084F8510000206065C4F86C
:100B400038B0A4F83EA0A4F83CA02563A4F836A0D1
:100B5000A4F834A02064606420680168490603D4C6
:100B6000016841F040010160E068B0F5006F606825
:100B700004D0E8B3E08E01283BD06AE010B1E08EEB
:100B800001282ED1216835F8020BC860E08E401E86
:100B9000E08626E0B8F1000F0DD0E08E58B1206855
:100BA0008168890707D535F8021BC160E08E401EB9
:100BB000E0864FF00008E08F58B120688168C907CF
:100BC00007D0C0682BF8020BE08F401EE0874FF083
:100BD0000108781C05D0FFF7E7FBA0EB0900B8423D
:100BE00046D2E08E0028D5D1E08F0028D2D136E061
:100BF000FFE7216815F8010B0873E08E401EE086C0
:100C000027E000BFB8F1000F0DD0E08E58B120688A
:100C10008168890707D515F8011B0173E08E401E16
:100C2000E0864FF00008E08F58B120688168C9075E
:100C300007D0C0680BF8010BE08F401EE0874FF033
:100C40000108781C05D0FFF7AFFBA0EB0900B84204
:100C50000ED2E08E0028D5D1E08F0028D2D13B46BD
:100C6000012202212046CDF8009000F07DFB08B162
:100C700003260FE04A463946204600F065FB18B1CE
:100C800001262020606505E0A06818B92068C168C9
:100C900080680090012084F85100002084F8500002
:100CA000304631E710B5401EB0F1807F01D30120FE
:100CB00010BD4FF0E02460610F21601700F054F97F
:100CC0000020A06107202061002010BDFEE7000089
:100CD00010B586B0002000900190029003900E485D
:100CE000816941F02001816180690C4C00F0200095
:100CF0000490012204212046FFF750FB042001212B
:100D0000CDE900010320CDE9021069462046FFF736
:100D100051FA06B010BD000000100240001401405E
:100D2000FEE770471CB50FA10522D1E90001CDE90E
:100D300000016946302000F0D9F8052269461020EC
:100D400000F07EF8002069460A5CA52A03D1401C09
:100D5000C0B20528F8D3052801D001201CBD002011
:100D60001CBD0000A5A5A5A5A500000030B585B057
:100D7000002418480094019402940394816941F07E
:100D800004018161816901F004010491816941F0EC
:100D9000100181618069104D00F010000490012263
:100DA00010212846FFF7FAFA10200121CDE90001B1
:100DB0000320CDE9021069462846FFF7FBF9202001
:100DC000CDE90004694605480294FFF7F3F905B040
:100DD00030BD00000010024000080140001001403A
:100DE00010B5154C002210212046FFF7D7FA052236
:100DF00012492A2000F07AF80121212000F09AF807
:100E00000121222000F096F82821252000F092F8F8
:100E10002021312000F08EF80F21262000F08AF8E2
:100E20000F21202000F086F820460122BDE8104066
:100E30001021FFF7B3BA000000080140E5150008D3
:100E40002DE9F041DFF83C8015460F4604460022AC
:100E500010214046FFF7A2FA204600F065FA064648
:100E6000002405E0FF2000F05FFA3855641CE4B26E
:100E7000AC42F7D3012210214046FFF78FFA3046EB
:100E8000BDE8F0810010014070B50A4D0446002213
:100E900010212846FFF782FA204600F045FAFF208D
:100EA00000F042FA0446012210212846FFF776FAA4
:100EB000204670BD0010014070B505460720FFF7C1
:100EC000E3FF04460146272000F034F860060AD507
:100ED000202229466120FFF7B3FFFF21E22000F026
:100EE00029F8002070BD012070BD00002DE9F041FF
:100EF000DFF83C8016460D4604460022102140468D
:100F0000FFF74CFA204600F00FFA0746002405E0F0
:100F100015F8010B00F008FA641CE4B2B442F7D3F0
:100F2000012210214046FFF739FA3846BDE8F0812A
:100F30000010014070B50B4D0E46044600221021F2
:100F40002846FFF72BFA204600F0EEF9044630461B
:100F500000F0EAF9012210212846FFF71FFA204687
:100F600070BD0000001001400907090E002806DAD4
:100F700000F00F0000F1E02080F8141D704700F130
:100F8000E02080F80014704770B5002404F1B00030
:100F9000C0B2002100F06AF90021084600F066F9AD
:100FA0000021102000F062F900250121002000F04E
:100FB0005DF96D1CEDB2802DF7D3641CE4B2082CF2
:100FC000E4D370BD2DE9F0415B4886B0816941F002
:100FD00008018161816901F008010491816941F092
:100FE00004018161816901F004010491816941F08A
:100FF0001001816180694FF4304400F010000490CA
:101000000120CDE9004002900320DFF830810390F9
:1010100069464046FFF7CEF84020494E00906946A9
:101020003046FFF7C7F8474FB51569463846009573
:10103000FFF7C0F8012221464046FFF7AFF9012231
:1010400040213046FFF7AAF9012229463846FFF72A
:10105000A5F90021AE2000F009F90021084600F0B2
:1010600005F90021102000F001F90021202000F0F6
:10107000FDF80021022000F0F9F80021402000F0E6
:10108000F5F80021812000F0F1F80021CF2000F0D8
:10109000EDF80021A12000F0E9F80021C82000F0BF
:1010A000E5F80021A62000F0E1F80021A82000F0DA
:1010B000DDF800213F2000F0D9F80021D32000F016
:1010C000D5F80021084600F0D1F80021D52000F025
:1010D000CDF80021802000F0C9F80021D92000F0CF
:1010E000C5F80021F12000F0C1F80021DA2000F05D
:1010F000BDF80021122000F0B9F80021DB2000F03B
:10110000B5F80021402000F0B1F800218D2000F05A
:10111000ADF80021142000F0A9F80021A42000F06F
:10112000A5F80021A62000F0A1F80021AF2000F0D2
:101130009DF806B0BDE8F08100100240000C0140AF
:10114000001001400008014010B50446B031C8B29B
:10115000002100F08BF8102040EA1410002100F06C
:1011600085F804F00F00BDE8104040F001000021B8
:1011700000F07CB82DE9F041203A00240D4680466D
:10118000D7B27F2803D900208D1C8046EDB22946B6
:10119000FFF7DAFF0F4E00BF04EB07100121305CB0
:1011A00000F064F8641CE4B2082CF5D36D1CE9B2BD
:1011B0004046FFF7C9FF002404EB0710304401212B
:1011C000007A00F053F8641CE4B2082CF4D3BDE8B4
:1011D000F0810000EA1500082DE9F047804600265E
:1011E00008981D4691468A463446470821E0281B48
:1011F000401EC1B20A2000F0EBF9B9FBF0F00A2161
:10120000B0FBF1F201FB120026B9691E8C4201DA33
:1012100030B101263030C2B207FB0480C0B203E017
:1012200007FB0480C0B220225146FFF7A3FF641CD5
:10123000E4B2AC42DBD3BDE8F0872DE9F0411746BC
:101240000E46044600250CE031462046FFF792FF8B
:101250000834E4B2782C02D90024B61CF6B26D1C16
:10126000EDB27A5D002AEFD1BDE8F0812DE9F047BB
:101270001C4E0C4605464FF4805A0022514630461B
:10128000FFF78CF8DFF860800CB1012200E000224B
:1012900040214046FFF782F880244FF40049A7011F
:1012A000002239463046FFF779F8254201D0012265
:1012B00000E0002249463046FFF770F80122394627
:1012C0003046FFF76BF86408EAD1012251463046F8
:1012D000FFF764F84046BDE8F04701224021FFF7E0
:1012E0005DB80000000C0140001001407047000094
:1012F0000C480B494FF4007201604FF48271416059
:1013000000218160C1600161C0E905121022C0E9BD
:101310000721416281620A21C162FFF743BB0000DD
:10132000003001401800002001B582B04FF47A70FF
:101330000090012301AA02A90248FFF7C7FB9DF80C
:1013400004000EBD1800002038B50B46009204467C
:101350000022802100F008F8002804D0606D40F0E1
:1013600020006065032038BD2DE9F0411D46174679
:101370000E460446DDF8188035E0681C33D02DB1E8
:10138000FFF712F8A0EB0800A8422CD320684168B0
:1013900021F0E00141606068B0F5827F0BD1A06868
:1013A000B0F5004F02D0B0F5806F04D1206801681D
:1013B00021F040010160A06AB0F5005F0AD1206809
:1013C00001684DF6FF72114001602068016841F428
:1013D00000510160012084F85100002084F8500081
:1013E0000320BDE8F0812068806836EA000004D060
:1013F0000020B842C1D10020F3E70120F9E770478F
:10140000FEF7D8BF30B58FB028216846FEF7B3FE8F
:1014100014210AA8FEF7AFFE0224012004900094D4
:101420001020059000254FF46010CDE90850079476
:101430006846FFF735F90AA90F2081E831006002FC
:10144000CDE90D0502210AA8FFF73EF80FB030BD27
:101450000D48016841F00101016041680B4A1140EB
:10146000416001680A4A11400160016821F480214D
:101470000160416821F4FE0141604FF41F01816069
:101480000449C00308607047001002400000FFF8E4
:10149000FFFFF6FE08ED00E0FEE702E008C8121FBD
:1014A00008C1002AFAD170477047002001E001C14D
:1014B000121F002AFBD170474FF0E0210A6922F089
:1014C00004020A610349C0084FF47A72087050435D
:1014D00048607047000000201CB502208DF8040011
:1014E000FEF770FFFFF78EFF4020FFF7E5FFFFF7E5
:1014F000FFFEFFF7EDFBFFF739FCFFF763FDFFF79A
:1015000043FD4FF480782B4C2B4D09E000224146DF
:101510002046FEF743FF002204212846FEF73EFF47
:10152000FFF700FC0028F1D1FFF75AFC102601A8B4
:10153000FFF7C2FC074621A202210020FFF77DFE33
:10154000042300969DF8042002212020FFF744FE8A
:101550001BA204210020FFF770FE012F04D11AA264
:1015600004212020FFF769FE01AA06210020FFF7D1
:1015700064FE9DF80400352804D10022414620462F
:10158000FEF70CFF9DF804006E2804D10022042110
:101590002846FEF703FF9DF804003028C7D101223A
:1015A00004212846FEF7FAFE012241462046FEF7B6
:1015B000F5FEBCE7000801400014014052783A00F3
:1015C0007374613A000000004E6F205278000000F2
:1015D0000246012000E05043491EC9B2FBD27047C9
:1015E00034431010013443101001000000000000CB
:1015F00000000000000000000000000000F80000F3
:101600000000000000333000000000100C06100C39
:101610000600000000000000000040C07840C078D4
:101620004000043F04043F040400007088FC0830BC
:101630000000001820FF211E0000F008F000E01854
:10164000000000211C031E211E0000F0088870000D
:1016500000001E2123241927211010160E0000005F
:1016600000000000000000000000000000E018047E
:101670000200000000071820400000020418E000EB
:1016800000000040201807000000404080F080402B
:1016900040000202010F01020200000000F0000001
:1016A00000000101011F0101010000000000000015
:1016B000000080B07000000000000000000000008A
:1016C0000000000101010101010100000000000013
:1016D00000000030300000000000000000008060CA
:1016E0001804006018060100000000E0100808104F
:1016F000E000000F102020100F00001010F8000074
:1017000000000020203F202000000070080808880A
:1017100070000030282422213000003008888848DA
:1017200030000018202020110E000000C02010F80A
:10173000000000070424243F240000F808888808DB
:1017400008000019212020110E0000E010888818E0
:101750000000000F112020110E0000380808C838C2
:1017600008000000003F00000000007088080888A2
:101770007000001C222121221C0000E0100808102B
:10178000E0000000312222110F00000000C0C00064
:101790000000000000303000000000000080000069
:1017A0000000000080600000000000008040201069
:1017B0000800000102040810200040404040404062
:1017C00040000404040404040400000810204080C5
:1017D00000000020100804020100007048080808FA
:1017E000F0000000003036010000C030C828E810CA
:1017F000E0000718272423140B000000C038E00085
:101800000000203C23020227382008F888888870CE
:101810000000203F202020110E00C03008080808DA
:101820003800071820202010080008F808080810C1
:10183000E000203F202020100F0008F88888E808EA
:101840001000203F20202320180008F88888E8088E
:101850001000203F200003000000C03008080838B6
:10186000000007182020221E020008F808000008C7
:10187000F808203F210101213F20000808F808084E
:1018800000000020203F2020000000000808F80889
:101890000800C08080807F00000008F888C02818F9
:1018A0000800203F20012638200008F8080000002A
:1018B0000000203F20202020300008F8F800F8F831
:1018C0000800203F003F003F200008F830C000081B
:1018D000F808203F200007183F00E0100808081013
:1018E000E0000F10202020100F0008F8080808085A
:1018F000F000203F210101010000E010080808105D
:10190000E0000F18242438504F0008F88888888891
:101910007000203F2000030C302000708808080869
:1019200038000038202121221C00180808F8080877
:1019300018000000203F2000000008F80800000800
:10194000F808001F202020201F000878880000C809
:101950003808000007380E010000F80800F80008F9
:10196000F800033C0700073C030008186880806803
:10197000180820302C03032C30200838C800C83841
:1019800008000000203F2000000010080808C838A8
:1019900008002038262120201800000000FE020246
:1019A00002000000007F40404000000C30C00000FA
:1019B0000000000000010638C00000020202FE0024
:1019C0000000004040407F000000000004020202CE
:1019D0000400000000000000000000000000000003
:1019E00000008080808080808080000202040000EF
:1019F00000000000000000000000000080808080E7
:101A000000000019242222223F2008F800808000D4
:101A10000000003F112020110E0000000080808097
:101A20000000000E1120202011000000008080889E
:101A3000F800000E112020103F20000080808080E0
:101A40000000001F222222221300008080F08888DC
:101A500088180020203F2020000000008080808027
:101A60008000006B94949493600008F8008080805C
:101A70000000203F210000203F20008098980000B7
:101A800000000020203F20200000000000809898E7
:101A9000000000C08080807F000008F80000808087
:101AA0008000203F24022D302000000808F80000AC
:101AB00000000020203F2020000080808080808067
:101AC0008000203F20003F20003F808000808080F9
:101AD0000000203F210000203F2000008080808007
:101AE0000000001F202020201F0080800080800038
:101AF000000080FFA12020110E00000000808080E7
:101B00008000000E112020A0FF8080808000808057
:101B1000800020203F212000010000008080808084
:101B200080000033242424241900008080E0808079
:101B300000000000001F20200000808000000080C6
:101B40008000001F202020103F2080808000008027
:101B5000808000010E300806010080800080008037
:101B600080800F300C030C300F00008080008080DC
:101B700080000020312E0E31200080808000008007
:101B8000808080818E7018060100008080808080B7
:101B900080000021302C2221300000000000807CD9
:101BA000020200000000003F404000000000FF0073
:101BB000000000000000FF0000000002027C800026
:101BC00000000040403F000000000006010102024A
:101BD00004040000000000000000000000000000FD
:101BE0000000010203040607080900000C1C00089D
:101BF00000000020180000009A140008241C0008AF
:101C00001800002058040000AA140008000000007A
:101C100000000000010000001000000000000000B3
:041C200000A24A04D0
:0400000508000131BD
:00000001FF
