:03000000020A7081
:0C0A7000787FE4F6D8FD75811E0209575E
:100A6000302E393627204F4C4544205445535400EE
:1009570012068B7BFF7A0A7960750E107D18E4FF0B
:1009670012082212090575150C751601AB087D349E
:100977007F241205F3E508FB7A00750D03750E0C4D
:100987007D347F5E1207221209050508E508D39416
:0B0997007E400375082012000080CB9A
:1000030000000000000000000000000000000000ED
:100013000000000000001FCC000C000000000000E6
:10002300000008003000600008003000600000009D
:10003300022003FC1E20022003FC1E2002200000DD
:1000430000000E1811043FFF10840C78000000001C
:100053000F0010840F3800C0077818840078000060
:1000630000780F8410C411240E9800E40084000863
:10007300080068007000000000000000000000009D
:1000830000000000000007E01818200440020000F0
:10009300000040022004181807E0000000000000E0
:1000A3000240024001800FF0018002400240000044
:1000B3000080008000800FF8008000800080000036
:1000C3000001000D000E0000000000000000000011
:1000D300000000800080008000800080008000809D
:1000E3000000000C000C00000000000000000000F5
:1000F30000000006001800600180060018002000C0
:10010300000007F0080810041004080807F00000B6
:100113000000080408041FFC0004000400000000A1
:1001230000000E0C10141024104411840E0C000057
:1001330000000C1810041104110412880C70000044
:10014300000000E00320042408241FFC0024000016
:1001530000001F981084110411041088107000000F
:10016300000007F0088811041104188800700000CB
:1001730000001C00100010FC13001C001000000005
:1001830000000E3811441084108411440E3800000E
:1001930000000700088C10441044088807F0000092
:1001A300000000000000030C030C0000000000002E
:1001B3000000000000010106000000000000000034
:1001C3000000008001400220041008081004000011
:1001D300022002200220022002200220022000002E
:1001E30000001004080804100220014000800000F1
:1001F30000000E001200100C106C10800F000000A5
:1002030003E00C1813E4142417C4082807D00000D3
:100213000004003C03C41C40074000E4001C00042D
:1002230010041FFC1104110411040E880070000057
:1002330003E00C1810041004100410081C10000034
:1002430010041FFC100410041004080807F0000039
:1002530010041FFC1104110417C410040818000033
:1002630010041FFC1104110017C010000800000047
:1002730003E00C181004100410441C780040000024
:1002830010041FFC10840080008010841FFC1004E5
:100293000000100410041FFC1004100400000000F0
:1002A30000030001100110011FFE100010000000E8
:1002B30010041FFC110403801464181C10040000B4
:1002C30010041FFC1004000400040004000C0000D0
:1002D30010041FFC1F0000FC1F001FFC1004000083
:1002E30010041FFC0C04030000E010181FFC100096
:1002F30007F00808100410041004080807F00000B1
:1003030010041FFC10841080108010800F00000068
:1003130007F0081810241024101C080A07F2000024
:1003230010041FFC1104110011C011300E0C000445
:1003330000000E1C11041084108410441C380000AB
:100343001800100010041FFC100410001800000017
:1003530010001FF810040004000410041FF810001C
:1003630010001E0011E0001C007013801C00100020
:100373001FC0103C00E01F0000E0103C1FC0000045
:100383001004180C163401C001C01634180C1004E4
:1003930010001C00130400FC13041C0010000000D8
:1003A3000804101C1064108413041C0410180000AB
:1003B3000000000000007FFE4002400240020000F7
:1003C300000030000C0003800060001C00030000EC
:1003D30000004002400240027FFE000000000000D7
:1003E300000000002000400040004000200000000A
:1003F30000010001000100010001000100010001F2
:100403000000400040002000000000000000000049
:1004130000000098012401440144014400FC00044D
:1004230010001FFC00880104010400880070000014
:10043300000000700088010401040104008800002A
:100443000000007000880104010411081FFC00046F
:10045300000000F8014401440144014400C80000C5
:100463000000010401040FFC110411041100180021
:10047300000000D601290129012901C90106000054
:1004830010041FFC008401000100010400FC0004AF
:1004930000000104190419FC00040004000000001A
:1004A3000000000300010101190119FE0000000012
:1004B30010041FFC0024004001B4010C01040000DF
:1004C3000000100410041FFC0004000400000000DE
:1004D300010401FC0104010001FC0104010000FC12
:1004E300010401FC008401000100010400FC00047C
:1004F300000000F8010401040104010400F80000F5
:10050300010101FF0085010401040088007000005F
:1005130000000070008801040104010501FF0001CF
:100523000104010401FC00840104010001800000B6
:10053300000000CC012401240124012401980000BF
:1005430000000100010007F801040104000000009D
:10055300010001F8000400040004010801FC000488
:10056300010001800170000C001001600180010096
:1005730001F0010C003001C00030010C01F001005A
:1005830000000104018C00740170018C010400005F
:10059300010101810171000E001801600180010059
:1005A30000000184010C013401440184010C0000AA
:1005B300000000000000000001003EFC4002400279
:1005C3000000000000000000FFFF0000000000002A
:1005D3000000400240023EFC010000000000000059
:1005E30000006000800080004000400020002000E8
:10090500E4F50FE50F24B0FFE4FD1209A9E4FDFFAE
:100915001209A9E4FD7F101209A9E4F51075F00884
:10092500E510A42400F582E5F03400F583E5822581
:100935000FF582E43583F583E0FF7D011209A905F2
:1009450010E510C3948040D5050FE50FC39408400A
:01095500B2EF
:01095600227E
:0709A2007F8D1209A97F14EB
:1009A900ED24FF9283C284E4FEC281EF30E704D2D2
:1009B900808002C280D281EF25E0FF0EBE08EAD214
:0309C90084D28352
:0109CC002208
:0A0A7C00E4FD1209A27FAF0209A9F0
:100A4F00E4FD7F8D1209A97F101209A97FAE02095B
:010A5F00A9ED
:1009CD00E4FFE4FE75F008EEA42400F582E5F034B2
:1009DD0000F583E5822FF582E43583F583E4F00E8F
:0A09ED00BE80E10FBF08DB02090520
:10089A00EFD3947F5064ED943F505FED13131354DC
:1008AA001FFEC374079EFCED5407FEC374079EFE29
:1008BA007401A806088002C333D8FCFEEB75F00861
:1008CA00601AEFA42400F582E5F03400F583E5828E
:1008DA002CF582E43583F583E04EF022EFA4240060
:1008EA00F582E5F03400F583E5822CF582E4358360
:0A08FA00F583E0FFEEF4FEEF5EF080
:0109040022D0
:0409F7008D1B8B1CAD
:1009FB00AA07EAD3951C5017A91BE9D3951D500CD8
:100A0B00AF02AD01AB1E12089A0980EE0A80E30219
:020A1B000905CB
:0605F3008F128D138B1422
:1005F900851318E515131313541FFFE515540760E8
:10060900047E0180027E00EF2EFFE515C313FEEF85
:100619008EF0A4F51974E02514F514E4FAEAC395EB
:1006290019505EE5156410705875F010E514A4248E
:1006390003F582E5F03400F583E5822AF582E43595
:1006490083F583E493F517E4F9E51730E704AB166E
:10065900800AE51670047B0180027B00AD13AF129E
:1006690012089AE51725E0F5170513C3E513951840
:10067900B515078518130512800409B908CB0A8036
:010689009CD4
:01068A00224D
:040A37008F12A9056C
:100A3B007F017E00AD0119ED6009AD127C0012073C
:030A4B00BB80F17C
:010A4E002285
:080722008F098D0A8A0B8B0C74
:10072A00E4F511F50FE50FC3950D506BC3E50D9573
:10073A000F14FD7F0A120A37AC0BAD0CCFCDCFCE0A
:10074A00CCCE1207CD7C007D0A1207CD8D10E511A3
:10075A007026E50D14FFE50FC39F501CE5107015B8
:10076A00E50EC313850FF0A42509FF850E1575162E
:10077A00017B208019751101E50EC313850FF0A4C2
:10078A002509FFE5102430FB850E15751601AD0A03
:07079A001205F3050F808E2C
:0107A1002235
:100822008F098D0A8B0B8A0C890DAB0BAA0CA90DB3
:100832001207A2FFD3947E505EEFC394204058E586
:100842000E13FFC374809FFFE509D39F4009E4F5AF
:1008520009E50E250AF50AC37440950EFFE50AD391
:100862009F4008E4F509F50A1209CDAB0BAA0CA9C1
:100872000D1207A2FB850E15751601AD0AAF0912FE
:1008820005F3E50EC3132509F5097401250DF50DD0
:08089200E4350CF50C80932203
:10068B00D280D281D284D283D2827F647E00120A3E
:10069B001DC2827F647E00120A1DD282E4FD7FAEF2
:1006AB001209A97FD51209A97F501209A97FA81297
:1006BB0009A97F3F1209A97FD31209A9E4FF1209E7
:1006CB00A97F401209A91209A27F201209A97F0252
:1006DB001209A97FA11209A97FC01209A97FDA12F9
:1006EB0009A97F121209A97F811209A97FEF1209AB
:1006FB00A97FD91209A97FF11209A97FDB1209A9D8
:10070B007F301209A97FA41209A97FA61209A97F1C
:07071B00AF1209A90209CD8C
:100A1D00EF4E60157D087C07ED1DAA0470011C4A80
:090A2D0070F6EF1F70EA1E80E76D
:010A3600229D
:1007A200BB010689828A83E0225002E722BBFE0255
:0907B200E32289828A83E4932288
:1007BB00EF8DF0A4A8F0CF8CF0A428CE8DF0A42E52
:0207CB00FE220C
:1007CD00BC000BBE0029EF8DF084FFADF022E4CC10
:1007DD00F875F008EF2FFFEE33FEEC33FCEE9DECD9
:1007ED00984005FCEE9DFE0FD5F0E9E4CEFD22ED1F
:1007FD00F8F5F0EE8420D21CFEADF075F008EF2F69
:10080D00FFED33FD4007985006D5F0F222C398FD59
:05081D000FD5F0EA22F6
:00000001FF
