:03000000020921D1
:0C092100787FE4F6D8FD7581600209685B
:050CEB00A5A5A5A5A5CB
:0E0CDC00055B3443101001055634431010011F
:0B0AD8007B007A0079567553057F2AD9
:100AE3008B508A518952C297120C438F54E4F555A7
:100AF300E555C395535019AB500552E552AA5170B1
:100B030002055114F91208F6FF120C43055580E053
:050B1300D297AF54224F
:100B51008B508A518952C297120C438F54E4F55538
:100B6100E555C39553501B7FFF120C43AB50055203
:100B7100E552AA517002055114F9EF12090F0555FA
:070B810080DED297AF542281
:100A9200784A7C007D007BFF7A0C79EB7E007F0533
:100AA2001208D07B007A00794A7553057F30120A0A
:100AB200E37B007A00794A7553057F10120B51E4EB
:100AC200FF744A2FF8E6B4A5040FBF05F4EF6405DE
:060AD2006002D322C322E2
:0F0CCD00C297120C438F4E7FFF120C43D2972217
:100C76008D4EC297120C438F4FAF4E120C43D29734
:030C8600AF4F224B
:100B8800C2B7120AD87D017F21120C767D017F221F
:100B9800120C767D287F25120C767D207F31120C71
:100BA800767D0F7F26120C767D0F7F20120C76D271
:020BB800B72262
:100BBA008B4A8A4B894C7F07120CCD8F4DE54D30FD
:100BCA00E61EAB4AAA4BA94C7553207F61120B5102
:100BDA00AD4D7F27120C767DFF7FE2120C76C32281
:020BEA00D32214
:100B1800C2B77D0E7F20120C767D017F21120C76E4
:100B28007D017F22120C767D287F25120C767D1A96
:100B38007F24120C767B007A00795B7553057F3031
:090B4800120AE3120AD8D2B72206
:100BEC00C2B77553207FA0120AE3D2B720B2FD7FA3
:100BFC0007120CCD8F60AD607F27120C76E560304C
:0F0C0C00E4097DFF7FE1120C76D322E560D3224D
:100C89007580FFC290D291D295AF80C295EF20E7CF
:020C9900F62241
:100CAD00AE07120C89C290C2918E80D295C2952248
:100CBD00AE07120C89D290C2918E80D295C2952228
:100C9B00ED7004AC078004EF2440FCEC4480FF02B1
:020CAB000CAD8E
:100C1B008B4A8A4B894C120C9BAB4AAA4BA94C12A0
:100C2B0008F66013054CE54C7002054B14F91208DD
:080C3B00F6FF120CBD80E2225D
:100C62007F38120CAD7F0C120CAD7F06120CAD7FDB
:040C720001020CADC2
:100A2A004E5246204552524F52004E52462052656F
:100A3A00636576696E67004E524620526563657635
:100A4A006965204F4B000100000000000000000013
:100A5A00000000000000000000000000000000008C
:100A6A00000000000000000000000000000000007C
:100A7A00000000000000000000000000000000006C
:080A8A00000000000000000064
:1009AD0078087C007D007BFF7A0A79507E007F21DC
:1009BD001208D078297C007D007BFF7A0A79717E40
:1009CD00007F211208D0120C62120A92500F7BFF89
:1009DD007A0A792AE4FD7F03120C1B80EC120B8836
:1009ED007BFF7A0A7934E4FD7F02120C1B7B007ABF
:1009FD00007908120BBA40F57BFF7A0A7941E4FDC4
:100A0D007F01120C1BE4F52874302508F5087B00D6
:0D0A1D007A0079087D01E4FF120C1B80D0E7
:100C4300E4FD7E80EE60155F24FF9292D2B530936F
:0F0C530003EE4205C2B5EEC313FE80E8AF0522E3
:10092D000209ADE493A3F8E493A34003F68001F22A
:10093D0008DFF48029E493A3F85407240CC8C333CB
:10094D00C4540F4420C8834004F456800146F6DF9A
:10095D00E4800B0102040810204080900CDCE47E42
:10096D00019360BCA3FF543F30E509541FFEE4938F
:10097D00A360010ECF54C025E060A840B8E493A356
:10098D00FAE493A3F8E493A3C8C582C8CAC583CA81
:10099D00F0A3C8C582C8CAC583CADFE9DEE780BE39
:010CEA000009
:10080000E709F608DFFA8046E709F208DFFA803EDA
:1008100088828C83E709F0A3DFFA8032E309F608C7
:10082000DFFA8078E309F208DFFA807088828C832F
:10083000E309F0A3DFFA806489828A83E0A3F608E3
:10084000DFFA805889828A83E0A3F208DFFA804CBD
:1008500080D280FA80C680D4806980F28033801094
:1008600080A680EA809A80A880DA80E280CA8033FD
:1008700089828A83ECFAE493A3C8C582C8CCC58375
:10088000CCF0A3C8C582C8CCC583CCDFE9DEE78045
:100890000D89828A83E493A3F608DFF9ECFAA9F0C4
:1008A000EDFB2289828A83ECFAE0A3C8C582C8CC1A
:1008B000C583CCF0A3C8C582C8CCC583CCDFEADE33
:1008C000E880DB89828A83E493A3F208DFF980CC95
:1008D00088F0EF60010E4E60C388F0ED2402B4048E
:1008E0000050B9F582EB2402B4040050AF23234535
:0608F00082239008507302
:1008F600BB010689828A83E0225002E722BBFE0200
:09090600E32289828A83E4932232
:10090F00BB010689828A83F0225002F722BBFE01C7
:02091F00F322C1
:00000001FF
